:1000000071C000008FC000008DC000008BC00000D8
:1000100089C0000087C0000085C0000083C00000C8
:1000200081C000007FC000007DC000007BC00000D8
:1000300079C0000077C0000075C0000073C00000E8
:1000400071C000006FC000006DC000006BC00000F8
:1000500069C00000F2C5000065C0000063C0000078
:1000600061C000001EC300008AC300005BC0000026
:1000700059C0000046C2000055C0000053C0000037
:1000800051C000004FC000004DC000004BC0000038
:10009000D0C200003EC3000045C0000043C00000C5
:1000A00041C000003FC000003DC000003BC0000058
:1000B00039C0000037C0000035C0000033C0000068
:1000C00031C000002FC000002DC000002BC0000078
:1000D00029C0000027C0000025C0000023C0000088
:1000E00021C0000011241FBECFEFD1E2DEBFCDBF83
:1000F00000E00CBF12E0A0E0B2E0E6EEFCE100E0C0
:100100000BBF02C007900D92A238B107D9F729E0C2
:10011000A2E8B2E001C01D92A136B207E1F7CCD04F
:100120000C94710E6DCF2E9A88EE93E00E94F20B24
:1001300085B115B888EE93E00E94F20BF4CF2F9AA8
:1001400084EF91E00E94F20B85B115B884EF91E045
:100150000E94F20BF4CFF1D382E092E0B4C3089591
:10016000E1D389E192E0AFC30895CF93DF93CDB798
:10017000DEB7A6970FB6F894DEBF0FBECDBF88E0FE
:10018000EFE2F2E0DE01159601900D928A95E1F71B
:1001900087E0E7E3F2E0DE011D9601900D928A957B
:1001A000E1F788E0EEE3F2E0DE01549601900D9273
:1001B0008A95E1F786E0E6E4F2E0DE015C960190E4
:1001C0000D928A95E1F785E0ECE4F2E0DE0192968B
:1001D00001900D928A95E1F782D187E288D14AE0B9
:1001E000BE016F5F7F4F0E943E0ECE0105966BD31E
:1001F000CE01019668D3CE014C9665D386E277D1C5
:100200004AE0BE016F5F7F4F0E943E0ECE010D9609
:100210005AD3CE01019657D3CE014C9654D385E2E2
:1002200066D14AE0BE016F5F7F4F0A970E943E0E83
:10023000CE01449648D3CE01019645D3CE01829695
:1002400042D386E990E00E94F20BC6CF8CEC8093FB
:1002500064008EE3809365000895109280001092F0
:10026000810010926F001092B0001092B1001092B5
:1002700070001092900010929100109271001092F4
:10028000A0001092A1001092720010922001109212
:100290002101109273000895CF93CFB7F894DDDF5A
:1002A000D5DFA3D2C2D261D1999A84B1806C84B9CE
:1002B000CFBF7894CF910895CF93DF93CDB7DEB7BA
:1002C0002A970FB6F894DEBF0FBECDBFE5DFA12C95
:1002D000B12CC12CD12CCE0105967C0102E020E08E
:1002E00030E04DE151E061E572E085EB90E00E9485
:1002F0007A09CE0109967C0101E020E030E049E670
:1003000050E06AE572E083E990E0F4D7CE01079609
:100310007C0120E030E049E650E061E672E08FE9E0
:1003200090E0E8D7CE0103967C0103E020E030E0C6
:1003300047E850E068E672E08BEA90E0DBD7CE0158
:1003400001967C0102E020E030E047E850E064E7FD
:1003500072E080EB90E0CED70E94840AB7CFCF93B3
:10036000DF93EC010E94AD0A80918202909183029A
:10037000892B31F487E892E0909383028093820284
:1003800040918402509185029E01240F351F2B3D20
:1003900085E0380770F44217530770F4C091820269
:1003A000D0918302C40FD51F30938502209384021D
:1003B00005C0C0E0D0E002C0C0E0D0E00E94710BF8
:1003C000CE01DF91CF9108950895FC0103969283A9
:1003D00081832FEF3FEF3483238396838583908738
:1003E000878310820895FC01118610860895CF93AB
:1003F000DF939C01FB01DC011196CD91DC911297FA
:10040000D383C2838C819D81958384838C819D81DC
:10041000DC0113967C936E9312977D836C833187F6
:100420002087F90180818F5F8083DF91CF910895CC
:10043000CF93DF93EB01488159814F3F2FEF520754
:1004400021F4FC01A781B0850DC0DC011396129642
:10045000ED91FC911397208131814217530710F0E1
:10046000DF01F5CF1296ED91FC911397FB83EA83A0
:10047000D583C483BD83AC831396DC93CE9312974C
:1004800099878887FC0120812F5F2083DF91CF919E
:100490000895CF93DF93FC01A085B185C281D381FC
:1004A000848195819D838C83C481D5818281938150
:1004B0009B838A831196CD91DC911297CE17DF072B
:1004C00031F48C819D8112969C938E9311971186A5
:1004D00010868C9181508C93DF91CF910895A19AD1
:1004E00081E090E00E94F20B84B314BA08959AD090
:1004F00090E09C01220F331F220F331F820F931FA6
:1005000008951F920F920FB60F9211240BB60F92FF
:100510002F933F934F935F936F937F938F939F930B
:10052000AF93BF93EF93FF93809179008093C408BA
:1005300020E040E050E060E070E08091C7089091DA
:10054000C80859D5FF91EF91BF91AF919F918F91BD
:100550007F916F915F914F913F912F910F900BBEC3
:100560000F900FBE0F901F9018958FE880937A0020
:1005700010927B0080E680937C0043E060E081E0A5
:1005800055D49093C8088093C70881E00CD5909308
:10059000C6088093C50820E040E050E060E070E0CD
:1005A0006FC40895CF93C82F20E04FEF5FEF60E056
:1005B00070E08091C5089091C60857D5ECE7F0E04F
:1005C00080819C2F9F718076892B8083EBE7F0E000
:1005D0002081C0728C2F90E0959587959595879591
:1005E000922F9076892B8083EAE7F0E08081806407
:1005F0008083CF91089520E04FEF5FEF60E070E0DF
:100600008091C7089091C80830D520E040E050E0C4
:1006100060E070E08091C5089091C60831D4809167
:10062000C4080895CF93C82FBDDF8C2FE4DFCF918E
:1006300008951F920F920FB60F9211240BB60F92CE
:100640002F933F934F935F936F937F938F939F93DA
:10065000AF93BF93EF93FF936091CE008CE599E049
:10066000D0D520E040E050E060E070E0809150099B
:1006700090915109C0D48CE599E0D9D5FF91EF91C3
:10068000BF91AF919F918F917F916F915F914F91AA
:100690003F912F910F900BBE0F900FBE0F901F90A8
:1006A00018951F920F920FB60F9211240BB60F924E
:1006B0002F933F934F935F936F937F938F939F936A
:1006C000AF93BF93EF93FF936091C60089EE98E0DC
:1006D00098D520E040E050E060E070E08091500963
:1006E0009091510988D489EE98E0A1D5FF91EF91BE
:1006F000BF91AF919F918F917F916F915F914F913A
:100700003F912F910F900BBE0F900FBE0F901F9037
:1007100018951F920F920FB60F9211240BB60F92DD
:100720002F933F934F935F936F937F938F939F93F9
:10073000AF93BF93EF93FF9382E599E07FD5882332
:1007400031F082E599E04BD58093CE0005C0E9EC0D
:10075000F0E080818F7D8083FF91EF91BF91AF9119
:100760009F918F917F916F915F914F913F912F91C9
:100770000F900BBE0F900FBE0F901F9018951F92F9
:100780000F920FB60F9211240BB60F922F933F9337
:100790004F935F936F937F938F939F93AF93BF9389
:1007A000EF93FF9387E599E049D5882331F087E5FA
:1007B00099E015D58093C60005C0E1ECF0E080819A
:1007C0008F7D8083FF91EF91BF91AF919F918F912A
:1007D0007F916F915F914F913F912F910F900BBE41
:1007E0000F900FBE0F901F9018951092C50087E6CE
:1007F0008093C40088EB8093C10086E08093C200A0
:1008000040E26EE079E089EE98E0E2D440E26EEEFC
:1008100078E087E599E0DCD443E060E081E006D34E
:1008200090934F0980934E0908951092CD0087E66A
:100830008093CC0088EB8093C90086E08093CA0047
:1008400040E269EC78E08CE599E0C2D440E26EE2E7
:1008500079E082E599E0BCD443E060E081E0E6D253
:1008600090935109809350090895CF93C82F87E53D
:1008700099E0DDD48111FBCF6C2F87E599E0C1D4DD
:10088000E1ECF0E0808180628083E0ECF0E0808148
:1008900080648083CF910895CF93C82F82E599E03B
:1008A000C6D48111FBCF6C2F82E599E0AAD4E9EC84
:1008B000F0E0808180628083E8ECF0E080818064F9
:1008C0008083CF910895CF93DF93EC0188818823B3
:1008D00029F02196CADF89918111FCCFDF91CF9158
:1008E0000895CF9320E04FEF5FEF60E070E08091DC
:1008F0004E0990914F09B9D38CE599E070D4C82F77
:100900008CE599E09BD4882351F020E040E050E052
:1009100060E070E080914E0990914F09B1D28C2F28
:10092000CF91089580E0B8DFDCDF853521F48FEFCB
:10093000B3DF80E008958FEF0895D3DF81110AC0FF
:1009400085E5AADFCEDF91E0811101C090E0892F1B
:10095000819508958FEF089531E1FC01308331973F
:1009600022E220833197A3E3A083319760833197FC
:1009700070833197108231971082319760E86083DD
:10098000319710823197108231971082319762E04F
:100990006083319763E06083319764E060833197CF
:1009A00065E06083319766E06083319767E060833C
:1009B000319768E06083319769E06083319760E147
:1009C000608331973083319732E13083319733E15F
:1009D0003083319734E13083319735E1308331977B
:1009E00036E13083319737E13083319738E1308316
:1009F000319739E13083319730E23083319731E2FA
:100A0000308331972083319723E2208331974083CD
:100A100031975083319726E22083319727E2208354
:100A2000319728E22083319729E22083319720E310
:100A30002083319721E320838997089582E084BD44
:100A400016BC80E387BDEEE6F0E0808182608083A3
:100A500083E085BDA091C208B091C308CD91CDBF00
:100A6000DD91DEBFFF91EF91DF91CF91BF91AF910B
:100A70009F918F917F916F915F914F913F912F91B6
:100A80001F910F91FF90EF90DF90CF90BF90AF90AC
:100A90009F908F907F906F905F904F903F902F909E
:100AA0001F900F900CBE0F900BBE0F900FBE0F90BB
:100AB000089581E008950F920FB6F8940F920BB647
:100AC0000F920CB60F921F9211242F923F924F92C9
:100AD0005F926F927F928F929F92AF92BF92CF92CE
:100AE000DF92EF92FF920F931F932F933F934F93B9
:100AF0005F936F937F938F939F93AF93BF93CF93A6
:100B0000DF93EF93FF93A091C208B091C3080DB695
:100B10000D920EB60D92BBD6A091C208B091C3083B
:100B2000CD91CDBFDD91DEBFFF91EF91DF91CF91F0
:100B3000BF91AF919F918F917F916F915F914F91F5
:100B40003F912F911F910F91FF90EF90DF90CF90E9
:100B5000BF90AF909F908F907F906F905F904F90DD
:100B60003F902F901F900F900CBE0F900BBE0F90D8
:100B70000FBE0F9008950F920FB6F8940F920BB618
:100B80000F920CB60F921F9211242F923F924F9208
:100B90005F926F927F928F929F92AF92BF92CF920D
:100BA000DF92EF92FF920F931F932F933F934F93F8
:100BB0005F936F937F938F939F93AF93BF93CF93E5
:100BC000DF93EF93FF93A091C208B091C3080DB6D5
:100BD0000D920EB60D92C7D4811159D6A091C208BC
:100BE000B091C308CD91CDBFDD91DEBFFF91EF91F4
:100BF000DF91CF91BF91AF919F918F917F916F9135
:100C00005F914F913F912F911F910F91FF90EF9026
:100C1000DF90CF90BF90AF909F908F907F906F901C
:100C20005F904F903F902F901F900F900CBE0F90B1
:100C30000BBE0F900FBE0F9008959DDF18951F9368
:100C4000CF93DF93EC01142F8C8D81110BC0888121
:100C50009981892B09F044C08A819B818ED71B82A0
:100C60001A8245C0411117C0482F50E08C819D81E8
:100C7000FCD72C8D8C819D81820F911D9D838C834F
:100C80002A813B818217930768F1888199819D832E
:100C90008C8380E02CC0482F50E08E819F81E5D767
:100CA0002C8D30E03195219531098E819F81820F05
:100CB000931F9F838E83688179818617970730F40D
:100CC0008A819B81280F391F3F832E83123061F464
:100CD0008A8D882359F08A8D81508A8F80E007C0E1
:100CE00080E005C080E003C080E001C080E09A8D14
:100CF0009F5F9A8FDF91CF911F910895FC01CB01E7
:100D0000448D442399F050E026813781240F351F0C
:100D100037832683628173812617370720F020816D
:100D2000318137832683668177819FC708950F932A
:100D30001F93CF93DF93EC010FB6F8940F928E8D33
:100D40001816A4F48989882389F08E010F5E1F4F3D
:100D500003C08989882351F0C80122D68111ABD6FE
:100D60008E8D81508E8F8E8D18169CF38FEF8E8F07
:100D70000F900FBE0FB6F8940F928D8D1816A4F435
:100D80008885882389F08E01085F1F4F03C08885FE
:100D9000882351F0C80104D681118DD68D8D8150E4
:100DA0008D8F8D8D18169CF38FEF8D8F0F900FBE4A
:100DB000DF91CF911F910F910895CF93DF93EC01B5
:100DC0000FB6F8940F92888199812C8D30E07B8D3D
:100DD000729FA001739F500D1124FC01E40FF51FB9
:100DE000FB83EA831A8E9D838C83421B530B840FF3
:100DF000951F9F838E838FEF8D8F8E8F61110AC019
:100E00008885882369F0CE010896CAD5813041F4DF
:100E100052DE06C0CE010896D8DACE014196D5DA68
:100E20000F900FBE81E0DF91CF9108950F931F9334
:100E3000CF93DF93182F062F8823D1F08FE190E016
:100E40008EDAEC010097B1F0109FC00111240196D9
:100E500086DA99838883892B31F01B8F0C8F61E0B0
:100E6000CE01ABDF07C0CE01AFDAC0E0D0E002C0F8
:100E7000C0E0D0E0CE01DF91CF911F910F91089596
:100E80009F92AF92BF92CF92DF92EF92FF920F9319
:100E90001F93CF93DF9300D01F921F92CDB7DEB781
:100EA0008C016B015D834C83A22EB12C9924939409
:100EB0007C0188E0E80EF11C0FB6F8940F92F8015F
:100EC000928D838D981718F0F2E0AF1215C04A2D5D
:100ED000B601C801B4DEF8019189992339F0C8013F
:100EE00041965ED5813021F4E6DD02C08111E3DD5B
:100EF0000F900FBE81E046C0EC81FD81EF2B21F405
:100F00000F900FBE80E03EC0B11004C0CE0101962C
:100F10008FD5B92C0F900FBE20D30FB6F8940F9237
:100F2000F801858D8F3F09F4158EF801868D8F3F6E
:100F300009F4168E0F900FBEBE016C5F7F4FCE017D
:100F4000019681D581111AC00FB6F8940F92F8015D
:100F5000928D0F900FBEF801838D98130BC06C819A
:100F60007D81C701F2D4C801E2DEBBD38111A4CFD9
:100F7000A2DDA2CFC801DBDEB4D39ECFC801D7DE8D
:100F8000B0D380E00F900F900F900F900F90DF91F3
:100F9000CF911F910F91FF90EF90DF90CF90BF9076
:100FA000AF909F900895CF93DF938FE190E0D7D9D2
:100FB000EC010097E1F01B821A82198218821D82CF
:100FC0001C821F821E821A8E81E08B8F1C8E8FEFF7
:100FD0008D8F8E8FCE010896F8D9CE014196F5D926
:100FE00020E040E050E060E070E0CE0149DFCE015B
:100FF000DF91CF9108950F931F93CF93DF93EC016F
:101000008A019A8D8B8D981710F0223011F5422F9E
:10101000CE0115DE882331F00115110519F081E0AC
:10102000F80180838E8D8F3F79F48989882399F028
:10103000CE014196B5D4882381F00115110579F0D0
:1010400081E0F80180830CC08E8D8F5F8E8F81E0F0
:1010500007C080E005C081E003C081E001C081E0FD
:10106000DF91CF911F910F9108959F92AF92BF9200
:10107000CF92DF92EF92FF920F931F93CF93DF9364
:1010800000D01F921F92CDB7DEB78C016B015D833C
:101090004C83B22EA12C992493947C0181E1E80E1B
:1010A000F11C0FB6F8940F92F801828D882369F134
:1010B000E680F780B601C80121DEB11017C0F80143
:1010C000828D8150828F80819181892B21F494D5EA
:1010D000F80193838283F8018085882391F0C80109
:1010E00008965ED4813069F4E6DC0BC0F801F78223
:1010F000E6828189882329F0C801419651D4811163
:10110000DADC0F900FBE81E052C04C815D81452B2F
:1011100021F40F900FBE80E04AC0A11004C0CE01A0
:10112000019686D4A92C0F900FBE17D20FB6F89453
:101130000F92F801858D8F3F09F4158EF801868D89
:101140008F3F09F4168E0F900FBEBE016C5F7F4F6C
:10115000CE01019678D4811126C00FB6F8940F9273
:10116000F801828D0F900FBE811119C0F8018081A6
:101170009181892B49F40FB6F8940F92F80182817E
:1011800093819DD40F900FBE6C817D81C701DDD30B
:10119000C801CDDDA6D2811184CF8DDC82CFC801FC
:1011A000C6DD9FD27ECFC801C2DD9BD280E00F900A
:1011B0000F900F900F900F90DF91CF911F910F9193
:1011C000FF90EF90DF90CF90BF90AF909F900895E9
:1011D000FC01718360834283148213820895FC01B1
:1011E0009481A081B181A90FB11D8C919F5F9483DF
:1011F0002281921710F0921B9483938191509383D4
:101200000895FC01462F83812281821778F434816E
:1012100090E0830F911D622F70E000D5A081B18115
:10122000A80FB91F4C9383818F5F83830895FC01BE
:1012300081E022819381291380E0089521E0FC015F
:101240008381811101C020E0822F0895E0918A08F6
:10125000F0918B088081811107C08FEF9FEF9093F1
:101260000102809300020895E0918A08F0918B08B2
:101270000580F681E02D0680F781E02D8281938143
:1012800090930102809300020895CF93DF93EC01C5
:10129000E091C208F091C30893838283809169082A
:1012A00090916A08C817D90760F46091C2087091DC
:1012B000C30880918808909189086E5F7F4FB8D8E5
:1012C00016C06091C2087091C30880918A089091FD
:1012D0008B086E5F7F4FACD8809100029091010225
:1012E000C817D90720F4D0930102C0930002DF9100
:1012F000CF9108954F925F926F927F928F929F92BB
:10130000AF92BF92CF92DF92EF92FF920F931F9313
:10131000CF93DF934C015B012A01390183E290E016
:101320001ED8EC01009709F4DDC0C114D10409F006
:10133000C2C0C20114D8988F8F8B892B09F0BDC011
:10134000CE0142D8CFC0CF013191DA013D93AD013A
:10135000DC018C91882311F02150A9F718A2102FDD
:10136000043008F013E01E8B19A31AA25E01B2E04C
:10137000AB0EB11CC50137D8CE010C9634D8D98735
:10138000C88784E090E0811B91099D878C87DB8B67
:10139000CA8BA301B401C601DFDA99838883E11403
:1013A000F10419F0F701D183C0830FB6F8940F92BE
:1013B00080916B088F5F80936B088091C208909139
:1013C000C308892BD1F5D093C308C093C20880917C
:1013D0006B08813009F040C08EE998E00E94E50179
:1013E00087EA98E00E94E50180EB98E00E94E50121
:1013F00089EB98E00E94E50185E998E00E94E5010B
:101400008CE898E00E94E5018FE798E00E94E501F2
:1014100086E798E00E94E5018CE698E00E94E501ED
:1014200085E998E090938B0880938A088CE898E08F
:1014300090938908809388080FC080916708811174
:101440000BC0E091C208F091C3088689081720F00C
:10145000D093C308C093C208809163088F5F8093C4
:1014600063088E8990916808981710F48093680833
:1014700090E09C01220F331F220F331F220F331FD6
:10148000820F931FB5018256974F0E94F7010F906C
:101490000FBE80916708882351F0E091C208F09157
:1014A000C3088689801728F406DB81E01CC081E030
:1014B0001AC081E018C0D88ECF8AF1E04F1A5108C7
:1014C000CF88D88CC40CD51CD5018C91898F8C9178
:1014D000882309F443CFAE01465E5F4FF501319694
:1014E00027E031CF8FEFDF91CF911F910F91FF90C8
:1014F000EF90DF90CF90BF90AF909F908F907F90B4
:101500006F905F904F900895AF92BF92CF92DF920D
:10151000EF92FF920F93A12CB12CC12CD12CE12C76
:10152000F12C00E020E030E045E550E06DE772E0AE
:101530008EE09CE0DFDE813041F4F8948093670810
:1015400010926A081092690879DA0F91FF90EF9073
:10155000DF90CF90BF90AF900895809162088F5F29
:10156000809362080895CF92DF92EF92FF920F93DB
:101570001F93CF93DF9380916208811199C080916E
:10158000690890916A08019690936A0880936908A7
:10159000E0906908F0906A08E114F104B1F48091D8
:1015A0008A0890918B08209188083091890830939F
:1015B0008B0820938A0890938908809388088091EB
:1015C00064088F5F8093640841DE809100029091EF
:1015D0000102E816F90608F454C0D12CCC24C394B7
:1015E00001C0DC2CE0918A08F0918B088081811188
:1015F00007C08FEF9FEF909301028093000242C0DB
:10160000E0918A08F0918B080580F681E02DC68173
:10161000D7812A813B81E216F30628F43093010238
:10162000209300022FC08E010E5F1F4FC8010E9441
:1016300049028C899D89892B21F0CE010C960E944C
:1016400049022E8980916808821710F42093680857
:1016500030E0C901880F991F880F991F880F991FC3
:10166000820F931FB8018256974F0E94F701E091B5
:10167000C208F091C3089E898689981708F0B1CFF7
:10168000B1CFD12CE091C208F091C308868990E0D7
:10169000FC01EE0FFF1FEE0FFF1FEE0FFF1F8E0F5F
:1016A0009F1FFC01E256F74F8081823040F409C051
:1016B000809166088F5F80936608D12C02C0DD247C
:1016C000D39480916508882311F0DD24D3948D2D67
:1016D000DF91CF911F910F91FF90EF90DF90CF900E
:1016E0000895DF92EF92FF920F931F93CF93DF93B2
:1016F0000FB6F8940F92809162088150809362082F
:101700008091620881115FC080916B08882309F481
:101710005CC00F2EFFE7EF2EF8E0FF2EF02DDD244A
:10172000D39430C0E0918408F0918508C681D781B8
:10173000CE010C960E9449028E010E5F1F4FC80118
:101740000E9449028E8990916808981710F480933E
:10175000680890E09C01220F331F220F331F220FD5
:10176000331F820F931FB8018256974F0E94F701D3
:10177000E091C208F091C3089E898689981710F0FD
:10178000D0926508F70180818111CCCF80916608E5
:10179000882391F080916608882371F0C1E0E3DE30
:1017A0008111C09365088091660881508093660816
:1017B000809166088111F3CF80916508813039F4FA
:1017C0007AD981E005C080E003C080E001C080E0FC
:1017D0000F900FBEDF91CF911F910F91FF90EF906F
:1017E000DF900895CF93DF93EC01009799F0B5DE79
:1017F0008091690890916A08C80FD91F8091C2082A
:101800009091C30802960E944902CE013EDD69DF35
:10181000811101C050D9DF91CF9108950F2EFEE9BB
:10182000EF2EF8E0FF2EF02DC6E7D8E026C095DEBB
:10183000188157DF112309F10FB6F8940F92E09148
:101840007B08F0917C0806811781C80102960E94EE
:10185000490280916B08815080936B0880917508D4
:101860008150809375080F900FBEF8018789908D85
:101870000E94E401C8010E94E40180917508811171
:10188000D6CFF70180818230C0F315D9F6CF809191
:101890006208882321F081E0809365080895109202
:1018A00065088091680890E0FC01EE0FFF1FEE0FC5
:1018B000FF1FEE0FFF1F8E0F9F1FFC01E256F74F19
:1018C0008081811117C080916808815080936808D9
:1018D0008091680890E0FC01EE0FFF1FEE0FFF1FE4
:1018E000EE0FFF1F8E0F9F1FFC01E256F74F808106
:1018F000882349F3E0916808F0E0CF01880F991F31
:10190000880F991F880F991FE80FF91FE256F74FAC
:10191000A181B28112960D90BC91A02DB283A183BA
:10192000CF010396A817B90731F412968D919C91B7
:101930001397928381830180F281E02D86819781C4
:101940009093C3088093C2080895CF93DF93EB016F
:101950006091C2087091C308645F7F4F0E941802B3
:101960008091C2089091C30802960E944902CF3F1D
:101970008FEFD80759F46091C2087091C3086E5F69
:101980007F4F8CE698E00E94F70107C080916908BC
:1019900090916A088C0F9D1F78DCDF91CF9108959C
:1019A0000F931F93CF93DF93DC011596ED91FC917C
:1019B0001697C681D7818E01045F1F4FC8010E9410
:1019C00049028091620881111CC00A501109C801A6
:1019D0000E9449028E8990916808981710F48093AC
:1019E000680890E09C01220F331F220F331F220F43
:1019F000331F820F931FB8018256974F0E94F70141
:101A000005C0B8018FE798E00E94F701E091C20895
:101A1000F091C3089E898689891720F481E080931C
:101A2000650801C080E0DF91CF911F910F9108956B
:101A300020916408FC0120832091690830916A0894
:101A40003283218308950FB6F8940F92409169086C
:101A500050916A08DB012D913C912F3FBFEF3B076E
:101A600011F1E0916408DC01FC91FE1739F0119648
:101A7000ED91FC9112974E175F07B8F4DC011196B7
:101A8000ED91FC911297DA01AE1BBF0BA217B307C1
:101A900070F4E41BF50B2E0F3F1FFB0131832083F5
:101AA000C7DF80E005C080E003C081E001C081E0C5
:101AB0000F900FBE089581E08093650808950F93FD
:101AC0001F93CF93DF93EC01009709F451C08E89E7
:101AD000E091C208F091C3089689891708F048C0C0
:101AE0002C853D8533235CF0E091C208F091C3085A
:101AF000968924E030E0291B31093D872C8790E04E
:101B00009C01220F331F220F331F220F331F820F1E
:101B1000931F8256974F2A853B852817390711F561
:101B20008E010E5F1F4FC8010E944902E091C2085A
:101B3000F091C30886898E8B90916808981710F4ED
:101B40008093680890E09C01220F331F220F331FFF
:101B5000220F331F820F931FB8018256974F0E94A6
:101B6000F70106C0E091C208F091C30886898E8B08
:101B7000DF91CF911F910F9108950F931F93CF93F2
:101B8000DF93EC01009771F18AA181508AA32E891D
:101B900099A1291749F1811129C08E010E5F1F4FAC
:101BA000C8010E94490289A18E8B24E030E0281BE5
:101BB00031093D872C8790916808981710F480931D
:101BC000680890E09C01220F331F220F331F220F61
:101BD000331F820F931FB8018256974F0E94F7015F
:101BE00081E005C080E003C080E001C080E0DF91BB
:101BF000CF911F910F9108958091C2089091C308D1
:101C0000892B39F0E091C208F091C30882A18F5F5F
:101C100082A38091C2089091C308089597FB072E74
:101C200016F4009406D077FD08D00BD007FC05D041
:101C30003EF4909581959F4F0895709561957F4FE3
:101C40000895AA1BBB1B51E107C0AA1FBB1FA61703
:101C5000B70710F0A61BB70B881F991F5A95A9F755
:101C600080959095BC01CD010895FB01DC0102C077
:101C700001900D9241505040D8F70895BB274A304B
:101C800031F4992322F4BDE2909581959F4F01C0D4
:101C9000BB27FB015527AA27880F991FAA1FA41746
:101CA00010F0A41B83955051B9F7A05DAA3308F03A
:101CB000A95DA193009779F7B111B1931192CB016E
:101CC00000C0DC01FC01672F71917723E1F73297A7
:101CD00004C07C916D9370836291AE17BF07C8F307
:061CE0000895F894FFCF07
:101CE600FFFF0A0A5250492048616E647368616BAF
:101CF6006520446F6E650A0A000A0A4D792048611C
:101D06006E647368616B6520446F6E650A0A0046EF
:101D1600726F6E74203A004C656674203A00526900
:101D2600676874203A0020636D2C200020636D0ADA
:101D3600006D6178536F6E6172005461736B203170
:101D4600005461736B2032005250495F52656365DF
:101D5600697665005250495F53656E640049444C8C
:021D6600450036
:00000001FF
