S01400004672656552544F53323536302E7372656379
S113000071C000008FC000008DC000008BC00000D4
S113001089C0000087C0000085C0000083C00000C4
S113002081C00000BAC200007DC000007BC0000097
S113003079C0000077C0000075C0000073C00000E4
S113004071C000006FC000006DC000006BC00000F4
S113005069C00000DBC7000065C0000063C0000089
S113006061C0000012C500007EC500005BC0000036
S113007059C0000068C3000055C0000053C0000010
S113008051C000004FC000004DC000004BC0000034
S1130090C4C4000032C5000045C0000043C00000D5
S11300A041C000003FC000003DC000003BC0000054
S11300B039C0000037C0000035C0000033C0000064
S11300C031C000002FC000002DC000002BC0000074
S11300D029C0000027C0000025C0000023C0000084
S11300E021C0000011241FBECFEFD1E2DEBFCDBF7F
S11300F000E00CBF12E0A0E0B2E0E4EAF2E200E0CB
S11301000BBF02C007900D92AE34B107D9F729E0B6
S1130110AEE4B2E001C01D92AE34B207E1F734D1CF
S11301200C9450116DCFF2D586E092E0C0D5FBCF90
S1130130CF93DF9300D000D0CDB7DEB720E04FEFF0
S11301405FEFBE016A5F7F4F8091990890919A0892
S11301500E94220A8E819FEF980F9E838823E9F0E4
S113016020E04FEF5FEFBE016F5F7F4F80919B08F0
S113017090919C080E94220A89816BD58DE192E0BE
S113018096D5CE01029693D580E292E090D58E81E9
S11301909FEF980F9E838111E3CF8AE05AD584EFB5
S11301A091E00E94840ECACF66D3C8D3FECF1F93BA
S11301B0CF93DF9300D01F921F92CDB7DEB7182FD5
S11301C0CB01112399F04AE0BE016E5F7F4F0E947C
S11301D01D11198320E04FEF5FEFBE016F5F7F4F6A
S11301E080919B0890919C080E942D090F900F907C
S11301F00F900F900F90DF91CF911F910895CF939F
S1130200DF9300D0CDB7DEB71B820E94F80C9A832F
S113021089830F2EF8E76F2EF02D0F2EF3E07F2E3B
S1130220F02D6894882481F8992493947CD287E2F1
S113023080D27C0186E27DD26C0185E27AD20A9773
S11302405C0182E390E00E94840E4CD28C01083E53
S113025083E0180714F0062D172DE6E4EE16F104DA
S113026014F5FDE2CF16D10454F48DE2A816B104BE
S113027034F4749AF40180818061808319C0C601CA
S11302800A97A816B90634F4F40180818F7E80831E
S1130290749A0EC08A159B055CF47498F4018081ED
S11302A08061808305C0F40180818F7E808374988F
S11302B08B818C5F8B8320E04FEF5FEFBE016D5F1E
S11302C07F4F8091990890919A08C7D7B70186E427
S11302D06EDFB6018CE46BDFB50182E568DFB8013F
S11302E082E465DF1B8268EC70E0CE0101960E9417
S11302F0460E9CCF8CEC809364008EE38093650063
S11303000895109280001092810010926F00109254
S1130310B0001092B10010927000109290001092F0
S11303209100109271001092A0001092A1001092FE
S1130330720010922001109221011092730008950E
S1130340CF93CFB7F894DDDFD5DF43D462D42FD277
S1130350999AADD140E061E085E055D790939A0831
S11303608093990840E065E084E14DD790939C0820
S113037080939B086C9AE1E0F1E080818061808346
S1130380CFBF7894CF910895CF93DF93CDB7DEB7E5
S113039028970FB6F894DEBF0FBECDBFD1DFA12CD6
S11303A0B12CC12CD12CCE0101967C0104E09C011E
S11303B049E650E063E272E084ED90E00E94690B4C
S11303C0CE0107967C0102E020E030E04FE451E0EA
S11303D06BE272E08FEF90E00E94690BCE0105960C
S11303E07C0103E020E030E047E850E064E372E0A1
S11303F083E990E00E94690BCE0103967C0101E041
S113040020E030E047E850E060E472E088E990E002
S11304100E94690B0E94C90CC1CFCF93DF93EC01FA
S11304200E94F20C80914E0290914F02892B31F47C
S113043083E592E090934F0280934E0240915002E4
S1130440509151029E01240F351F2B3D85E0380742
S113045070F44217530770F4C0914E02D0914F02CA
S1130460C40FD51F309351022093500205C0C0E041
S1130470D0E002C0C0E0D0E00E94C50DCE01DF9103
S1130480CF9108950895FC010396928381832FEF01
S11304903FEF3483238396838583908787831082F9
S11304A00895FC01118610860895CF93DF939C0173
S11304B0FB01DC011196CD91DC911297D383C283A9
S11304C08C819D81958384838C819D81DC0113962D
S11304D07C936E9312977D836C8331872087F90117
S11304E080818F5F8083DF91CF910895CF93DF93D5
S11304F0EB01488159814F3F2FEF520721F4FC0152
S1130500A781B0850DC0DC0113961296ED91FC9184
S11305101397208131814217530710F0DF01F5CF83
S11305201296ED91FC911397FB83EA83D583C483E0
S1130530BD83AC831396DC93CE93129799878887F7
S1130540FC0120812F5F2083DF91CF910895CF9309
S1130550DF93FC01A085B185C281D381848195811B
S11305609D838C83C481D581828193819B838A837B
S11305701196CD91DC911297CE17DF0731F48C815F
S11305809D8112969C938E931197118610868C915F
S113059081508C93DF91CF9108951F920F920FB6E3
S11305A00F9211240BB60F922F933F934F935F93A7
S11305B06F937F938F939F93AF93BF93EF93FF9327
S11305C01B9B0DC072D190E09093A2088093A10868
S11305D00E94020D90939E0880939D0855C01B991C
S11305E053C00E94020D9093A8088093A7082091FD
S11305F09D0830919E08821793074CF48091A708B8
S11306009091A80801979093A8088093A7084DD1CA
S113061090E09093AA088093A9082091A1083091B2
S1130620A2088217930754F48091A9089091AA080C
S113063086509F4F9093AA088093A9088091A90897
S11306409091AA082091A1083091A208821B930BD3
S11306509093A4088093A3088091A7089091A80878
S113066020919D0830919E08821B930B9093A008C3
S113067080939F0820E040E050E060E070E08091CB
S1130680A5089091A608A4D6FF91EF91BF91AF91D0
S11306909F918F917F916F915F914F913F912F9196
S11306A00F900BBE0F900FBE0F901F901895229ABB
S11306B02398E8E6F0E0808181608083EBE6F0E057
S11306C080818860808343E060E081E09CD59093E2
S11306D0A6088093A50808952A9A8EE190E00BD18C
S11306E02A980895F9DF20E04FEF5FEF60E070E0B3
S11306F08091A5089091A608A5D68091A308909111
S1130700A40820919F083091A0086EE070E00E9438
S1130710ED10C901880F991F880F991F820F931F2D
S1130720860F971F0895A19A89E190E0C0D0A198FF
S113073008959AD090E09C01220F331F220F331F9B
S1130740820F931F08951F920F920FB60F921124D8
S11307500BB60F922F933F934F935F936F937F93B7
S11307608F939F93AF93BF93EF93FF9380917900FF
S11307708093AB0820E040E050E060E070E08091BE
S1130780AE089091AF0824D6FF91EF91BF91AF913D
S11307909F918F917F916F915F914F913F912F9195
S11307A00F900BBE0F900FBE0F901F9018958FE8FF
S11307B080937A0010927B0080E680937C0043E073
S11307C060E081E020D59093AF088093AE0881E08B
S11307D0D7D59093AD088093AC0820E040E050E07A
S11307E060E070E03AC50895CF93C82F20E04FEF42
S11307F05FEF60E070E08091AC089091AD0822D684
S1130800ECE7F0E080819C2F9F718076892B8083B8
S1130810EBE7F0E02081C0728C2F90E095958795EE
S113082095958795922F9076892B8083EAE7F0E05F
S1130830808180648083CF91089520E04FEF5FEF43
S113084060E070E08091AE089091AF08FBD520E0A5
S113085040E050E060E070E08091AC089091AD0819
S1130860FCD48091AB080895CF93C82FBDDF8C2FA3
S1130870E4DFCF9108959093B5088093B408FC0108
S1130880808191810E94370F43E060E081E0BBD416
S11308909093B1088093B00843E060E081E0B3D462
S11308A09093B3088093B208089586B5089546B529
S11308B050E09C01992314F42D5F3F4F3595279503
S11308C035952795240F351F309303022093020298
S11308D0E091B408F091B508808191810E947E0C6A
S11308E020E042E050E060E070E08091B008909138
S11308F0B108A8C5089546B550E09C01992314F4A5
S11309002D5F3F4F3595279535952795240F351F36
S11309103093010220930002E091B408F091B508ED
S113092080819181EBD720E042E050E060E070E00C
S11309308091B2089091B30885C50895CF93DF9351
S1130940C6B5C11122C08091020290910302883879
S1130950934151F080910202909103028A5F9109C0
S1130960909303028093020280910002909101020D
S11309708838934151F080910002909101028A5F7E
S113098091099093010280930002D0E080910202C9
S1130990909103028C179D0784F488E893E1909367
S11309A003028093020220E040E050E060E070E047
S11309B08091B0089091B10850D480910002909138
S11309C001028C179D0784F488E893E19093010257
S11309D08093000220E040E050E060E070E080910D
S11309E0B2089091B30839D4809102029091030225
S11309F08838934179F480910002909101028838FB
S1130A00934141F4E091B408F091B508808191815B
S1130A100E94370FDF91CF9108951F920F920FB666
S1130A200F9211240BB60F922F933F934F935F9322
S1130A306F937F938F939F93AF93BF93EF93FF93A2
S1130A406091CE0089E499E0C9D520E040E050E00F
S1130A5060E070E080913D0990913E09B9D489E449
S1130A6099E0D2D5FF91EF91BF91AF919F918F9172
S1130A707F916F915F914F913F912F910F900BBE9A
S1130A800F900FBE0F901F9018951F920F920FB6E4
S1130A900F9211240BB60F922F933F934F935F93B2
S1130AA06F937F938F939F93AF93BF93EF93FF9332
S1130AB06091C60086ED98E091D520E040E050E0DA
S1130AC060E070E080913D0990913E0981D486ED0B
S1130AD098E09AD5FF91EF91BF91AF919F918F913B
S1130AE07F916F915F914F913F912F910F900BBE2A
S1130AF00F900FBE0F901F9018951F920F920FB674
S1130B000F9211240BB60F922F933F934F935F9341
S1130B106F937F938F939F93AF93BF93EF93FF93C1
S1130B208FE399E078D5882331F08FE399E044D5B9
S1130B308093CE0005C0E9ECF0E080818F7D808356
S1130B40FF91EF91BF91AF919F918F917F916F91A1
S1130B505F914F913F912F910F900BBE0F900FBE5D
S1130B600F901F9018951F920F920FB60F92112499
S1130B700BB60F922F933F934F935F936F937F9393
S1130B808F939F93AF93BF93EF93FF9384E499E084
S1130B9042D5882331F084E499E00ED58093C600D1
S1130BA005C0E1ECF0E080818F7D8083FF91EF91BF
S1130BB0BF91AF919F918F917F916F915F914F9171
S1130BC03F912F910F900BBE0F900FBE0F901F906F
S1130BD018951092C50087E68093C40088EB809333
S1130BE0C10086E08093C20040E26BEF78E086EDBE
S1130BF098E0DBD440E26BED78E084E499E0D5D46E
S1130C0043E060E081E0FFD290933C0980933B098C
S1130C1008951092CD0087E68093CC0088EB8093F2
S1130C20C90086E08093CA0040E266EB78E089E47C
S1130C3099E0BBD440E26BE179E08FE399E0B5D46D
S1130C4043E060E081E0DFD290933E0980933D0968
S1130C500895CF93C82F84E499E0D6D48111FBCFB3
S1130C606C2F84E499E0BAD4E1ECF0E080818062F6
S1130C708083E0ECF0E0808180648083CF910895EC
S1130C80CF93C82F8FE399E0BFD48111FBCF6C2F92
S1130C908FE399E0A3D4E9ECF0E080818062808363
S1130CA0E8ECF0E0808180648083CF910895CF9355
S1130CB0DF93EC018881882329F02196CADF89918A
S1130CC08111FCCFDF91CF910895CF9320E04FEFB6
S1130CD05FEF60E070E080913B0990913C09B2D3F2
S1130CE089E499E069D4C82F89E499E094D48823ED
S1130CF051F020E040E050E060E070E080913B097A
S1130D0090913C09AAD28C2FCF910895DEDF8111F6
S1130D100AC085E5B5DFD9DF91E0811101C090E01B
S1130D20892F819508958FEF089531E1FC01308377
S1130D30319722E220833197A3E3A0833197608324
S1130D40319770833197108231971082319760E820
S1130D5060833197108231971082319710823197D6
S1130D6062E06083319763E06083319764E060837D
S1130D70319765E06083319766E06083319767E07F
S1130D806083319768E06083319769E060833197CD
S1130D9060E1608331973083319732E1308331975A
S1130DA033E13083319734E13083319735E1308357
S1130DB0319736E13083319737E13083319738E129
S1130DC03083319739E13083319730E23083319782
S1130DD031E2308331972083319723E220833197A6
S1130DE0408331975083319726E22083319727E25D
S1130DF02083319728E22083319729E22083319799
S1130E0020E32083319721E320838997089582E0AA
S1130E1084BD16BC80E387BDEEE6F0E0808182608D
S1130E20808383E085BDA0919708B0919808CD9107
S1130E30CDBFDD91DEBFFF91EF91DF91CF91BF91E7
S1130E40AF919F918F917F916F915F914F913F915E
S1130E502F911F910F91FF90EF90DF90CF90BF9053
S1130E60AF909F908F907F906F905F904F903F9046
S1130E702F901F900F900CBE0F900BBE0F900FBEC3
S1130E800F90089581E008950F920FB6F8940F9291
S1130E900BB60F920CB60F921F9211242F923F9211
S1130EA04F925F926F927F928F929F92AF92BF9276
S1130EB0CF92DF92EF92FF920F931F932F933F9362
S1130EC04F935F936F937F938F939F93AF93BF934E
S1130ED0CF93DF93EF93FF93A0919708B091980875
S1130EE00DB60D920EB60D9264D7A0919708B091ED
S1130EF09808CD91CDBFDD91DEBFFF91EF91DF91D9
S1130F00CF91BF91AF919F918F917F916F915F919D
S1130F104F913F912F911F910F91FF90EF90DF9090
S1130F20CF90BF90AF909F908F907F906F905F9085
S1130F304F903F902F901F900F900CBE0F900BBEC0
S1130F400F900FBE0F9008950F920FB6F8940F9262
S1130F500BB60F920CB60F921F9211242F923F9250
S1130F604F925F926F927F928F929F92AF92BF92B5
S1130F70CF92DF92EF92FF920F931F932F933F93A1
S1130F804F935F936F937F938F939F93AF93BF938D
S1130F90CF93DF93EF93FF93A0919708B0919808B4
S1130FA00DB60D920EB60D9232D5811102D7A091D5
S1130FB09708B0919808CD91CDBFDD91DEBFFF9128
S1130FC0EF91DF91CF91BF91AF919F918F917F91DD
S1130FD06F915F914F913F912F911F910F91FF90CE
S1130FE0EF90DF90CF90BF90AF909F908F907F90C5
S1130FF06F905F904F903F902F901F900F900CBE7A
S11310000F900BBE0F900FBE0F9008959DDF1895A3
S11310101F93CF93DF93EC01142F8C8D81110CC09F
S113102088819981892B09F047C08A819B810E941C
S11310309C101B821A8247C0411118C0482F50E0EF
S11310408C819D810E9414112C8D8C819D81820F35
S1131050911D9D838C832A813B818217930770F1B4
S1131060888199819D838C8380E02DC0482F50E036
S11310708E819F810E9414112C8D30E03195219531
S113108031098E819F81820F931F9F838E83688194
S113109079818617970730F48A819B81280F391F3D
S11310A03F832E83123061F48A8D882359F08A8D10
S11310B081508A8F80E007C080E005C080E003C0D3
S11310C080E001C080E09A8D9F5F9A8FDF91CF917D
S11310D01F910895FC01CB01448D4423A1F050E0FD
S11310E026813781240F351F3783268362817381DC
S11310F02617370720F020813181378326836681C4
S113110077810C94141108950F931F93CF93DF9359
S1131110EC010FB6F8940F928E8D1816A4F48989F9
S1131120882389F08E010F5E1F4F03C089898823AD
S113113051F0C80114D781119DD78E8D81508E8FA7
S11311408E8D18169CF38FEF8E8F0F900FBE0FB6F7
S1131150F8940F928D8D1816A4F48885882389F04D
S11311608E01085F1F4F03C08885882351F0C80192
S1131170F6D681117FD78D8D81508D8F8D8D181668
S11311809CF38FEF8D8F0F900FBEDF91CF911F9146
S11311900F910895CF93DF93EC010FB6F8940F925B
S11311A0888199812C8D30E07B8D729FA001739F83
S11311B0500D1124FC01E40FF51FFB83EA831A8E02
S11311C09D838C83421B530B840F951F9F838E83B7
S11311D08FEF8D8F8E8F61110AC08885882369F007
S11311E0CE010896BCD6813041F44EDE06C0CE0155
S11311F0089649D9CE01419646D90F900FBE81E099
S1131200DF91CF9108950F931F93CF93DF93182FFE
S1131210062F8823D1F08FE190E0FFD8EC010097EE
S1131220B1F0109FC00111240196F7D899838883E7
S1131230892B31F01B8F0C8F61E0CE01ABDF07C02F
S1131240CE0120D9C0E0D0E002C0C0E0D0E0CE01A1
S1131250DF91CF911F910F9108959F92AF92BF920A
S1131260CF92DF92EF92FF920F931F93CF93DF936E
S113127000D01F921F92CDB7DEB78C016B015D8346
S11312804C83A22EB12C992493947C0188E0E80E1F
S1131290F11C0FB6F8940F92F801928D838D981774
S11312A018F0F2E0AF1215C04A2DB601C801B0DE45
S11312B0F8019189992339F0C801419650D68130BB
S11312C021F4E2DD02C08111DFDD0F900FBE81E069
S11312D046C0EC81FD81EF2B21F40F900FBE80E01E
S11312E03EC0B11004C0CE01019681D6B92C0F9036
S11312F00FBE78D30FB6F8940F92F801858D8F3F07
S113130009F4158EF801868D8F3F09F4168E0F901F
S11313100FBEBE016C5F7F4FCE01019673D6811163
S11313201AC00FB6F8940F92F801928D0F900FBE69
S1131330F801838D98130BC06C817D81C701E4D5BE
S1131340C801E2DE22D48111A4CF9EDDA2CFC80160
S1131350DBDE1BD49ECFC801D7DE17D480E00F900C
S11313600F900F900F900F90DF91CF911F910F91DD
S1131370FF90EF90DF90CF90BF90AF909F90089533
S1131380CF93DF938FE190E048D8EC010097E1F030
S11313901B821A82198218821D821C821F821E825D
S11313A01A8E81E08B8F1C8E8FEF8D8F8E8FCE01E6
S11313B0089669D8CE01419666D820E040E050E016
S11313C060E070E0CE0149DFCE01DF91CF91089556
S11313D00F931F93CF93DF93EC018A019A8D8B8D2A
S11313E0981710F0223011F5422FCE0111DE882318
S11313F031F00115110519F081E0F80180838E8D1B
S11314008F3F79F48989882399F0CE014196A7D535
S1131410882381F00115110579F081E0F8018083BA
S11314200CC08E8D8F5F8E8F81E007C080E005C079
S113143081E003C081E001C081E0DF91CF911F9181
S11314400F9108959F92AF92BF92CF92DF92EF9245
S1131450FF920F931F93CF93DF9300D01F921F929D
S1131460CDB7DEB78C016B015D834C83B22EA12C0A
S1131470992493947C0181E1E80EF11C0FB6F89451
S11314800F92F801828D882369F1E680F780B60116
S1131490C80120DEB11017C0F801828D8150828FFF
S11314A080819181892B21F486D6F80193838283EC
S11314B0F8018085882391F0C801089650D58130C1
S11314C069F4E2DC0BC0F801F782E68281898823A3
S11314D029F0C801419643D58111D6DC0F900FBE87
S11314E081E052C04C815D81452B21F40F900FBEE9
S11314F080E04AC0A11004C0CE01019678D5A92C81
S11315000F900FBE6FD20FB6F8940F92F801858D2D
S11315108F3F09F4158EF801868D8F3F09F4168EDE
S11315200F900FBEBE016C5F7F4FCE0101966AD54E
S1131530811126C00FB6F8940F92F801828D0F9096
S11315400FBE811119C0F80180819181892B49F462
S11315500FB6F8940F92F801828193818FD50F9082
S11315600FBE6C817D81C701CFD4C801CDDD0DD301
S1131570811184CF89DC82CFC801C6DD06D37ECF3A
S1131580C801C2DD02D380E00F900F900F900F903E
S11315900F90DF91CF911F910F91FF90EF90DF900B
S11315A0CF90BF90AF909F900895FC0171836083AA
S11315B04283148213820895FC019481A081B18135
S11315C0A90FB11D8C919F5F94832281921710F013
S11315D0921B94839381915093830895FC01462F29
S11315E083812281821778F4348190E0830F911DE6
S11315F0622F70E0F2D5A081B181A80FB91F4C937E
S113160083818F5F83830895FC0181E0228193812C
S1131610291380E0089521E0FC018381811101C038
S113162020E0822F0895E0915608F09157088081B8
S1131630811107C08FEF9FEF9093050280930402FE
S11316400895E0915608F09157080580F681E02D41
S11316500680F781E02D8281938190930502809327
S113166004020895CF93DF93EC01E0919708F09181
S11316709808938382838091350890913608C8171F
S1131680D90768F46091970870919808809154087C
S1131690909155086E5F7F4F0E94760217C060914B
S11316A097087091980880915608909157086E5F3A
S11316B07F4F0E9476028091040290910502C81720
S11316C0D90720F4D0930502C0930402DF91CF918F
S11316D008954F925F926F927F928F929F92AF92F2
S11316E0BF92CF92DF92EF92FF920F931F93CF930B
S11316F0DF934C015B012A01390183E290E00E94EF
S11317000D02EC01009709F4E7C0C114D10409F0FB
S1131710CCC0C2010E940D02988F8F8B892B09F0D7
S1131720C6C0CE010E944202D7C0CF013191DA0176
S11317303D93AD01DC018C91882311F02150A9F770
S113174018A2102F053008F014E01E8B19A31AA25A
S11317505E01B2E0AB0EB11CC5010E945102CE0184
S11317600C960E945102D987C88785E090E0811BBE
S113177091099D878C87DB8BCA8BA301B401C601B9
S1131780D4DA99838883E114F10419F0F701D18341
S1131790C0830FB6F8940F92809137088F5F8093BF
S11317A037088091970890919808892B09F03FC0D9
S11317B0D0939808C093970880913708813009F036
S11317C045C00F2EFAE6EF2EF8E0FF2EF02D0F2E77
S11317D0F7E9CF2EF8E0DF2EF02DC7010E94430277
S11317E0F9E0EF0EF11CEC14FD04B9F781E698E082
S11317F00E94430288E598E00E9443028BE498E04B
S11318000E94430282E498E00E94430288E398E045
S11318100E94430281E698E090935708809356080B
S113182088E598E090935508809354080FC0809100
S1131830330881110BC0E0919708F09198088689CC
S1131840081720F0D0939808C093970880912F0828
S11318508F5F80932F088E8990913408981710F425
S11318608093340890E09C01220F331F220F331F12
S1131870220F331F820F931FB5018659974F0E9481
S113188055020F900FBE80913308882351F0E091E8
S11318909708F09198088689801728F4F5DA81E092
S11318A01CC081E01AC081E018C0D88ECF8A81E0C4
S11318B0481A5108CF88D88CC40CD51CD5018C91FA
S11318C0898F8C91882309F43BCFAE01465E5F4F2C
S11318D0F501319627E029CF8FEFDF91CF911F914A
S11318E00F91FF90EF90DF90CF90BF90AF909F90BB
S11318F08F907F906F905F904F9008950F931F93F8
S1131900CF93DF93EC01009709F43EC080919708D0
S113191090919808C817D907B9F10FB6F8940F92A7
S11319208A859B858853984069F58C899D8928E030
S11319308B34920739F1892B29F58E010E5F1F4FE5
S1131940C8010E94A7028E8990913408981710F458
S11319508093340890E09C01220F331F220F331F21
S1131960220F331F820F931FB8018659974F0E948D
S11319705502E0919708F09198089E8986899817F6
S113198008F082DA0F900FBEDF91CF911F910F9173
S11319900895AF92BF92CF92DF92EF92FF920F938E
S11319A0A12CB12CC12CD12CE12CF12C00E020E095
S11319B030E045E550E069E472E080EA9EE089DECB
S11319C0813041F4F89480933308109236081092D1
S11319D035081DDA0F91FF90EF90DF90CF90BF9004
S11319E0AF90089580912E088F5F80932E080895FC
S11319F00FB6F8940F9280913508909136080F90A5
S1131A000FBE089580913508909136080895CF92BD
S1131A10DF92EF92FF920F931F93CF93DF93809106
S1131A202E08811199C0809135089091360801964D
S1131A309093360880933508E0903508F090360886
S1131A40E114F104B1F48091560890915708209163
S1131A5054083091550830935708209356089093B2
S1131A60550880935408809130088F5F8093300824
S1131A70DADD8091040290910502E816F90608F473
S1131A8054C0D12CCC24C39401C0DC2CE091560862
S1131A90F09157088081811107C08FEF9FEF9093D9
S1131AA005028093040242C0E0915608F091570861
S1131AB00580F681E02DC681D7812A813B81E2161B
S1131AC0F30628F430930502209304022FC08E01FC
S1131AD00E5F1F4FC8010E94A7028C899D89892B24
S1131AE021F0CE010C960E94A7022E898091340821
S1131AF0821710F42093340830E0C901880F991F2D
S1131B00880F991F880F991F820F931FB801865958
S1131B10974F0E945502E0919708F09198089E898A
S1131B208689981708F0B1CFB1CFD12CE0919708EE
S1131B30F0919808868990E0FC01EE0FFF1FEE0FEC
S1131B40FF1FEE0FFF1F8E0F9F1FFC01E659F74F7B
S1131B508081823040F409C0809132088F5F809385
S1131B603208D12C02C0DD24D3948091310888231B
S1131B7011F0DD24D3948D2DDF91CF911F910F911E
S1131B80FF90EF90DF90CF900895DF92EF92FF9255
S1131B900F931F93CF93DF930FB6F8940F92809116
S1131BA02E08815080932E0880912E0881115FC0E9
S1131BB080913708882309F45CC00F2EFBE4EF2ED4
S1131BC0F8E0FF2EF02DDD24D39430C0E0915008CE
S1131BD0F0915108C681D781CE010C960E94A702CC
S1131BE08E010E5F1F4FC8010E94A7028E8990913B
S1131BF03408981710F48093340890E09C01220F65
S1131C00331F220F331F220F331F820F931FB8017C
S1131C108659974F0E945502E0919708F0919808D1
S1131C209E898689981710F0D0923108F701808137
S1131C308111CCCF80913208882391F080913208B1
S1131C40882371F0C1E0E3DE8111C09331088091F3
S1131C503208815080933208809132088111F3CF89
S1131C6080913108813039F40FD981E005C080E0DA
S1131C7003C080E001C080E00F900FBEDF91CF91E0
S1131C801F910F91FF90EF90DF9008950F931F9392
S1131C90CF93DF938C01EB01A5DE80913508909101
S1131CA03608F80120813181C20FD31F82179307B0
S1131CB048F4C217D307F8F4D183C0838C179D0767
S1131CC088F407C0C217D30790F08C179D0778F0EB
S1131CD012C0809197089091980802960E94A702DA
S1131CE0CE01C0DC52DF81110AC0CED808C0F80191
S1131CF0D183C083EECFF801D183C083F3CFDF91CA
S1131D00CF911F910F910895CF93DF93EC0100972A
S1131D1099F068DE8091350890913608C80FD91F74
S1131D20809197089091980802960E94A702CE018C
S1131D3099DC2BDF811101C0A7D8DF91CF910895E1
S1131D400F2EFAE6EF2EF8E0FF2EF02DC2E4D8E0D5
S1131D5026C048DE188119DF112309F10FB6F89463
S1131D600F92E0914708F091480806811781C80155
S1131D7002960E94A7028091370881508093370809
S1131D80809141088150809341080F900FBEF80163
S1131D908789908D0E944202C8010E94420280916C
S1131DA041088111D6CFF70180818230C0F36CD80D
S1131DB0F6CF80912E08882321F081E080933108AA
S1131DC00895109231088091340890E0FC01EE0FE0
S1131DD0FF1FEE0FFF1FEE0FFF1F8E0F9F1FFC0153
S1131DE0E659F74F8081811117C0809134088150E2
S1131DF0809334088091340890E0FC01EE0FFF1FBB
S1131E00EE0FFF1FEE0FFF1F8E0F9F1FFC01E65901
S1131E10F74F8081882349F3E0913408F0E0CF0143
S1131E20880F991F880F991F880F991FE80FF91FB2
S1131E30E659F74FA181B28112960D90BC91A02D65
S1131E40B283A183CF010396A817B90731F4129680
S1131E508D919C911397928381830180F281E02D6F
S1131E6086819781909398088093970808950F939B
S1131E701F93CF93DF93EC010FB6F8940F92009762
S1131E8021F4C0919708D09198088E010E5F1F4FDE
S1131E90C8010E94A7028C899D89892B21F0CE015B
S1131EA00C960E94A702B80188E398E00E945502AC
S1131EB00F900FBE8091970890919808C817D90782
S1131EC0A1F480913308882319F00E94440717C0B5
S1131ED08091370890913808981305C0109298089B
S1131EE0109297080CC065DF0AC0809133088823DC
S1131EF031F00FB6F8940F9296DB0F900FBEDF917E
S1131F00CF911F910F910895CF93DF93EB016091CF
S1131F10970870919808645F7F4F0E9476028091C1
S1131F2097089091980802960E94A702CF3F8FEFDE
S1131F30D80759F460919708709198086E5F7F4FA5
S1131F4088E398E00E94550207C08091350890917B
S1131F5036088C0F9D1F86DBDF91CF9108950F9378
S1131F601F93CF93DF93DC011596ED91FC911697A7
S1131F70C681D7818E01045F1F4FC8010E94A7024A
S1131F8080912E0881111CC00A501109C8010E94B9
S1131F90A7028E8990913408981710F4809334081E
S1131FA090E09C01220F331F220F331F220F331F97
S1131FB0820F931FB8018659974F0E94550205C09E
S1131FC0B8018BE498E00E945502E0919708F091E3
S1131FD098089E898689891720F481E080933108C6
S1131FE001C080E0DF91CF911F910F91089520915E
S1131FF03008FC0120832091350830913608328363
S1132000218308950FB6F8940F92409135085091AA
S11320103608DB012D913C912F3FBFEF3B0711F1B7
S1132020E0913008DC01FC91FE1739F01196ED9136
S1132030FC9112974E175F07B8F4DC011196ED91ED
S1132040FC911297DA01AE1BBF0BA217B30770F411
S1132050E41BF50B2E0F3F1FFB0131832083C7DFE9
S113206080E005C080E003C081E001C081E00F9002
S11320700FBE089581E08093310808950F931F9354
S1132080CF93DF93EC01009709F451C08E89E0915E
S11320909708F09198089689891708F048C02C850C
S11320A03D8533235CF0E0919708F0919808968978
S11320B025E030E0291B31093D872C8790E09C0105
S11320C0220F331F220F331F220F331F820F931F40
S11320D08659974F2A853B852817390711F58E01B4
S11320E00E5F1F4FC8010E94A702E0919708F0916C
S11320F0980886898E8B90913408981710F48093F1
S1132100340890E09C01220F331F220F331F220F4B
S1132110331F820F931FB8018659974F0E945502AF
S113212006C0E0919708F091980886898E8BDF911C
S1132130CF911F910F9108950F931F93CF93DF9326
S1132140EC01009771F18AA181508AA32E8999A18B
S1132150291749F1811129C08E010E5F1F4FC80153
S11321600E94A70289A18E8B25E030E0281B31094B
S11321703D872C8790913408981710F48093340885
S113218090E09C01220F331F220F331F220F331FB5
S1132190820F931FB8018659974F0E94550281E020
S11321A005C080E003C080E001C080E0DF91CF91F2
S11321B01F910F9108958091970890919808892B09
S11321C039F0E0919708F091980882A18F5F82A37B
S11321D08091970890919808089597FB072E16F41C
S11321E0009406D077FD08D00BD007FC05D03EF450
S11321F0909581959F4F0895709561957F4F0895AF
S1132200AA1BBB1B51E107C0AA1FBB1FA617B70718
S113221010F0A61BB70B881F991F5A95A9F7809534
S11322209095BC01CD010895FB01DC0102C0019031
S11322300D9241505040D8F70895BB274A3031F4ED
S1132240992322F4BDE2909581959F4F01C0BB274D
S1132250FB015527AA27880F991FAA1FA41710F05E
S1132260A41B83955051B9F7A05DAA3308F0A95D6A
S1132270A193009779F7B111B1931192CB0100C0EA
S1132280DC01FC01672F71917723E1F7329704C0D9
S11322907C916D9370836291AE17BF07C8F3089564
S10722A0F894FFCFDC
S11322A488138813FFFF0A0A5250492048616E6458
S11322B47368616B6520446F6E650A0A003A2000F6
S11322C42C20006D7954696D6572006D6178536FCB
S11322D46E6172005250495F5265636569766500A8
S11122E45250495F53656E640049444C4500F6
S9030000FC
