S01400004672656552544F53323536302E7372656379
S1130000B2C00000D0C00000CEC00000CCC00000D0
S1130010CAC00000C8C00000C6C00000C4C00000C0
S1130020C2C00000ADC30000BEC00000BCC00000E0
S1130030BAC00000B8C00000B6C00000B4C00000E0
S1130040B2C00000B0C00000AEC00000ACC00000F0
S1130050AAC000000C94B00AA6C00000A4C000000E
S1130060A2C000004AC70000C0C700009CC0000036
S11300709AC000008AC4000096C0000094C000002A
S113008092C0000090C000008EC000008CC0000030
S1130090FCC600006AC7000086C0000084C00000DF
S11300A082C0000080C000007EC000007CC0000050
S11300B07AC0000078C0000076C0000074C0000060
S11300C072C0000070C000006EC000006CC0000070
S11300D06AC0000068C0000066C0000064C0000080
S11300E062C0000007634236B79BD8A71A39685626
S11300F018AEBAAB558C1D3CB7CC5763BD6DEDFD46
S1130100753EF6177231BF000000803F0800000002
S1130110BE922449123EABAAAA2ABECDCCCC4C3EF8
S113012000000080BEABAAAAAA3E00000000BF00E7
S11301300000803F0000000000084178D3BB4387E3
S1130140D1133D190E3CC3BD4282AD2B3E68EC82F7
S113015076BED98FE1A93E4C80EFFFBE01C4FF7F7C
S11301603F000000000011241FBECFEFD1E2DEBF2C
S1130170CDBF00E00CBF12E0A0E0B2E0E4EBFDE292
S113018000E00BBF02C007900D92A633B107D9F768
S113019029E0A6E3B2E001C01D92A134B207E1F761
S11301A0D7D00C94D8162CCF12E0D1E00E94E708E7
S11301B0C82F0E942709882319F00E941C09F6CF32
S11301C08C2F0E9439098111F1CF8091360281115F
S11301D00AC08C2F0E942D09882341F385E0BAD7E9
S11301E0D0933602E3CF813059F48C2F0E94330927
S11301F0882319F010933602D9CF10923602D6CF45
S11302008230A1F6C83191F610923602CFCFCF9347
S1130210DF9300D000D0CDB7DEB7FAD7182F20E097
S11302204FEF5FEFBE016A5F7F4F80918F0890911F
S113023090080E94D40C25C020E04FEF5FEFBE0170
S11302406F5F7F4F80919108909192080E94D40C27
S113025089815FD787E092E0ACD7CE010296A9D717
S113026089E092E0A6D7112361F08E81805D72D778
S11302708AE070D789816ED7CE0102968CD78AE046
S113028069D79E812FEF290F2E839111D5CF8AE054
S113029040D7C3CF6FD58AD5FECF8FEF80937E0032
S11302A0EFE7F0E090819360908380937D00089560
S11302B08CEC809364008EE380936500EECF089508
S11302C0109280001092810010926F001092B00082
S11302D01092B10010927000109290001092910050
S11302E0109271001092A0001092A100109272005E
S11302F01092200110922101109273000895CF935F
S1130300CFB7F894DDDFD4DFB0D6D5D676D383B3B8
S1130310836083BB40E061E085E00E94AF0B909373
S1130320900880938F0840E065E089E10E94AF0B5C
S113033090939208809391088DB188618DB9E1E022
S1130340F1E0808180618083CFBF7894CF9108955C
S1130350CF93DF93CDB7DEB728970FB6F894DEBFFF
S11303600FBECDBFCCDFA12CB12CC12CD12CCE0122
S113037001967C0104E09C0149E650E06BE072E0E8
S11303808AE491E00E941C0ECE0107967C0103E0F2
S113039020E030E04DE651E063E172E08EE792E068
S11303A00E941C0ECE0105967C0101E020E030E0A5
S11303B047E850E06CE172E084ED90E00E941C0E8E
S11303C0CE0103967C0102E020E030E047E850E0F3
S11303D068E272E087E091E00E941C0E0E94310FF7
S11303E0C1CF9C01FB0164E670E00E94A816611570
S11303F0710521F080E3860F808331964CE9460332
S1130400C001479F900D1124280F391FC9016AE0CC
S113041070E00E94A81680E3860F80838AE0689FBC
S113042020191124205D2183128208951F93CF93F4
S1130430DF9300D01F921F92CDB7DEB7182FCB01E8
S1130440112389F0BE016E5F7F4FCBDF198320E05B
S11304504FEF5FEFBE016F5F7F4F809191089091E6
S113046092080E94DC0B0F900F900F900F900F904A
S1130470DF91CF911F9108958F929F92AF92BF9277
S1130480CF92DF92EF92FF920F931F93CF93DF935C
S11304901F92CDB7DEB789835B014901882301F13F
S11304A0BA01F5018081C2DFB401F5018181BEDFAB
S11304B0B801F5018281BADFB701F5018381B6DFA6
S11304C0B601F5018481B2DF20E04FEF5FEFBE019A
S11304D06F5F7F4F80918F08909190080E94DC0B92
S11304E00F90DF91CF911F910F91FF90EF90DF90CC
S11304F0CF90BF90AF909F908F900895CF93DF934C
S1130500CDB7DEB7A4970FB6F894DEBF0FBECDBF4C
S113051086E0FE013396DF01982F1D929A95E9F744
S11305203696DF01982F1D929A95E9F73696DF01EA
S1130530982F1D929A95E9F73696DF011D928A95B8
S1130540E9F7369685E0DF011D928A95E9F784E2A2
S113055073D399A388A30E94600F9A8389831CA2F2
S11305609AD187E200D2BE01675F7F4FF3D13C018D
S113057086E2F9D1BE01615F7F4FECD11C0185E2B7
S1130580F2D1BE016B5E7F4FE5D12C018BD183E2AA
S1130590EAD1BE016D5F7F4FDDD19BA38AA384E2C4
S11305A04BD34C01BC01CE0180967FD3C8A0D9A007
S11305B05401EAA0FBA082019101AE01455E5F4FA8
S11305C06CA1C301FAD28CA3CE014B967C018401A9
S11305D09201A1016AA17BA1C30190D2CAA0DBA0B0
S11305E0740182019101A301BE01655E7F4F8CA15C
S11305F043DF66E970E0CE0101960E94AE10B0CFF1
S1130600CF93DF93EC010E945A0F809137029091AF
S11306103802892B31F48CE392E090933802809372
S113062037024091390250913A029E01240F351F3E
S11306302B3D85E0380770F44217530770F4C091DE
S11306403702D0913802C40FD51F30933A02209359
S1130650390205C0C0E0D0E002C0C0E0D0E00E9492
S11306602D10CE01DF91CF9108950895FC010396DA
S1130670928381832FEF3FEF348323839683858393
S11306809087878310820895FC011186108608954F
S1130690CF93DF939C01FB01DC011196CD91DC919A
S11306A01297D383C2838C819D81958384838C81AB
S11306B09D81DC0113967C936E9312977D836C83EA
S11306C031872087F90180818F5F8083DF91CF910B
S11306D00895CF93DF93EB01488159814F3F2FEF6A
S11306E0520721F4FC01A781B0850DC0DC011396EB
S11306F01296ED91FC911397208131814217530793
S113070010F0DF01F5CF1296ED91FC911397FB8366
S1130710EA83D583C483BD83AC831396DC93CE93E1
S1130720129799878887FC0120812F5F2083DF91AE
S1130730CF910895CF93DF93FC01A085B185C28149
S1130740D381848195819D838C83C481D581828169
S113075093819B838A831196CD91DC911297CE1756
S1130760DF0731F48C819D8112969C938E931197AF
S1130770118610868C9181508C93DF91CF910895CE
S11307801F920F920FB60F9211240BB60F922F9354
S11307903F934F935F936F937F938F939F93AF9305
S11307A0BF93EF93FF931B9B0DC0FED290E09093F9
S11307B09808809397080E946A0F909394088093F6
S11307C0930856C01B9954C00E946A0F90939E08C8
S11307D080939D0820919308309194088217930781
S11307E04CF480919D0890919E08019790939E08E7
S11307F080939D08D9D290E09093A00880939F089D
S113080020919708309198088217930754F48091A7
S11308109F089091A00886509F4F9093A0088093C2
S11308209F0880919F089091A0082091970830918B
S11308309808821B930B90939A088093990880914F
S11308409D0890919E082091930830919408821BF2
S1130850930B909396088093950820E040E050E035
S113086060E070E080919B0890919C080E949A0C33
S1130870FF91EF91BF91AF919F918F917F916F9174
S11308805F914F913F912F910F900BBE0F900FBE30
S11308900F901F901895A19A81E090E00E94EC10AF
S11308A0A1980895A09A81E090E00E94EC10A0988D
S11308B00895FC01808191812281338128173907B1
S11308C054F4448155814217530784F0481759075B
S11308D074F4CA01089544815581481759073CF0BE
S11308E0CA01241735071CF4C9010895C9010895E4
S11308F09B01285F3F4F281739073CF020513109ED
S11309008217930714F0862F972F08950F931F9340
S1130910CF93DF93EB010091000210E0F801EE0F9A
S1130920FF1FE60FF71F60817181E2DF9C01C801A0
S1130930019663E070E00E94A81680930002880F7D
S1130940991FC80FD91F39832883DF91CF911F9135
S11309500F910895CF93DF93EB01D8DFCE01A9DF88
S1130960DF91CF910895B3D09C0163E070E00E94C1
S1130970A816260F371F293E83E038071CF087EEA0
S113098093E00895822F932F08951F920F920FB62C
S11309900F9211240BB60F922F933F934F935F93B3
S11309A06F937F938F939F93AF93BF93EF93FF9333
S11309B0809178008093A108809179008093A208A7
S11309C020E040E050E060E070E08091A508909164
S11309D0A608B0D7FF91EF91BF91AF919F918F91EE
S11309E07F916F915F914F913F912F910F900BBE2B
S11309F00F900FBE0F901F9018958FE880937A0088
S1130A0010927B0080E480937C0043E060E081E00E
S1130A10A6D69093A6088093A50881E060D790930A
S1130A20A4088093A30820E040E050E060E070E078
S1130A30C3C60895CF93C82F20E04FEF5FEF60E067
S1130A4070E08091A3089091A408AED7ECE7F0E0A1
S1130A5080819C2F9F718076892B8083EBE7F0E067
S1130A602081C0728C2F90E09595879595958795F8
S1130A70922F9076892B8083EAE7F0E0808180646E
S1130A808083CF910895CF93DF9320E04FEF5FEF02
S1130A9060E070E08091A5089091A60885D7C09188
S1130AA0A208C370D0E0DC2FCC278091A108C80F26
S1130AB0D11D20E040E050E060E070E08091A308A8
S1130AC09091A40879D6CE01DF91CF910895CF9368
S1130AD0C82FB0DF8C2FD7DFCF9108959C01285FFA
S1130AE03F4F2617370744F02051310981E0621740
S1130AF073071CF080E0089581E00895EF92FF925F
S1130B00F7018381882341F0749AE2E0F1E0808167
S1130B108061808373984EC08081811103C0848179
S1130B20882339F18181811107C08281811114C028
S1130B30739A81818823D9F1828181113BC0241B5E
S1130B40350B28303105B4F173987498E2E0F1E084
S1130B508081806180832EC0421B530B4830510535
S1130B604CF17398749AE2E0F1E080818F7E808387
S1130B7021C04E31510544F473987498E2E0F1E0D9
S1130B8080818061808316C02831310544F47398D4
S1130B90749AE2E0F1E080818F7E80830BC07398C9
S1130BA07498E2E0F1E080818F7E808303C08281CB
S1130BB08111D2CFFF90EF900895AF92BF92CF9260
S1130BC0DF92EF92FF920F931F93CF93DF93EA018B
S1130BD0B5011C821B821A821982C2971CF01882EA
S1130BE0B12C04C086E48883BB24B3942E31310530
S1130BF01CF4B3948CE489830E3111051CF4B39472
S1130C0082E58A83C6016ADF882319F0B39482E4FB
S1130C108B8387E3E816F1041CF4B39484E58C8396
S1130C208B2DDF91CF911F910F91FF90EF90DF906B
S1130C30CF90BF90AF9008954ADFBC01882777FD1D
S1130C408095982F0E94EC1329E23CE54FE65FEB78
S1130C500E94DB1422E538E646E256E40E9478144A
S1130C6020E030E040E251E40E9454130E94B913A2
S1130C70CB01683E23E0720710F087EE93E00895FD
S1130C80FB012081318150E0B901640F751F6817A1
S1130C9079074CF0241B350B41E0821793070CF0C5
S1130CA040E0842F089581E00895FF920F931F93ED
S1130CB0CF93DF938C01EB0145E0BC01CE01E0DF73
S1130CC0811105C080911908882309F44DC0CE0113
S1130CD04997459728F0109218081092170844C0B5
S1130CE0F0901908F11005C0D0931808C0931708A4
S1130CF038C08DECF89E812D112486958695982F09
S1130D00990F990F890FF81213C045E067E178E055
S1130D10CE01B6DF882339F0109218081092170814
S1130D201092190821C0D0931808C093170819C04D
S1130D3081E28F15B0F41092190845E067E178E07C
S1130D40CE019EDF882329F010921808109217080C
S1130D500BC08091170890911808F8019183808343
S1130D6003C0F394F0921908DF91CF911F910F9172
S1130D70FF9008959093AC088093AB08FC018081A8
S1130D8091810E949F1143E060E081E0E8D4909358
S1130D90A8088093A70843E060E081E0E0D4909342
S1130DA0AA088093A908089586B50895CF93DF9380
S1130DB0C6B5C11122C08091030290910402883803
S1130DC0934151F080910302909104028A5F91094A
S1130DD09093040280930302809101029091020295
S1130DE08838934151F080910102909102028A5F08
S1130DF091099093020280930102D0E08091030252
S1130E00909104028C179D0784F488E893E19093F1
S1130E1004028093030220E040E050E060E070E0D0
S1130E208091A7089091A808C7D48091010290915D
S1130E3002028C179D0784F488E893E190930202E0
S1130E408093010220E040E050E060E070E0809197
S1130E50A9089091AA08B0D4809103029091040249
S1130E608838934179F48091010290910202883884
S1130E70934141F4E091AB08F091AC0880819181F9
S1130E800E949F11DF91CF9108951F920F920FB688
S1130E900F9211240BB60F922F933F934F935F93AE
S1130EA06F937F938F939F93AF93BF93EF93FF932E
S1130EB06091CE008CE399E043D620E040E050E01E
S1130EC060E070E0809122089091230833D58CE390
S1130ED099E04DD6FF91EF91BF91AF919F918F9182
S1130EE07F916F915F914F913F912F910F900BBE26
S1130EF00F900FBE0F901F9018951F920F920FB670
S1130F000F9211240BB60F922F933F934F935F933D
S1130F106F937F938F939F93AF93BF93EF93FF93BD
S1130F206091C6008DEC98E00BD620E040E050E0E4
S1130F3060E070E08091220890912308FBD48DEC4E
S1130F4098E015D6FF91EF91BF91AF919F918F914A
S1130F507F916F915F914F913F912F910F900BBEB5
S1130F600F900FBE0F901F9018951F920F920FB6FF
S1130F700F9211240BB60F922F933F934F935F93CD
S1130F806F937F938F939F93AF93BF93EF93FF934D
S1130F9082E399E0F3D5882331F082E399E0BED56A
S1130FA08093CE000FC0E9ECF0E080818F7D8083D8
S1130FB020E040E050E060E070E080911A089091F9
S1130FC01B08B8D4FF91EF91BF91AF919F918F917E
S1130FD07F916F915F914F913F912F910F900BBE35
S1130FE00F900FBE0F901F9018951F920F920FB67F
S1130FF00F9211240BB60F922F933F934F935F934D
S11310006F937F938F939F93AF93BF93EF93FF93CC
S113101087E399E0B3D5882331F087E399E07ED55F
S11310208093C6000FC0E1ECF0E080818F7D808367
S113103020E040E050E060E070E080911C08909176
S11310401D0878D4FF91EF91BF91AF919F918F913B
S11310507F916F915F914F913F912F910F900BBEB4
S11310600F900FBE0F901F9018951092C50087E641
S11310708093C40088EB8093C10086E08093C20013
S113108040E262EF78E08DEC98E041D540E262ED19
S113109078E087E399E03BD543E060E081E05FD30B
S11310A0909321088093200881E019D490931D081F
S11310B080931C0808951092CD0087E68093CC009D
S11310C088EB8093C90086E08093CA0040E26DEA11
S11310D078E08CE399E01BD540E262E179E082E3B9
S11310E099E015D543E060E081E039D3909323087B
S11310F08093220843E060E081E031D390931F089D
S113110080931E0881E0EBD390931B0880931A0808
S11311100895CF93C82F20E04FEF5FEF60E070E0B9
S113112080911C0890911D083FD487E399E01FD556
S11311308111FBCF6C2F87E399E002D5E1ECF0E05D
S1131140808180628083E0ECF0E080818064808331
S1131150CF910895CF93C82F20E04FEF5FEF60E069
S113116070E080911A0890911B081ED482E399E0E4
S1131170FED48111FBCF6C2F82E399E0E1D4E9EC3A
S1131180F0E0808180628083E8ECF0E0808180641C
S11311908083CF910895CF93DF93EC0188818823D6
S11311A029F02196D7DF89918111FCCFDF91CF916E
S11311B00895CF93DF93EC018881882329F0219649
S11311C0A8DF89918111FCCFDF91CF910895CF934E
S11311D020E04FEF5FEF60E070E080912208909193
S11311E02308E2D38CE399E099D4C82F8CE399E0E7
S11311F0C5D4882351F020E040E050E060E070E086
S11312008091220890912308D7D28C2FCF910895F2
S113121086E1A0DF20E044EF51E060E070E08091DF
S11312201E0890911F08C0D3813021F482E092DF20
S113123081E0089580E0089520E040E050E060E01F
S113124070E080911E0890911F08B6C2089591E045
S1131250853009F090E0892F089591E0863109F0F6
S113126090E0892F089591E0823009F090E0892F71
S1131270089591E0863009F090E0892F089531E1D6
S1131280FC013083319722E220833197A3E3A083CA
S11312903197608331977083319710823197108230
S11312A0319760E8608331971082319710823197CB
S11312B01082319762E06083319763E060833197F5
S11312C064E06083319765E06083319766E0608312
S11312D0319767E06083319768E06083319769E014
S11312E06083319760E1608331973083319732E1D5
S11312F03083319733E13083319734E13083319750
S113130035E13083319736E13083319737E13083EB
S1131310319738E13083319739E13083319730E2C6
S11313203083319731E2308331972083319723E240
S113133020833197408331975083319726E220836D
S1131340319727E22083319728E22083319729E2DD
S11313502083319720E32083319721E320838997E9
S1131360089582E084BD16BC80E387BDEEE6F0E01C
S113137080818260808383E085BDA0918D08B091D7
S11313808E08CD91CDBFDD91DEBFFF91EF91DF914E
S1131390CF91BF91AF919F918F917F916F915F9109
S11313A04F913F912F911F910F91FF90EF90DF90FC
S11313B0CF90BF90AF909F908F907F906F905F90F1
S11313C04F903F902F901F900F900CBE0F900BBE2C
S11313D00F900FBE0F90089581E008950F920FB6FD
S11313E0F8940F920BB60F920CB60F921F92112421
S11313F02F923F924F925F926F927F928F929F9221
S1131400AF92BF92CF92DF92EF92FF920F931F930E
S11314102F933F934F935F936F937F938F939F93F8
S1131420AF93BF93CF93DF93EF93FF93A0918D0876
S1131430B0918E080DB60D920EB60D9222D7A091E2
S11314408D08B0918E08CD91CDBFDD91DEBFFF91A7
S1131450EF91DF91CF91BF91AF919F918F917F9148
S11314606F915F914F913F912F911F910F91FF9039
S1131470EF90DF90CF90BF90AF909F908F907F9030
S11314806F905F904F903F902F901F900F900CBEE5
S11314900F900BBE0F900FBE0F9008950F920FB6D2
S11314A0F8940F920BB60F920CB60F921F92112460
S11314B02F923F924F925F926F927F928F929F9260
S11314C0AF92BF92CF92DF92EF92FF920F931F934E
S11314D02F933F934F935F936F937F938F939F9338
S11314E0AF93BF93CF93DF93EF93FF93A0918D08B6
S11314F0B0918E080DB60D920EB60D92F0D48111F6
S1131500C0D6A0918D08B0918E08CD91CDBFDD914C
S1131510DEBFFF91EF91DF91CF91BF91AF919F918A
S11315208F917F916F915F914F913F912F911F9177
S11315300F91FF90EF90DF90CF90BF90AF909F906E
S11315408F907F906F905F904F903F902F901F905F
S11315500F900CBE0F900BBE0F900FBE0F9008950E
S11315609DDF18951F93CF93DF93EC01142F8C8D7F
S113157081110CC088819981892B09F047C08A8127
S11315809B810E9403131B821A8247C0411118C019
S1131590482F50E08C819D810E94CF162C8D8C8128
S11315A09D81820F911D9D838C832A813B818217AB
S11315B0930770F1888199819D838C8380E02DC08D
S11315C0482F50E08E819F810E94CF162C8D30E0F1
S11315D03195219531098E819F81820F931F9F83BD
S11315E08E83688179818617970730F48A819B817D
S11315F0280F391F3F832E83123061F48A8D88238C
S113160059F08A8D81508A8F80E007C080E005C040
S113161080E003C080E001C080E09A8D9F5F9A8FD4
S1131620DF91CF911F910895FC01CB01448D442398
S1131630A1F050E026813781240F351F378326839C
S1131640628173812617370720F020813181378327
S11316502683668177810C94CF1608950F931F9388
S1131660CF93DF93EC010FB6F8940F928E8D18167A
S1131670A4F48989882389F08E010F5E1F4F03C06B
S11316808989882351F0C801D1D681115AD78E8D0A
S113169081508E8F8E8D18169CF38FEF8E8F0F9046
S11316A00FBE0FB6F8940F928D8D1816A4F488858A
S11316B0882389F08E01085F1F4F03C08885882323
S11316C051F0C801B3D681113CD78D8D81508D8FD7
S11316D08D8D18169CF38FEF8D8F0F900FBEDF91B9
S11316E0CF911F910F910895CF93DF93EC010FB623
S11316F0F8940F92888199812C8D30E07B8D729FB4
S1131700A001739F500D1124FC01E40FF51FFB830E
S1131710EA831A8E9D838C83421B530B840F951F7F
S11317209F838E838FEF8D8F8E8F61110AC0888582
S1131730882379F0CE01089679D6813051F44EDEB3
S113174008C0CE0108960E943603CE0141960E943D
S113175036030F900FBE81E0DF91CF9108950F9370
S11317601F93CF93DF93182F062F8823E9F08FE17F
S113177090E00E940003EC010097C1F0109FC001AB
S1131780112401960E94000399838883892B31F0E8
S11317901B8F0C8F61E0CE01A7DF08C0CE010E9431
S11317A03503C0E0D0E002C0C0E0D0E0CE01DF915C
S11317B0CF911F910F9108959F92AF92BF92CF92B4
S11317C0DF92EF92FF920F931F93CF93DF9300D09A
S11317D01F921F92CDB7DEB78C016B015D834C83E2
S11317E0A22EB12C992493947C0188E0E80EF11C7C
S11317F00FB6F8940F92F801928D838D981718F014
S1131800F2E0AF1215C04A2DB601C801ABDEF801F3
S11318109189992339F0C801419608D6813021F481
S1131820DDDD02C08111DADD0F900FBE81E046C01C
S1131830EC81FD81EF2B21F40F900FBE80E03EC0C0
S1131840B11004C0CE01019639D6B92C0F900FBE49
S113185031D30FB6F8940F92F801858D8F3F09F4B8
S1131860158EF801868D8F3F09F4168E0F900FBEEA
S1131870BE016C5F7F4FCE0101962BD681111AC039
S11318800FB6F8940F92F801928D0F900FBEF801E5
S1131890838D98130BC06C817D81C7019CD5C801D1
S11318A0DDDEDBD38111A4CF99DDA2CFC801D6DE62
S11318B0D4D39ECFC801D2DED0D380E00F900F9056
S11318C00F900F900F90DF91CF911F910F91FF9088
S11318D0EF90DF90CF90BF90AF909F900895CF93FB
S11318E0DF938FE190E00E940003EC010097F1F098
S11318F01B821A82198218821D821C821F821E82F8
S11319001A8E81E08B8F1C8E8FEF8D8F8E8FCE0180
S113191008960E943603CE0141960E94360320E0C9
S113192040E050E060E070E0CE0146DFCE01DF91A0
S1131930CF9108950F931F93CF93DF93EC018A0106
S11319409A8D8B8D981710F0223011F5422FCE010D
S113195009DE882331F00115110519F081E0F80141
S113196080838E8D8F3F79F48989882399F0CE0105
S113197041965CD5882381F00115110579F081E049
S1131980F80180830CC08E8D8F5F8E8F81E007C03D
S113199080E005C081E003C081E001C081E0DF9107
S11319A0CF911F910F9108959F92AF92BF92CF92C2
S11319B0DF92EF92FF920F931F93CF93DF9300D0A8
S11319C01F921F92CDB7DEB78C016B015D834C83F0
S11319D0B22EA12C992493947C0181E1E80EF11C90
S11319E00FB6F8940F92F801828D882369F1E6808E
S11319F0F780B601C80118DEB11017C0F801828D56
S1131A008150828F80819181892B21F43BD6F8010A
S1131A1093838283F8018085882391F0C801089616
S1131A2005D5813069F4DADC0BC0F801F782E6826F
S1131A308189882329F0C8014196F8D48111CEDC2C
S1131A400F900FBE81E052C04C815D81452B21F483
S1131A500F900FBE80E04AC0A11004C0CE010196D1
S1131A602DD5A92C0F900FBE25D20FB6F8940F9246
S1131A70F801858D8F3F09F4158EF801868D8F3F0F
S1131A8009F4168E0F900FBEBE016C5F7F4FCE011E
S1131A9001961FD5811126C00FB6F8940F92F80154
S1131AA0828D0F900FBE811119C0F8018081918140
S1131AB0892B49F40FB6F8940F92F801828193812F
S1131AC044D50F900FBE6C817D81C70184D4C801B9
S1131AD0C5DDC3D2811184CF81DC82CFC801BEDDD4
S1131AE0BCD27ECFC801BADDB8D280E00F900F908F
S1131AF00F900F900F90DF91CF911F910F91FF9056
S1131B00EF90DF90CF90BF90AF909F900895FC012D
S1131B10718360834283148213820895FC0194814B
S1131B20A081B181A90FB11D8C919F5F9483228103
S1131B30921710F0921B948393819150938308958C
S1131B40FC01462F83812281821780F4348190E046
S1131B50830F911D622F70E00E94A816A081B181AD
S1131B60A80FB91F4C9383818F5F83830895FC0171
S1131B7081E022819381291380E0089521E0FC0112
S1131B808381811101C020E0822F0895E0914C08E7
S1131B90F0914D088081811107C08FEF9FEF9093E2
S1131BA00602809305020895E0914C08F0914D08D7
S1131BB00580F681E02D0680F781E02D82819381F6
S1131BC090930602809305020895CF93DF93EC016E
S1131BD0E0918D08F0918E089383828380912B0885
S1131BE090912C08C817D90768F460918D087091FA
S1131BF08E0880914A0890914B086E5F7F4F0E9437
S1131C00690317C060918D0870918E0880914C080B
S1131C1090914D086E5F7F4F0E9469038091050289
S1131C2090910602C817D90720F4D0930602C093F6
S1131C300502DF91CF9108954F925F926F927F9248
S1131C408F929F92AF92BF92CF92DF92EF92FF92C8
S1131C500F931F93CF93DF934C015B012A0139014A
S1131C6083E290E00E940003EC01009709F4E7C0CE
S1131C70C114D10409F0CCC0C2010E940003988FA2
S1131C808F8B892B09F0C6C0CE010E943503D7C0C3
S1131C90CF013191DA013D93AD01DC018C918823B0
S1131CA011F02150A9F718A2102F053008F014E004
S1131CB01E8B19A31AA25E01B2E0AB0EB11CC501C2
S1131CC00E944403CE010C960E944403D987C8871E
S1131CD085E090E0811B91099D878C87DB8BCA8B03
S1131CE0A301B401C601CBDA99838883E114F1041A
S1131CF019F0F701D183C0830FB6F8940F92809145
S1131D002D088F5F80932D0880918D0890918E0807
S1131D10892B09F03FC0D0938E08C0938D08809121
S1131D202D08813009F045C00F2EF0E6EF2EF8E0C3
S1131D30FF2EF02D0F2EFDE8CF2EF8E0DF2EF02D34
S1131D40C7010E943603F9E0EF0EF11CEC14FD0408
S1131D50B9F787E598E00E9436038EE498E00E9484
S1131D60360381E498E00E94360388E398E00E94F9
S1131D7036038EE298E00E94360387E598E090935C
S1131D804D0880934C088EE498E090934B08809320
S1131D904A080FC08091290881110BC0E0918D0879
S1131DA0F0918E088689081720F0D0938E08C0938E
S1131DB08D08809125088F5F809325088E899091E6
S1131DC02A08981710F480932A0890E09C01220FA7
S1131DD0331F220F331F220F331F820F931FB501AE
S1131DE0805A974F0E9448030F900FBE8091290894
S1131DF0882351F0E0918D08F0918E088689801730
S1131E0028F4ECDA81E01CC081E01AC081E018C03B
S1131E10D88ECF8A81E0481A5108CF88D88CC40C58
S1131E20D51CD5018C91898F8C91882309F43BCFE3
S1131E30AE01465E5F4FF501319627E029CF8FEF63
S1131E40DF91CF911F910F91FF90EF90DF90CF9092
S1131E50BF90AF909F908F907F906F905F904F90C6
S1131E600895AF92BF92CF92DF92EF92FF920F93B9
S1131E70A12CB12CC12CD12CE12CF12C00E020E0C0
S1131E8030E045E550E061E372E088E091E1D4DEC2
S1131E90813041F4F8948093290810922C08109210
S1131EA02B085FDA0F91FF90EF90DF90CF90BF90F7
S1131EB0AF900895809124088F5F8093240808953B
S1131EC00FB6F8940F9280912B0890912C080F90E4
S1131ED00FBE089580912B0890912C080895CF92FD
S1131EE0DF92EF92FF920F931F93CF93DF93809132
S1131EF02408811199C080912B0890912C08019697
S1131F0090932C0880932B08E0902B08F0902C08D9
S1131F10E114F104B1F480914C0890914D082091A2
S1131F204A0830914B0830934D0820934C08909305
S1131F304B0880934A08809126088F5F8093260877
S1131F4025DE8091050290910602E816F90608F450
S1131F5054C0D12CCC24C39401C0DC2CE0914C0897
S1131F60F0914D088081811107C08FEF9FEF90930E
S1131F7006028093050242C0E0914C08F0914D089E
S1131F800580F681E02DC681D7812A813B81E21646
S1131F90F30628F430930602209305022FC08E0125
S1131FA00E5F1F4FC8010E949A038C899D89892B5B
S1131FB021F0CE010C960E949A032E8980912A0862
S1131FC0821710F420932A0830E0C901880F991F62
S1131FD0880F991F880F991F820F931FB801805A89
S1131FE0974F0E944803E0918D08F0918E089E89D6
S1131FF08689981708F0B1CFB1CFD12CE0918D0824
S1132000F0918E08868990E0FC01EE0FFF1FEE0F21
S1132010FF1FEE0FFF1F8E0F9F1FFC01E05AF74FAB
S11320208081823040F409C0809128088F5F8093BA
S11320302808D12C02C0DD24D3948091270888235A
S113204011F0DD24D3948D2DDF91CF911F910F9149
S1132050FF90EF90DF90CF900895DF92EF92FF9280
S11320600F931F93CF93DF930FB6F8940F92809141
S113207024088150809324088091240881115FC032
S113208080912D08882309F45CC00F2EF1E4EF2E13
S1132090F8E0FF2EF02DDD24D39430C0E091460803
S11320A0F0914708C681D781CE010C960E949A030D
S11320B08E010E5F1F4FC8010E949A038E89909172
S11320C02A08981710F480932A0890E09C01220FA4
S11320D0331F220F331F220F331F820F931FB801A8
S11320E0805A974F0E944803E0918D08F0918E0822
S11320F09E898689981710F0D0922708F70180816D
S11321008111CCCF80912808882391F080912808F0
S1132110882371F0C1E0E3DE8111C0932708809128
S11321202808815080932808809128088111F3CFD2
S113213080912708813039F451D981E005C080E0CD
S113214003C080E001C080E00F900FBEDF91CF910B
S11321501F910F91FF90EF90DF9008950F931F93BD
S1132160CF93DF938C01EB01A5DE80912B08909136
S11321702C08F80120813181C20FD31F82179307E5
S113218048F4C217D307F8F4D183C0838C179D0792
S113219088F407C0C217D30790F08C179D0778F016
S11321A012C080918D0890918E0802960E949A0325
S11321B0CE010BDD52DF81110AC010D908C0F8012D
S11321C0D183C083EECFF801D183C083F3CFDF91F5
S11321D0CF911F910F910895CF93DF93EC01009756
S11321E099F068DE80912B0890912C08C80FD91FB4
S11321F080918D0890918E0802960E949A03CE01D8
S1132200E4DC2BDF811101C0E9D8DF91CF9108957F
S11322100F2EF0E6EF2EF8E0FF2EF02DC8E3D8E005
S113222026C048DE188119DF112309F10FB6F8948E
S11322300F92E0913D08F0913E0806811781C80194
S113224002960E949A0380912D08815080932D0854
S1132250809137088150809337080F900FBEF801A2
S11322608789908D0E943503C8010E9435038091AF
S113227037088111D6CFF70180818230C0F3AED800
S1132280F6CF80912408882321F081E080932708E9
S113229008951092270880912A0890E0FC01EE0F1F
S11322A0FF1FEE0FFF1FEE0FFF1F8E0F9F1FFC017E
S11322B0E05AF74F8081811117C080912A0881501C
S11322C080932A0880912A0890E0FC01EE0FFF1FFA
S11322D0EE0FFF1FEE0FFF1F8E0F9F1FFC01E05A32
S11322E0F74F8081882349F3E0912A08F0E0CF0179
S11322F0880F991F880F991F880F991FE80FF91FDE
S1132300E05AF74FA181B28112960D90BC91A02D95
S1132310B283A183CF010396A817B90731F41296AB
S11323208D919C911397928381830180F281E02D9A
S11323308681978190938E0880938D0808950F93DA
S11323401F93CF93DF93EC010FB6F8940F9200978D
S113235021F4C0918D08D0918E088E010E5F1F4F1D
S1132360C8010E949A038C899D89892B21F0CE0192
S11323700C960E949A03B8018EE298E00E944803EA
S11323800F900FBE80918D0890918E08C817D907C1
S113239099F480912908882311F020D817C08091DE
S11323A02D0890912E08981305C010928E08109253
S11323B08D080CC066DF0AC080912908882331F09B
S11323C00FB6F8940F92E2DB0F900FBEDF91CF911E
S11323D01F910F910895CF93DF93EB0160918D08C6
S11323E070918E08645F7F4F0E94690380918D080D
S11323F090918E0802960E949A03CF3F8FEFD807E0
S113240059F460918D0870918E086E5F7F4F8EE253
S113241098E00E94480307C080912B0890912C08F3
S11324208C0F9D1FD2DBDF91CF9108950F931F93E3
S1132430CF93DF93DC011596ED91FC911697C6813D
S1132440D7818E01045F1F4FC8010E949A038091B7
S1132450240881111CC00A501109C8010E949A0362
S11324608E8990912A08981710F480932A0890E096
S11324709C01220F331F220F331F220F331F820FA1
S1132480931FB801805A974F0E94480305C0B801B2
S113249081E498E00E944803E0918D08F0918E0851
S11324A09E898689891720F481E08093270801C0DA
S11324B080E0DF91CF911F910F910895209126081C
S11324C0FC01208320912B0830912C083283218336
S11324D008950FB6F8940F9240912B0850912C0850
S11324E0DB012D913C912F3FBFEF3B0711F1E091B0
S11324F02608DC01FC91FE1739F01196ED91FC9150
S113250012974E175F07B8F4DC011196ED91FC9118
S11325101297DA01AE1BBF0BA217B30770F4E41BCA
S1132520F50B2E0F3F1FFB0131832083C7DF80E0B3
S113253005C080E003C081E001C081E00F900FBEC0
S1132540089581E08093270808950F931F93CF93F4
S1132550DF93EC01009709F451C08E89E0918D0856
S1132560F0918E089689891708F048C02C853D851E
S113257033235CF0E0918D08F0918E08968925E074
S113258030E0291B31093D872C8790E09C01220F04
S1132590331F220F331F220F331F820F931F805AC2
S11325A0974F2A853B852817390711F58E010E5F51
S11325B01F4FC8010E949A03E0918D08F0918E0884
S11325C086898E8B90912A08981710F480932A0894
S11325D090E09C01220F331F220F331F220F331F61
S11325E0820F931FB801805A974F0E94480306C078
S11325F0E0918D08F0918E0886898E8BDF91CF91C2
S11326001F910F9108950F931F93CF93DF93EC01C4
S1132610009771F18AA181508AA32E8999A1291763
S113262049F1811129C08E010E5F1F4FC8010E941C
S11326309A0389A18E8B25E030E0281B31093D8760
S11326402C8790912A08981710F480932A0890E018
S11326509C01220F331F220F331F220F331F820FBF
S1132660931FB801805A974F0E94480381E005C028
S113267080E003C080E001C080E0DF91CF911F9132
S11326800F91089580918D0890918E08892B39F0CF
S1132690E0918D08F0918E0882A18F5F82A38091D2
S11326A08D0890918E0808955058BB27AA270ED004
S11326B0E5C0D6D030F0DBD020F031F49F3F11F4E8
S11326C01EF4CBC00EF4E095E7FBC1C0E92FE7D0C0
S11326D080F3BA17620773078407950718F071F43B
S11326E09EF5FFC00EF4E0950B2EBA2FA02D0B0122
S11326F0B90190010C01CA01A0011124FF27591B43
S113270099F0593F50F4503E68F11A16F040A22F48
S1132710232F342F4427585FF3CF469537952795B9
S1132720A795F0405395C9F77EF41F16BA0B620BB8
S1132730730B840BBAF09150A1F0FF0FBB1F661FFF
S1132740771F881FC2F70EC0BA0F621F731F841F42
S113275048F4879577956795B795F7959E3F08F068
S1132760B3CF9395880F08F09927EE0F9795879527
S1132770089504D06894B111B5C0089598D088F034
S11327809F5790F0B92F9927B751A0F0D1F0660F59
S1132790771F881F991F1AF0BA95C9F712C0B13074
S11327A081F09FD0B1E008959CC0672F782F8827CF
S11327B0B85F39F0B93FCCF3869577956795B395B3
S11327C0D9F73EF490958095709561957F4F8F4F22
S11327D09F4F0895E89409C097FB3EF49095809527
S11327E0709561957F4F8F4F9F4F9923A9F0F92FD3
S11327F096E9BB279395F695879577956795B79551
S1132800F111F8CFFAF4BB0F11F460FF1BC06F5F36
S11328107F4F8F4F9F4F16C0882311F096E911C048
S1132820772321F09EE8872F762F05C0662371F069
S113283096E8862F70E060E02AF09A95660F771F7D
S1132840881FDAF7880F9695879597F9089597F971
S11328509F6780E870E060E008959FEF80EC089542
S113286000240A941616170618060906089500246B
S11328700A9412161306140605060895092E0394E5
S1132880000C11F4882352F0BB0F40F4BF2B11F459
S113289060FF04C06F5F7F4F8F4F9F4F089557FDB8
S11328A09058440F551F59F05F3F71F04795880FBA
S11328B097FB991F61F09F3F79F087950895121651
S11328C013061406551FF2CF4695F1DF08C01616FD
S11328D017061806991FF1CF8695710561050894AE
S11328E00895E894BB2766277727CB0197F90895C5
S11328F00BD0C4CFB5DF28F0BADF18F0952309F068
S1132900A6CFABCF1124EECFCADFA0F3959FD1F3AE
S1132910950F50E0551F629FF001729FBB27F00D89
S1132920B11D639FAA27F00DB11DAA1F649F6627DE
S1132930B00DA11D661F829F2227B00DA11D621F2D
S1132940739FB00DA11D621F839FA00D611D221FE7
S1132950749F3327A00D611D231F849F600D211DCB
S1132960822F762F6A2F11249F5750408AF0E1F06E
S113297088234AF0EE0FFF1FBB1F661F771F881FB7
S113298091505040A9F79E3F510570F060CFAACFF7
S11329905F3FECF3983EDCF3869577956795B795A2
S11329A0F795E7959F5FC1F7FE2B880F911D9695CC
S11329B0879597F90895FA01EE0FFF1F30962105C8
S11329C0310599F16115710561F48038BFE39B0706
S11329D049F168949038810561F08038BFEF9B0716
S11329E041F0992342F5FF3FE1053105210511F13D
S11329F0E8940894E795D901AA2329F4AB2FBE2FB4
S1132A00F85FD0F310C0FF5F70F4A695E0F7F739D4
S1132A1050F019F0FF3A38F49F779F930CD00F9041
S1132A2007FC905808953EF018CF60E070E080E80D
S1132A309FE308954FE79F775F934F933F932F93BF
S1132A409ED02F913F914F915F9152DF05C019F4B1
S1132A500EF0FDCE46CF01CF2ADFC8F39638C0F77B
S1132A6007F80F92E8942BE33AEA48EB5FE74EDF6E
S1132A700F920F920F924DB75EB70F92C0D0E4EE53
S1132A80F0E016D04F915F91EF91FF91E595EE1F25
S1132A90FF1F49F0FE57E0684427EE0F441FFA95E4
S1132AA0E1F74195550B32D00F9007FE26C00895EB
S1132AB0DF93CF931F930F93FF92EF92DF927B01EB
S1132AC08C01689405C0DA2EEF011EDFFE01E89444
S1132AD0A5912591359145915591AEF3EF01F6DD20
S1132AE0FE019701A801DA9479F7DF90EF90FF9047
S1132AF00F911F91CF91DF9108959B01AC0160E08C
S1132B0070E080E89FE3AEC0A2CE14C1D0DEE8F34B
S1132B109923D9F3940F511DBBF39150504094F075
S1132B2059F0882332F0660F771F881F9150504068
S1132B30C1F79E3F510544F7880F911D96958795DF
S1132B4097F908955F3FACF0983E9CF0BB278695BB
S1132B5077956795B79508F4B1609395C1F7BB0F66
S1132B6058F711F460FFE8CF6F5F7F4F8F4F9F4F8F
S1132B70E3CFB8CE0EF0DEC070CE689468CE97DE98
S1132B80C8F39923D1F3C6F3DF93CF931F930F9325
S1132B90FF92C92FDD2788232AF02197660F771F1C
S1132BA0881FDAF720E030E040E85FEB9FE38839E4
S1132BB020F0803E30F021968F7777DDECE0F1E075
S1132BC003C073DDE9E3F1E073DF8B01BE01EC01C7
S1132BD0FB2E6F5771097595771F880B990BFCDDD8
S1132BE028E132E741E35FE38FDEAF2D9801AE01C8
S1132BF0FF900F911F91CF91DF9168DD3FCEFA01D5
S1132C00DC01AA0FBB1F9B01AC01BF5728F422278C
S1132C103327442750781FC0B75188F4AB2F0024C2
S1132C20469537952795011CA395D2F3002069F0AA
S1132C30220F331F441FB395DAF30DD035CD613025
S1132C407105A0E88A07B94630F49B01AC016627F8
S1132C50772788279078309621F020833183428328
S1132C60538308950CD00ACE02DE40F0F9DD30F033
S1132C7021F45F3F19F0EBCD511134CEEECD0FDED0
S1132C8098F39923C9F35523B1F3951B550BBB272F
S1132C90AA2762177307840738F09F5F5F4F220FDC
S1132CA0331F441FAA1FA9F333D00E2E3AF0E0E8D5
S1132CB030D091505040E695001CCAF729D0FE2F21
S1132CC027D0660F771F881FBB1F261737074807B3
S1132CD0AB07B0E809F0BB0B802DBF01FF27935869
S1132CE05F4F2AF09E3F510568F0B1CDFBCD5F3FA9
S1132CF0ECF3983EDCF3869577956795B795F79551
S1132D009F5FC9F7880F911D9695879597F9089548
S1132D10E1E0660F771F881FBB1F621773078407E4
S1132D20BA0720F0621B730B840BBA0BEE1F88F7F3
S1132D30E09508959F3F31F0915020F48795779561
S1132D406795B795880F911D9695879597F908957E
S1132D5097FB072E16F4009406D077FD08D00BD00D
S1132D6007FC05D03EF4909581959F4F089570958A
S1132D7061957F4F0895AA1BBB1B51E107C0AA1F91
S1132D80BB1FA617B70710F0A61BB70B881F991F08
S1132D905A95A9F780959095BC01CD010895FB0142
S1132DA0DC0102C001900D9241505040D8F70895C3
S1072DB0F894FFCFC1
S1132DB40388138813FFFF3A002C006D7954696D5E
S1132DC46572006D6178536F6E6172005250495F91
S1132DD452656365697665005250495F53656E6454
S1092DE40049444C4500C7
S9030000FC
