S01400004672656552544F53323536302E7372656379
S113000071C000008FC000008DC000008BC00000D4
S113001089C0000087C0000085C0000083C00000C4
S113002081C0000090C200007DC000007BC00000C1
S113003079C0000077C0000075C0000073C00000E4
S113004071C000006FC000006DC000006BC00000F4
S113005069C00000A1C7000065C0000063C00000C3
S113006061C00000CDC4000039C500005BC00000C1
S113007059C0000023C3000055C0000053C0000055
S113008051C000004FC000004DC000004BC0000034
S11300907FC40000EDC4000045C0000043C0000060
S11300A041C000003FC000003DC000003BC0000054
S11300B039C0000037C0000035C0000033C0000064
S11300C031C000002FC000002DC000002BC0000074
S11300D029C0000027C0000025C0000023C0000084
S11300E021C0000011241FBECFEFD1E2DEBFCDBF7F
S11300F000E00CBF12E0A0E0B2E0E0E3F2E200E0D6
S11301000BBF02C007900D92A439B107D9F729E0BB
S1130110A4E9B2E001C01D92AE38B207E1F7EFD016
S11301200C9416116DCF2E9A88EE93E00E944A0E1D
S113013085B115B888EE93E00E944A0EF4CF2F9A49
S113014084EF91E00E944A0E85B115B884EF91E0E6
S11301500E944A0EF4CFA0D586E092E063C50895CC
S113016090D58DE192E05EC50895CF93DF93CDB72E
S1130170DEB7AE970FB6F894DEBF0FBECDBF88E0F2
S1130180E3E3F2E0DE01179601900D928A95E1F720
S113019087E0EBE3F2E0DE011F9601900D928A9571
S11301A0E1F788E0E2E4F2E0DE01569601900D9278
S11301B08A95E1F786E0EAE4F2E0DE015E960190DA
S11301C00D928A95E1F786E0E0E5F2E0DE0194968F
S11301D001900D928A95E1F785E0E6E5F2E0DE0113
S11301E09A9601900D928A95E1F70E94BE0C9A832B
S11301F0898354D287E258D24AE0BE016D5F7F4FB3
S11302000E94E310CE0107960DD5CE0103960AD5C0
S1130210CE01849607D586E247D24AE0BE016D5FDF
S11302207F4F0E94E310CE010F96FCD4CE010396BB
S1130230F9D4CE018496F6D485E236D24AE0BE01E2
S11302406D5F7F4F0A970E94E310CE014696EAD471
S1130250CE010396E7D4CE018496E4D4FFD14AE0DC
S1130260BE016D5F7F4F0E94E310CE014E96DAD43B
S1130270CE010396D7D4CE018A96D4D468EC70E02C
S1130280CE0101960E940C0EB4CFB0D212D3FECF91
S11302908CEC809364008EE3809365000895109243
S11302A080001092810010926F001092B0001092A2
S11302B0B100109270001092900010929100109270
S11302C071001092A0001092A1001092720010927E
S11302D0200110922101109273000895CF93CFB79B
S11302E0F894DDDFD5DF30D44FD41CD2999A9BD15A
S11302F084B1806C84B9CFBF7894CF910895CF93A3
S1130300DF93CDB7DEB72C970FB6F894DEBF0FBEE0
S1130310CDBFE4DFA12CB12CC12CD12CCE01019690
S11303207C0104E09C0149E650E06BE572E085E461
S113033091E00E942F0BCE0107967C0102E020E0A1
S113034030E04FE451E063E672E085EB90E00E9418
S11303502F0BCE010B967C0101E020E030E049E652
S113036050E06CE672E083E990E00E942F0BCE012E
S113037009967C0120E030E049E650E063E772E052
S11303808FE990E00E942F0BCE0105967C0103E0DB
S113039020E030E047E850E06AE772E08BEA90E062
S11303A00E942F0BCE0103967C0102E020E030E096
S11303B047E850E066E872E080EB90E00E942F0B83
S11303C00E948F0CA6CFCF93DF93EC010E94B80C50
S11303D08091940290919502892B31F489E992E0FD
S11303E090939502809394024091960250919702C3
S11303F09E01240F351F2B3D85E0380770F442170A
S1130400530770F4C0919402D0919502C40FD51F84
S1130410309397022093960205C0C0E0D0E002C05A
S1130420C0E0D0E00E948B0DCE01DF91CF91089502
S11304300895FC010396928381832FEF3FEF348369
S11304402383968385839087878310820895FC0194
S1130450118610860895CF93DF939C01FB01DC0184
S11304601196CD91DC911297D383C2838C819D81A7
S1130470958384838C819D81DC0113967C936E9398
S113048012977D836C8331872087F90180818F5F88
S11304908083DF91CF910895CF93DF93EB0148815F
S11304A059814F3F2FEF520721F4FC01A781B085FA
S11304B00DC0DC0113961296ED91FC9113972081E7
S11304C031814217530710F0DF01F5CF1296ED91F9
S11304D0FC911397FB83EA83D583C483BD83AC83E8
S11304E01396DC93CE93129799878887FC01208119
S11304F02F5F2083DF91CF910895CF93DF93FC0189
S1130500A085B185C281D381848195819D838C83AB
S1130510C481D581828193819B838A831196CD91F5
S1130520DC911297CE17DF0731F48C819D811296EE
S11305309C938E931197118610868C9181508C9385
S1130540DF91CF9108951F920F920FB60F9211244D
S11305500BB60F922F933F934F935F936F937F93B9
S11305608F939F93AF93BF93EF93FF931B9B0DC008
S113057057D190E09093E4088093E3080E94C80C5C
S11305809093E0088093DF083BC01B9939C048D1A1
S113059090E09093EA088093E9082091E308309171
S11305A0E4088217930754F48091E9089091EA08CB
S11305B086509F4F9093EA088093E90831D12091A7
S11305C0E3083091E40890E0821B930B9093E608D3
S11305D08093E5080E94C80C2091DF083091E00860
S11305E0821B930B9093E2088093E10820E040E0A3
S11305F050E060E070E08091E7089091E808AED6A2
S1130600FF91EF91BF91AF919F918F917F916F91E6
S11306105F914F913F912F910F900BBE0F900FBEA2
S11306200F901F901895229A2398E8E6F0E08081B5
S113063081608083EBE6F0E080818860808343E022
S113064060E081E0A6D59093E8088093E7080895D8
S11306502A9A8EE190E00AD12A980895F9DF20E0E1
S11306604FEF5FEF60E070E08091E7089091E80859
S1130670AFD68091E5089091E6082091E108309189
S1130680E2086EE070E00E94B31041E1429FC001B5
S1130690439F900D1124860F971F0895A19A89E115
S11306A090E0C0D0A19808959AD090E09C01220FC8
S11306B0331F220F331F820F931F08951F920F922F
S11306C00FB60F9211240BB60F922F933F934F93B3
S11306D05F936F937F938F939F93AF93BF93EF93A6
S11306E0FF93809179008093EB0820E040E050E094
S11306F060E070E08091EE089091EF082FD6FF91B2
S1130700EF91BF91AF919F918F917F916F915F9185
S11307104F913F912F910F900BBE0F900FBE0F90F2
S11307201F9018958FE880937A0010927B0080E6E2
S113073080937C0043E060E081E02BD59093EF0848
S11307408093EE0881E0E2D59093ED088093EC0865
S113075020E040E050E060E070E045C50895CF93AC
S1130760C82F20E04FEF5FEF60E070E08091EC086D
S11307709091ED082DD6ECE7F0E080819C2F9F71DD
S11307808076892B8083EBE7F0E02081C0728C2F88
S113079090E09595879595958795922F9076892BDE
S11307A08083EAE7F0E0808180648083CF910895BC
S11307B020E04FEF5FEF60E070E08091EE089091F1
S11307C0EF0806D620E040E050E060E070E0809161
S11307D0EC089091ED0807D58091EB080895CF932C
S11307E0C82FBDDF8C2FE4DFCF9108959093F508D7
S11307F08093F408FC01808191810E94FD0E43E006
S113080060E081E0C6D49093F1088093F00843E05F
S113081060E081E0BED49093F3088093F2080895D9
S113082086B5089546B550E09C01992314F42D5FD4
S11308303F4F3595279535952795240F351F3093D0
S1130840030220930202E091F408F091F5088081FC
S113085091810E94440C20E042E050E060E070E0AE
S11308608091F0089091F108B3C5089546B550E021
S11308709C01992314F42D5F3F4F359527953595A9
S11308802795240F351F3093010220930002E09135
S1130890F408F091F50880819181F6D720E042E0D8
S11308A050E060E070E08091F2089091F30890C508
S11308B00895CF93DF93C6B5C11122C0809102027F
S11308C0909103028838934151F0809102029091F3
S11308D003028A5F9109909303028093020280913C
S11308E00002909101028838934151F080910002F6
S11308F0909101028A5F9109909301028093000212
S1130900D0E080910202909103028C179D0784F439
S113091088E893E1909303028093020220E040E090
S113092050E060E070E08091F0089091F1085BD4B1
S113093080910002909101028C179D0784F488E84D
S113094093E1909301028093000220E040E050E0A4
S113095060E070E08091F2089091F30844D48091B3
S11309600202909103028838934179F48091000245
S1130970909101028838934141F4E091F408F09198
S1130980F508808191810E94FD0EDF91CF91089539
S11309901F920F920FB60F9211240BB60F922F9342
S11309A03F934F935F936F937F938F939F93AF93F3
S11309B0BF93EF93FF936091CE0089E899E0D4D57B
S11309C020E040E050E060E070E080917D0990918B
S11309D07E09C4D489E899E0DDD5FF91EF91BF91F8
S11309E0AF919F918F917F916F915F914F913F91C3
S11309F02F910F900BBE0F900FBE0F901F90189564
S1130A001F920F920FB60F9211240BB60F922F93D1
S1130A103F934F935F936F937F938F939F93AF9382
S1130A20BF93EF93FF936091C60086E199E09CD554
S1130A3020E040E050E060E070E080917D0990911A
S1130A407E098CD486E199E0A5D5FF91EF91BF9101
S1130A50AF919F918F917F916F915F914F913F9152
S1130A602F910F900BBE0F900FBE0F901F901895F3
S1130A701F920F920FB60F9211240BB60F922F9361
S1130A803F934F935F936F937F938F939F93AF9312
S1130A90BF93EF93FF938FE799E083D5882331F0D9
S1130AA08FE799E04FD58093CE0005C0E9ECF0E0E4
S1130AB080818F7D8083FF91EF91BF91AF919F9152
S1130AC08F917F916F915F914F913F912F910F90F3
S1130AD00BBE0F900FBE0F901F9018951F920F9290
S1130AE00FB60F9211240BB60F922F933F934F938F
S1130AF05F936F937F938F939F93AF93BF93EF9382
S1130B00FF9384E899E04DD5882331F084E899E097
S1130B1019D58093C60005C0E1ECF0E080818F7D9B
S1130B208083FF91EF91BF91AF919F918F917F91BE
S1130B306F915F914F913F912F910F900BBE0F904A
S1130B400FBE0F901F9018951092C50087E68093F2
S1130B50C40088EB8093C10086E08093C20040E229
S1130B606BE379E086E199E0E6D440E26BE179E079
S1130B7084E899E0E0D443E060E081E00AD3909314
S1130B807C0980937B0908951092CD0087E68093B9
S1130B90CC0088EB8093C90086E08093CA0040E2D1
S1130BA066EF78E089E899E0C6D440E26BE579E045
S1130BB08FE799E0C0D443E060E081E0EAD290930B
S1130BC07E0980937D090895CF93C82F84E899E026
S1130BD0E1D48111FBCF6C2F84E899E0C5D4E1EC1A
S1130BE0F0E0808180628083E0ECF0E080818064CA
S1130BF08083CF910895CF93C82F8FE799E0CAD40B
S1130C008111FBCF6C2F8FE799E0AED4E9ECF0E0D3
S1130C10808180628083E8ECF0E08081806480835E
S1130C20CF910895CF93DF93EC018881882329F035
S1130C302196CADF89918111FCCFDF91CF9108956C
S1130C40CF9320E04FEF5FEF60E070E080917B098D
S1130C5090917C09BDD389E899E074D4C82F89E8C0
S1130C6099E09FD4882351F020E040E050E060E018
S1130C7070E080917B0990917C09B5D28C2FCF9143
S1130C80089580E0B8DFDCDF853521F48FEFB3DF32
S1130C9080E008958FEF0895D3DF81110AC085E5C0
S1130CA0AADFCEDF91E0811101C090E0892F819508
S1130CB008958FEF089531E1FC013083319722E2EA
S1130CC020833197A3E3A0833197608331977083A6
S1130CD03197108231971082319760E860833197A1
S1130CE010823197108231971082319762E06083CD
S1130CF0319763E06083319764E06083319765E006
S1130D006083319766E06083319767E06083319751
S1130D1068E06083319769E06083319760E16083C4
S1130D2031973083319732E13083319733E1308327
S1130D30319734E13083319735E13083319736E1AF
S1130D403083319737E13083319738E130833197FD
S1130D5039E13083319730E23083319731E23083A7
S1130D6031972083319723E2208331974083319751
S1130D705083319726E22083319727E220833197ED
S1130D8028E22083319729E22083319720E32083CE
S1130D90319721E320838997089582E084BD16BCAE
S1130DA080E387BDEEE6F0E080818260808383E0AB
S1130DB085BDA091DD08B091DE08CD91CDBFDD9158
S1130DC0DEBFFF91EF91DF91CF91BF91AF919F91E2
S1130DD08F917F916F915F914F913F912F911F91CF
S1130DE00F91FF90EF90DF90CF90BF90AF909F90C6
S1130DF08F907F906F905F904F903F902F901F90B7
S1130E000F900CBE0F900BBE0F900FBE0F90089565
S1130E1081E008950F920FB6F8940F920BB60F92DB
S1130E200CB60F921F9211242F923F924F925F9211
S1130E306F927F928F929F92AF92BF92CF92DF92E6
S1130E40EF92FF920F931F932F933F934F935F93D0
S1130E506F937F938F939F93AF93BF93CF93DF93BE
S1130E60EF93FF93A091DD08B091DE080DB60D92CB
S1130E700EB60D9264D7A091DD08B091DE08CD9135
S1130E80CDBFDD91DEBFFF91EF91DF91CF91BF9197
S1130E90AF919F918F917F916F915F914F913F910E
S1130EA02F911F910F91FF90EF90DF90CF90BF9003
S1130EB0AF909F908F907F906F905F904F903F90F6
S1130EC02F901F900F900CBE0F900BBE0F900FBE73
S1130ED00F9008950F920FB6F8940F920BB60F92DD
S1130EE00CB60F921F9211242F923F924F925F9251
S1130EF06F927F928F929F92AF92BF92CF92DF9226
S1130F00EF92FF920F931F932F933F934F935F930F
S1130F106F937F938F939F93AF93BF93CF93DF93FD
S1130F20EF93FF93A091DD08B091DE080DB60D920A
S1130F300EB60D9232D5811102D7A091DD08B09181
S1130F40DE08CD91CDBFDD91DEBFFF91EF91DF9142
S1130F50CF91BF91AF919F918F917F916F915F914D
S1130F604F913F912F911F910F91FF90EF90DF9040
S1130F70CF90BF90AF909F908F907F906F905F9035
S1130F804F903F902F901F900F900CBE0F900BBE70
S1130F900F900FBE0F9008959DDF18951F93CF9368
S1130FA0DF93EC01142F8C8D81110CC08881998101
S1130FB0892B09F047C08A819B810E9462101B82A1
S1130FC01A8247C0411118C0482F50E08C819D817E
S1130FD00E94DA102C8D8C819D81820F911D9D833E
S1130FE08C832A813B818217930770F188819981D0
S1130FF09D838C8380E02DC0482F50E08E819F819B
S11310000E94DA102C8D30E03195219531098E81C2
S11310109F81820F931F9F838E83688179818617B6
S1131020970730F48A819B81280F391F3F832E83D1
S1131030123061F48A8D882359F08A8D81508A8F09
S113104080E007C080E005C080E003C080E001C00C
S113105080E09A8D9F5F9A8FDF91CF911F910895C1
S1131060FC01CB01448D4423A1F050E0268137815B
S1131070240F351F37832683628173812617370730
S113108020F02081318137832683668177810C9417
S1131090DA1008950F931F93CF93DF93EC010FB6EB
S11310A0F8940F928E8D1816A4F48989882389F0F8
S11310B08E010F5E1F4F03C08989882351F0C80138
S11310C014D781119DD78E8D81508E8F8E8D1816D9
S11310D09CF38FEF8E8F0F900FBE0FB6F8940F9284
S11310E08D8D1816A4F48885882389F08E01085FF5
S11310F01F4F03C08885882351F0C801F6D681119B
S11311007FD78D8D81508D8F8D8D18169CF38FEF29
S11311108D8F0F900FBEDF91CF911F910F91089586
S1131120CF93DF93EC010FB6F8940F9288819981E5
S11311302C8D30E07B8D729FA001739F500D112484
S1131140FC01E40FF51FFB83EA831A8E9D838C83D5
S1131150421B530B840F951F9F838E838FEF8D8FBC
S11311608E8F61110AC08885882369F0CE010896A4
S1131170BCD6813041F44EDE06C0CE01089659D962
S1131180CE01419656D90F900FBE81E0DF91CF91E9
S113119008950F931F93CF93DF93182F062F88235F
S11311A0D1F08FE190E00FD9EC010097B1F0109FDE
S11311B0C0011124019607D999838883892B31F0C2
S11311C01B8F0C8F61E0CE01ABDF07C0CE0130D99D
S11311D0C0E0D0E002C0C0E0D0E0CE01DF91CF910A
S11311E01F910F9108959F92AF92BF92CF92DF9279
S11311F0EF92FF920F931F93CF93DF9300D01F9230
S11312001F92CDB7DEB78C016B015D834C83A22E98
S1131210B12C992493947C0188E0E80EF11C0FB65C
S1131220F8940F92F801928D838D981718F0F2E0DC
S1131230AF1215C04A2DB601C801B0DEF80191897C
S1131240992339F0C801419650D6813021F4E2DD6A
S113125002C08111DFDD0F900FBE81E046C0EC813A
S1131260FD81EF2B21F40F900FBE80E03EC0B11042
S113127004C0CE01019681D6B92C0F900FBE78D34D
S11312800FB6F8940F92F801858D8F3F09F4158EEF
S1131290F801868D8F3F09F4168E0F900FBEBE01A4
S11312A06C5F7F4FCE01019673D681111AC00FB6C1
S11312B0F8940F92F801928D0F900FBEF801838D70
S11312C098130BC06C817D81C701E4D5C801E2DEAF
S11312D022D48111A4CF9EDDA2CFC801DBDE1BD4B2
S11312E09ECFC801D7DE17D480E00F900F900F90E7
S11312F00F900F90DF91CF911F910F91FF90EF907E
S1131300DF90CF90BF90AF909F900895CF93DF93DD
S11313108FE190E058D8EC010097E1F01B821A822B
S1131320198218821D821C821F821E821A8E81E0FD
S11313308B8F1C8E8FEF8D8F8E8FCE01089679D870
S1131340CE01419676D820E040E050E060E070E0C5
S1131350CE0149DFCE01DF91CF9108950F931F9302
S1131360CF93DF93EC018A019A8D8B8D981710F03F
S1131370223011F5422FCE0111DE882331F0011500
S1131380110519F081E0F80180838E8D8F3F79F487
S11313908989882399F0CE014196A7D5882381F0C5
S11313A00115110579F081E0F80180830CC08E8D60
S11313B08F5F8E8F81E007C080E005C081E003C0AD
S11313C081E001C081E0DF91CF911F910F910895D9
S11313D09F92AF92BF92CF92DF92EF92FF920F93C0
S11313E01F93CF93DF9300D01F921F92CDB7DEB728
S11313F08C016B015D834C83B22EA12C99249394B0
S11314007C0181E1E80EF11C0FB6F8940F92F8010B
S1131410828D882369F1E680F780B601C80120DE59
S1131420B11017C0F801828D8150828F8081918123
S1131430892B21F486D6F80193838283F801808571
S1131440882391F0C801089650D5813069F4E2DC14
S11314500BC0F801F782E6828189882329F0C8014C
S1131460419643D58111D6DC0F900FBE81E052C066
S11314704C815D81452B21F40F900FBE80E04AC062
S1131480A11004C0CE01019678D5A92C0F900FBEEF
S11314906FD20FB6F8940F92F801858D8F3F09F43F
S11314A0158EF801868D8F3F09F4168E0F900FBEAE
S11314B0BE016C5F7F4FCE0101966AD5811126C0B3
S11314C00FB6F8940F92F801828D0F900FBE811120
S11314D019C0F80180819181892B49F40FB6F894E1
S11314E00F92F801828193818FD50F900FBE6C818A
S11314F07D81C701CFD4C801CDDD0DD3811184CF47
S113150089DC82CFC801C6DD06D37ECFC801C2DD27
S113151002D380E00F900F900F900F900F90DF9107
S1131520CF911F910F91FF90EF90DF90CF90BF90DC
S1131530AF909F900895FC0171836083428314826D
S113154013820895FC019481A081B181A90FB11D7A
S11315508C919F5F94832281921710F0921B948345
S11315609381915093830895FC01462F83812281B6
S1131570821778F4348190E0830F911D622F70E01C
S1131580F2D5A081B181A80FB91F4C9383818F5FDD
S113159083830895FC0181E022819381291380E0F3
S11315A0089521E0FC018381811101C020E0822F94
S11315B00895E0919C08F0919D088081811107C0F5
S11315C08FEF9FEF90930502809304020895E091BA
S11315D09C08F0919D080580F681E02D0680F78136
S11315E0E02D8281938190930502809304020895F3
S11315F0CF93DF93EC01E091DD08F091DE08938353
S1131600828380917B0890917C08C817D90768F47D
S11316106091DD087091DE0880919A0890919B0892
S11316206E5F7F4F0E944C0217C06091DD0870917D
S1131630DE0880919C0890919D086E5F7F4F0E9408
S11316404C028091040290910502C817D90720F436
S1131650D0930502C0930402DF91CF9108954F9275
S11316605F926F927F928F929F92AF92BF92CF922E
S1131670DF92EF92FF920F931F93CF93DF934C016E
S11316805B012A01390183E290E00E94E301EC014D
S1131690009709F4E7C0C114D10409F0CCC0C20119
S11316A00E94E301988F8F8B892B09F0C6C0CE016D
S11316B00E941802D7C0CF013191DA013D93AD01E8
S11316C0DC018C91882311F02150A9F718A2102F66
S11316D0053008F014E01E8B19A31AA25E01B2E0D3
S11316E0AB0EB11CC5010E942702CE010C960E94CC
S11316F02702D987C88785E090E0811B91099D87DF
S11317008C87DB8BCA8BA301B401C601D4DA99831D
S11317108883E114F10419F0F701D183C0830FB673
S1131720F8940F9280917D088F5F80937D0880915B
S1131730DD089091DE08892B09F03FC0D093DE08C4
S1131740C093DD0880917D08813009F045C00F2EDB
S1131750F0EBEF2EF8E0FF2EF02D0F2EFDEDCF2E47
S1131760F8E0DF2EF02DC7010E941902F9E0EF0E18
S1131770F11CEC14FD04B9F787EA98E00E94190201
S11317808EE998E00E94190281E998E00E9419020A
S113179088E898E00E9419028EE798E00E941902F6
S11317A087EA98E090939D0880939C088EE998E0DE
S11317B090939B0880939A080FC0809179088111B7
S11317C00BC0E091DD08F091DE088689081720F04F
S11317D0D093DE08C093DD08809175088F5F8093F5
S11317E075088E8990917A08981710F480937A0876
S11317F090E09C01220F331F220F331F220F331F4F
S1131800820F931FB5018055974F0E942B020F90B2
S11318100FBE80917908882351F0E091DD08F091A2
S1131820DE088689801728F4F5DA81E01CC081E09F
S11318301AC081E018C0D88ECF8A81E0481A5108B6
S1131840CF88D88CC40CD51CD5018C91898F8C91F0
S1131850882309F43BCFAE01465E5F4FF501319614
S113186027E029CF8FEFDF91CF911F910F91FF9048
S1131870EF90DF90CF90BF90AF909F908F907F902C
S11318806F905F904F9008950F931F93CF93DF93C2
S1131890EC01009709F43EC08091DD089091DE08C8
S11318A0C817D907B9F10FB6F8940F928A859B85AA
S11318B08E57984069F58C899D8928E08139920773
S11318C039F1892B29F58E010E5F1F4FC8010E9443
S11318D07D028E8990917A08981710F480937A0883
S11318E090E09C01220F331F220F331F220F331F5E
S11318F0820F931FB8018055974F0E942B02E091ED
S1131900DD08F091DE089E898689981708F082DA4E
S11319100F900FBEDF91CF911F910F910895AF9259
S1131920BF92CF92DF92EF92FF920F93A12CB12C32
S1131930C12CD12CE12CF12C00E020E030E045E575
S113194050E06FE872E086E69EE089DE813041F483
S1131950F8948093790810927C0810927B081DDA21
S11319600F91FF90EF90DF90CF90BF90AF900895CC
S1131970809174088F5F8093740808950FB6F8946B
S11319800F9280917B0890917C080F900FBE089570
S113199080917B0890917C080895CF92DF92EF921A
S11319A0FF920F931F93CF93DF938091740881115B
S11319B099C080917B0890917C08019690937C0853
S11319C080937B08E0907B08F0907C08E114F1049C
S11319D0B1F480919C0890919D0820919A083091CF
S11319E09B0830939D0820939C0890939B088093B8
S11319F09A08809176088F5F80937608DADD80916B
S1131A00040290910502E816F90608F454C0D12C9A
S1131A10CC24C39401C0DC2CE0919C08F0919D0877
S1131A208081811107C08FEF9FEF9093050280930F
S1131A30040242C0E0919C08F0919D080580F68163
S1131A40E02DC681D7812A813B81E216F30628F472
S1131A5030930502209304022FC08E010E5F1F4FA6
S1131A60C8010E947D028C899D89892B21F0CE01B9
S1131A700C960E947D022E8980917A08821710F4B8
S1131A8020937A0830E0C901880F991F880F991FA5
S1131A90880F991F820F931FB8018055974F0E949A
S1131AA02B02E091DD08F091DE089E898689981763
S1131AB008F0B1CFB1CFD12CE091DD08F091DE0870
S1131AC0868990E0FC01EE0FFF1FEE0FFF1FEE0F63
S1131AD0FF1F8E0F9F1FFC01E055F74F808182305E
S1131AE040F409C0809178088F5F80937808D12CE6
S1131AF002C0DD24D39480917708882311F0DD247B
S1131B00D3948D2DDF91CF911F910F91FF90EF9082
S1131B10DF90CF900895DF92EF92FF920F931F937F
S1131B20CF93DF930FB6F8940F928091740881508D
S1131B30809374088091740881115FC080917D083E
S1131B40882309F45CC00F2EF1E9EF2EF8E0FF2E94
S1131B50F02DDD24D39430C0E0919608F0919708DD
S1131B60C681D781CE010C960E947D028E010E5F44
S1131B701F4FC8010E947D028E8990917A089817A0
S1131B8010F480937A0890E09C01220F331F220FF7
S1131B90331F220F331F820F931FB8018055974FB5
S1131BA00E942B02E091DD08F091DE089E8986896F
S1131BB0981710F0D0927708F70180818111CCCF6B
S1131BC080917808882391F080917808882371F0B7
S1131BD0C1E0E3DE8111C0937708809178088150D9
S1131BE080937808809178088111F3CF80917708E9
S1131BF0813039F40FD981E005C080E003C080E072
S1131C0001C080E00F900FBEDF91CF911F910F9123
S1131C10FF90EF90DF9008950F931F93CF93DF937E
S1131C208C01EB01A5DE80917B0890917C08F80182
S1131C3020813181C20FD31F8217930748F4C21742
S1131C40D307F8F4D183C0838C179D0788F407C0A9
S1131C50C217D30790F08C179D0778F012C08091BB
S1131C60DD089091DE0802960E947D02CE01C0DC60
S1131C7052DF81110AC0CED808C0F801D183C083D5
S1131C80EECFF801D183C083F3CFDF91CF911F91C1
S1131C900F910895CF93DF93EC01009799F068DEDC
S1131CA080917B0890917C08C80FD91F8091DD0832
S1131CB09091DE0802960E947D02CE0199DC2BDF12
S1131CC0811101C0A7D8DF91CF9108950F2EF0EBB9
S1131CD0EF2EF8E0FF2EF02DC8E8D8E026C048DE4D
S1131CE0188119DF112309F10FB6F8940F92E091CE
S1131CF08D08F0918E0806811781C80102960E9412
S1131D007D0280917D08815080937D0880918708B1
S1131D108150809387080F900FBEF8018789908DBA
S1131D200E941802C8010E9418028091870881113C
S1131D30D6CFF70180818230C0F36CD8F6CF809182
S1131D407408882321F081E0809377080895109225
S1131D50770880917A0890E0FC01EE0FFF1FEE0FE8
S1131D60FF1FEE0FFF1F8E0F9F1FFC01E055F74F63
S1131D708081811117C080917A08815080937A08FC
S1131D8080917A0890E0FC01EE0FFF1FEE0FFF1F19
S1131D90EE0FFF1F8E0F9F1FFC01E055F74F808150
S1131DA0882349F3E0917A08F0E0CF01880F991F66
S1131DB0880F991F880F991FE80FF91FE055F74FF7
S1131DC0A181B28112960D90BC91A02DB283A18302
S1131DD0CF010396A817B90731F412968D919C91FF
S1131DE01397928381830180F281E02D868197810C
S1131DF09093DE088093DD0808950F931F93CF938B
S1131E00DF93EC010FB6F8940F92009721F4C09180
S1131E10DD08D091DE088E010E5F1F4FC8010E94BD
S1131E207D028C899D89892B21F0CE010C960E941C
S1131E307D02B8018EE798E00E942B020F900FBE3E
S1131E408091DD089091DE08C817D907A1F480912C
S1131E507908882319F00E940A0717C080917D0829
S1131E6090917E08981305C01092DE081092DD0848
S1131E700CC065DF0AC080917908882331F00FB661
S1131E80F8940F9296DB0F900FBEDF91CF911F91C4
S1131E900F910895CF93DF93EB016091DD0870916A
S1131EA0DE08645F7F4F0E944C028091DD089091B0
S1131EB0DE0802960E947D02CF3F8FEFD80759F4C7
S1131EC06091DD087091DE086E5F7F4F8EE798E0C9
S1131ED00E942B0207C080917B0890917C088C0F94
S1131EE09D1F86DBDF91CF9108950F931F93CF93AE
S1131EF0DF93DC011596ED91FC911697C681D7818D
S1131F008E01045F1F4FC8010E947D0280917408F6
S1131F1081111CC00A501109C8010E947D028E89DA
S1131F2090917A08981710F480937A0890E09C01B5
S1131F30220F331F220F331F220F331F820F931FD1
S1131F40B8018055974F0E942B0205C0B80181E962
S1131F5098E00E942B02E091DD08F091DE089E8952
S1131F608689891720F481E08093770801C080E096
S1131F70DF91CF911F910F91089520917608FC0174
S1131F80208320917B0830917C083283218308953B
S1131F900FB6F8940F9240917B0850917C08DB01B6
S1131FA02D913C912F3FBFEF3B0711F1E091760853
S1131FB0DC01FC91FE1739F01196ED91FC9112971A
S1131FC04E175F07B8F4DC011196ED91FC9112975E
S1131FD0DA01AE1BBF0BA217B30770F4E41BF50BB9
S1131FE02E0F3F1FFB0131832083C7DF80E005C034
S1131FF080E003C081E001C081E00F900FBE08952E
S113200081E08093770808950F931F93CF93DF9314
S1132010EC01009709F451C08E89E091DD08F0913C
S1132020DE089689891708F048C02C853D8533233E
S11320305CF0E091DD08F091DE08968925E030E05F
S1132040291B31093D872C8790E09C01220F331F07
S1132050220F331F220F331F820F931F8055974F78
S11320602A853B852817390711F58E010E5F1F4F0E
S1132070C8010E947D02E091DD08F091DE088689A6
S11320808E8B90917A08981710F480937A0890E0D8
S11320909C01220F331F220F331F220F331F820F85
S11320A0931FB8018055974F0E942B0206C0E09100
S11320B0DD08F091DE0886898E8BDF91CF911F9128
S11320C00F9108950F931F93CF93DF93EC01009723
S11320D071F18AA181508AA32E8999A1291749F106
S11320E0811129C08E010E5F1F4FC8010E947D021D
S11320F089A18E8B25E030E0281B31093D872C8790
S113210090917A08981710F480937A0890E09C01D3
S1132110220F331F220F331F220F331F820F931FEF
S1132120B8018055974F0E942B0281E005C080E0E2
S113213003C080E001C080E0DF91CF911F910F9137
S113214008958091DD089091DE08892B39F0E091A3
S1132150DD08F091DE0882A18F5F82A38091DD0803
S11321609091DE08089597FB072E16F4009406D08C
S113217077FD08D00BD007FC05D03EF490958195EF
S11321809F4F0895709561957F4F0895AA1BBB1BBF
S113219051E107C0AA1FBB1FA617B70710F0A61B63
S11321A0B70B881F991F5A95A9F780959095BC0184
S11321B0CD010895FB01DC0102C001900D92415054
S11321C05040D8F70895BB274A3031F4992322F4BC
S11321D0BDE2909581959F4F01C0BB27FB01552718
S11321E0AA27880F991FAA1FA41710F0A41B839570
S11321F05051B9F7A05DAA3308F0A95DA1930097E7
S113220079F7B111B1931192CB0100C0DC01FC014B
S1132210672F71917723E1F7329704C07C916D9316
S113222070836291AE17BF07C8F30895F894FFCF87
S113223088138813FFFF0A0A5250492048616E64CC
S11322407368616B6520446F6E650A0A000A0A4D63
S1132250792048616E647368616B6520446F6E65B4
S11322600A0A0046726F6E74203A004C6566742048
S11322703A005269676874203A0042746D203A004B
S113228020636D2C200020636D0A006D7954696D04
S11322906572006D6178536F6E6172005461736B87
S11322A02031005461736B2032005250495F5265F3
S11322B06365697665005250495F53656E640049F1
S10722C0444C450041
S9030000FC
