:1000000071C000008FC000008DC000008BC00000D8
:1000100089C0000087C0000085C0000083C00000C8
:1000200081C000009DC200007DC000007BC00000B8
:1000300079C0000077C0000075C0000073C00000E8
:1000400071C000006FC000006DC000006BC00000F8
:1000500069C00000BDC7000065C0000063C00000AB
:1000600061C00000F4C4000060C500005BC0000077
:1000700059C000004AC3000055C0000053C0000032
:1000800051C000004FC000004DC000004BC0000038
:10009000A6C4000014C5000045C0000043C0000015
:1000A00041C000003FC000003DC000003BC0000058
:1000B00039C0000037C0000035C0000033C0000068
:1000C00031C000002FC000002DC000002BC0000078
:1000D00029C0000027C0000025C0000023C0000088
:1000E00021C0000011241FBECFEFD1E2DEBFCDBF83
:1000F00000E00CBF12E0A0E0B2E0E8E6F2E200E0CF
:100100000BBF02C007900D92A635B107D9F729E0C1
:10011000A6E5B2E001C01D92A635B207E1F709D10C
:100120000C9432116DCFD4D586E092E0A2D5FBCFEE
:10013000CF93DF9300D000D0CDB7DEB720E04FEFF4
:100140005FEFBE016A5F7F4F8091A1089091A20886
:100150000E94040A8E819FEF980F9E838823E9F006
:1001600020E04FEF5FEFBE016F5F7F4F8091A308EC
:100170009091A4080E94040A89814DD58DE192E0F6
:1001800078D5CE01029675D580E292E072D58E8147
:100190009FEF980F9E838111E3CF8AE03CD584EFD7
:1001A00091E00E94660ECACF2E9A88EE93E00E94DC
:1001B000660E85B115B888EE93E00E94660EF4CF06
:1001C0003CD39ED3FECF1F93CF93DF9300D01F92DB
:1001D0001F92CDB7DEB7182FCB01112399F04AE05B
:1001E000BE016E5F7F4F0E94FF10198320E04FEF2A
:1001F0005FEFBE016F5F7F4F8091A3089091A408CD
:100200000E940F090F900F900F900F900F90DF91A9
:10021000CF911F910895CF93DF9300D0CDB7DEB774
:100220001B820E94DA0C9A8389830F2EF8E78F2EA7
:10023000F02D0F2EF3E09F2EF02D57D287E25BD2E8
:100240005C0186E258D26C0185E255D20A977C01A6
:100250002CD28C01083E83E0180714F0082D192DCC
:100260008B818C5F8B8320E04FEF5FEFBE016D5F72
:100270007F4F8091A1089091A208D1D7B50186E463
:10028000A2DFB6018CE49FDFB70182E59CDFB801F5
:1002900082E499DF1B8266E970E0CE0101960E943C
:1002A000280ECBCF8CEC809364008EE380936500A6
:1002B0000895109280001092810010926F001092A9
:1002C000B0001092B1001092700010929000109245
:1002D0009100109271001092A0001092A100109253
:1002E0007200109220011092210110927300089563
:1002F000CF93CFB7F894DDDFD5DF4DD46CD439D2AE
:10030000999AB8D140E061E085E05FD79093A20868
:100310008093A10840E065E084E157D79093A4085A
:100320008093A30884B1806C84B9CFBF7894CF91B7
:100330000895CF93DF93CDB7DEB72A970FB6F89421
:10034000DEBF0FBECDBFD4DFA12CB12CC12CD12C70
:10035000CE0101967C0101E020E030E049E650E06A
:1003600063E272E084ED90E00E944B0BCE010396B5
:100370007C0104E09C0149E650E06AE272E080EE14
:1003800090E00E944B0BCE0109967C0102E020E038
:1003900030E04FE451E062E372E08BE091E00E94D4
:1003A0004B0BCE0107967C0103E020E030E047E8EC
:1003B00050E06BE372E083E990E00E944B0BCE01CA
:1003C00005967C0101E020E030E047E850E067E47A
:1003D00072E088E990E00E944B0B0E94AB0CB3CF17
:1003E000CF93DF93EC010E94D40C80915602909140
:1003F0005702892B31F48BE592E09093570280935A
:10040000560240915802509159029E01240F351F07
:100410002B3D85E0380770F44217530770F4C09104
:100420005602D0915702C40FD51F30935902209322
:10043000580205C0C0E0D0E002C0C0E0D0E00E9499
:10044000A70DCE01DF91CF9108950895FC01039689
:10045000928381832FEF3FEF3483238396838583B9
:100460009087878310820895FC0111861086089575
:10047000CF93DF939C01FB01DC011196CD91DC91C0
:100480001297D383C2838C819D81958384838C81D1
:100490009D81DC0113967C936E9312977D836C8310
:1004A00031872087F90180818F5F8083DF91CF9131
:1004B0000895CF93DF93EB01488159814F3F2FEF90
:1004C000520721F4FC01A781B0850DC0DC01139611
:1004D0001296ED91FC9113972081318142175307B9
:1004E00010F0DF01F5CF1296ED91FC911397FB838D
:1004F000EA83D583C483BD83AC831396DC93CE9308
:10050000129799878887FC0120812F5F2083DF91D4
:10051000CF910895CF93DF93FC01A085B185C2816F
:10052000D381848195819D838C83C481D58182818F
:1005300093819B838A831196CD91DC911297CE177C
:10054000DF0731F48C819D8112969C938E931197D5
:10055000118610868C9181508C93DF91CF910895F4
:100560001F920F920FB60F9211240BB60F922F937A
:100570003F934F935F936F937F938F939F93AF932B
:10058000BF93EF93FF931B9B0DC071D190E09093AD
:10059000AA088093A9080E94E40C9093A60880936F
:1005A000A50855C01B9953C00E94E40C9093B00855
:1005B0008093AF082091A5083091A6088217930771
:1005C0004CF48091AF089091B00801979093B008D7
:1005D0008093AF084CD190E09093B2088093B1081B
:1005E0002091A9083091AA088217930754F48091AA
:1005F000B1089091B20886509F4F9093B2088093B3
:10060000B1088091B1089091B2082091A908309169
:10061000AA08821B930B9093AC088093AB0880913F
:10062000AF089091B0082091A5083091A608821BD0
:10063000930B9093A8088093A70820E040E050E037
:1006400060E070E08091AD089091AE08A3D6FF9174
:10065000EF91BF91AF919F918F917F916F915F913A
:100660004F913F912F910F900BBE0F900FBE0F90A7
:100670001F901895229A2398E8E6F0E08081816027
:100680008083EBE6F0E080818860808343E060E077
:1006900081E09BD59093AE088093AD0808952A9A87
:1006A0008EE190E00AD12A980895F9DF20E04FEF1B
:1006B0005FEF60E070E08091AD089091AE08A4D645
:1006C0008091AB089091AC082091A7083091A808C0
:1006D0006EE070E00E94CF1041E1429FC001439F55
:1006E000900D1124860F971F0895A19A89E190E03B
:1006F000C0D0A19808959AD090E09C01220F331F9A
:10070000220F331F820F931F08951F920F920FB66F
:100710000F9211240BB60F922F933F934F935F9339
:100720006F937F938F939F93AF93BF93EF93FF93B9
:10073000809179008093B30820E040E050E060E0D1
:1007400070E08091B6089091B70824D6FF91EF91A0
:10075000BF91AF919F918F917F916F915F914F91D9
:100760003F912F910F900BBE0F900FBE0F901F90D7
:1007700018958FE880937A0010927B0080E6809332
:100780007C0043E060E081E020D59093B70880933F
:10079000B60881E0D7D59093B5088093B40820E0DF
:1007A00040E050E060E070E03AC50895CF93C82F74
:1007B00020E04FEF5FEF60E070E08091B40890912F
:1007C000B50822D6ECE7F0E080819C2F9F718076FF
:1007D000892B8083EBE7F0E02081C0728C2F90E0C2
:1007E0009595879595958795922F9076892B8083FF
:1007F000EAE7F0E0808180648083CF91089520E073
:100800004FEF5FEF60E070E08091B6089091B7081D
:10081000FBD520E040E050E060E070E08091B4085B
:100820009091B508FCD48091B3080895CF93C82F58
:10083000BDDF8C2FE4DFCF9108959093BD088093A6
:10084000BC08FC01808191810E94190F43E060E0A7
:1008500081E0BBD49093B9088093B80843E060E08E
:1008600081E0B3D49093BB088093BA08089586B50D
:10087000089546B550E09C01992314F42D5F3F4F35
:100880003595279535952795240F351F309303020D
:1008900020930202E091BC08F091BD088081918113
:1008A0000E94600C20E042E050E060E070E0809147
:1008B000B8089091B908A8C5089546B550E09C01C4
:1008C000992314F42D5F3F4F35952795359527953E
:1008D000240F351F3093010220930002E091BC08E1
:1008E000F091BD0880819181EBD720E042E050E09B
:1008F00060E070E08091BA089091BB0885C50895CA
:10090000CF93DF93C6B5C11122C0809102029091AE
:1009100003028838934151F08091020290910302C2
:100920008A5F9109909303028093020280910002F2
:10093000909101028838934151F08091000290918A
:1009400001028A5F91099093010280930002D0E036
:1009500080910202909103028C179D0784F488E82D
:1009600093E1909303028093020220E040E050E084
:1009700060E070E08091B8089091B90850D48091FF
:100980000002909101028C179D0784F488E893E19E
:10099000909301028093000220E040E050E060E08C
:1009A00070E08091BA089091BB0839D4809102021E
:1009B000909103028838934179F4809100029091DC
:1009C00001028838934141F4E091BC08F091BD08E0
:1009D000808191810E94190FDF91CF9108951F921C
:1009E0000F920FB60F9211240BB60F922F933F93D5
:1009F0004F935F936F937F938F939F93AF93BF9327
:100A0000EF93FF936091CE0081E599E0C9D520E096
:100A100040E050E060E070E0809145099091460927
:100A2000B9D481E599E0D2D5FF91EF91BF91AF9113
:100A30009F918F917F916F915F914F913F912F91F6
:100A40000F900BBE0F900FBE0F901F9018951F9226
:100A50000F920FB60F9211240BB60F922F933F9364
:100A60004F935F936F937F938F939F93AF93BF93B6
:100A7000EF93FF936091C6008EED98E091D520E052
:100A800040E050E060E070E08091450990914609B7
:100A900081D48EED98E09AD5FF91EF91BF91AF91FF
:100AA0009F918F917F916F915F914F913F912F9186
:100AB0000F900BBE0F900FBE0F901F9018951F92B6
:100AC0000F920FB60F9211240BB60F922F933F93F4
:100AD0004F935F936F937F938F939F93AF93BF9346
:100AE000EF93FF9387E499E078D5882331F087E48A
:100AF00099E044D58093CE0005C0E9ECF0E0808118
:100B00008F7D8083FF91EF91BF91AF919F918F91E6
:100B10007F916F915F914F913F912F910F900BBEFD
:100B20000F900FBE0F901F9018951F920F920FB647
:100B30000F9211240BB60F922F933F934F935F9315
:100B40006F937F938F939F93AF93BF93EF93FF9395
:100B50008CE499E042D5882331F08CE499E00ED5FD
:100B60008093C60005C0E1ECF0E080818F7D80833A
:100B7000FF91EF91BF91AF919F918F917F916F9175
:100B80005F914F913F912F910F900BBE0F900FBE31
:100B90000F901F9018951092C50087E68093C400AF
:100BA00088EB8093C10086E08093C20040E263E05E
:100BB00079E08EED98E0DBD440E263EE78E08CE4FF
:100BC00099E0D5D443E060E081E0FFD290934409FE
:100BD0008093430908951092CD0087E68093CC005E
:100BE00088EB8093C90086E08093CA0040E26EEBF8
:100BF00078E081E599E0BBD440E263E279E087E404
:100C000099E0B5D443E060E081E0DFD290934609FB
:100C1000809345090895CF93C82F8CE499E0D6D4EA
:100C20008111FBCF6C2F8CE499E0BAD4E1ECF0E0B9
:100C3000808180628083E0ECF0E08081806480834A
:100C4000CF910895CF93C82F87E499E0BFD4811145
:100C5000FBCF6C2F87E499E0A3D4E9ECF0E080812E
:100C600080628083E8ECF0E0808180648083CF91B3
:100C70000895CF93DF93EC018881882329F0219692
:100C8000CADF89918111FCCFDF91CF910895CF9375
:100C900020E04FEF5FEF60E070E0809143099091BA
:100CA0004409B2D381E599E069D4C82F81E599E080
:100CB00094D4882351F020E040E050E060E070E000
:100CC0008091430990914409AAD28C2FCF91089525
:100CD000DEDF81110AC085E5B5DFD9DF91E0811142
:100CE00001C090E0892F819508958FEF089531E13B
:100CF000FC013083319722E220833197A3E3A08364
:100D000031976083319770833197108231971082C9
:100D1000319760E860833197108231971082319764
:100D20001082319762E06083319763E0608331978E
:100D300064E06083319765E06083319766E06083AB
:100D4000319767E06083319768E06083319769E0AD
:100D50006083319760E1608331973083319732E16E
:100D60003083319733E13083319734E130833197E9
:100D700035E13083319736E13083319737E1308385
:100D8000319738E13083319739E13083319730E260
:100D90003083319731E2308331972083319723E2DA
:100DA00020833197408331975083319726E2208307
:100DB000319727E22083319728E22083319729E277
:100DC0002083319720E32083319721E32083899783
:100DD000089582E084BD16BC80E387BDEEE6F0E0B6
:100DE00080818260808383E085BDA0919F08B0915F
:100DF000A008CD91CDBFDD91DEBFFF91EF91DF91D6
:100E0000CF91BF91AF919F918F917F916F915F91A2
:100E10004F913F912F911F910F91FF90EF90DF9095
:100E2000CF90BF90AF909F908F907F906F905F908A
:100E30004F903F902F901F900F900CBE0F900BBEC5
:100E40000F900FBE0F90089581E008950F920FB696
:100E5000F8940F920BB60F920CB60F921F921124BA
:100E60002F923F924F925F926F927F928F929F92BA
:100E7000AF92BF92CF92DF92EF92FF920F931F93A8
:100E80002F933F934F935F936F937F938F939F9392
:100E9000AF93BF93CF93DF93EF93FF93A0919F08FE
:100EA000B091A0080DB60D920EB60D9264D7A09128
:100EB0009F08B091A008CD91CDBFDD91DEBFFF911D
:100EC000EF91DF91CF91BF91AF919F918F917F91E2
:100ED0006F915F914F913F912F911F910F91FF90D3
:100EE000EF90DF90CF90BF90AF909F908F907F90CA
:100EF0006F905F904F903F902F901F900F900CBE7F
:100F00000F900BBE0F900FBE0F9008950F920FB66B
:100F1000F8940F920BB60F920CB60F921F921124F9
:100F20002F923F924F925F926F927F928F929F92F9
:100F3000AF92BF92CF92DF92EF92FF920F931F93E7
:100F40002F933F934F935F936F937F938F939F93D1
:100F5000AF93BF93CF93DF93EF93FF93A0919F083D
:100F6000B091A0080DB60D920EB60D9232D581113A
:100F700002D7A0919F08B091A008CD91CDBFDD917F
:100F8000DEBFFF91EF91DF91CF91BF91AF919F9124
:100F90008F917F916F915F914F913F912F911F9111
:100FA0000F91FF90EF90DF90CF90BF90AF909F9008
:100FB0008F907F906F905F904F903F902F901F90F9
:100FC0000F900CBE0F900BBE0F900FBE0F900895A8
:100FD0009DDF18951F93CF93DF93EC01142F8C8D19
:100FE00081110CC088819981892B09F047C08A81C1
:100FF0009B810E947E101B821A8247C0411118C03B
:10100000482F50E08C819D810E94F6102C8D8C81A0
:101010009D81820F911D9D838C832A813B81821744
:10102000930770F1888199819D838C8380E02DC026
:10103000482F50E08E819F810E94F6102C8D30E069
:101040003195219531098E819F81820F931F9F8356
:101050008E83688179818617970730F48A819B8116
:10106000280F391F3F832E83123061F48A8D882325
:1010700059F08A8D81508A8F80E007C080E005C0DA
:1010800080E003C080E001C080E09A8D9F5F9A8F6E
:10109000DF91CF911F910895FC01CB01448D442332
:1010A000A1F050E026813781240F351F3783268336
:1010B000628173812617370720F0208131813783C1
:1010C0002683668177810C94F61008950F931F9301
:1010D000CF93DF93EC010FB6F8940F928E8D181614
:1010E000A4F48989882389F08E010F5E1F4F03C005
:1010F0008989882351F0C80114D781119DD78E8D1D
:1011000081508E8F8E8D18169CF38FEF8E8F0F90DF
:101110000FBE0FB6F8940F928D8D1816A4F4888523
:10112000882389F08E01085F1F4F03C088858823BC
:1011300051F0C801F6D681117FD78D8D81508D8FEA
:101140008D8D18169CF38FEF8D8F0F900FBEDF9152
:10115000CF911F910F910895CF93DF93EC010FB6BC
:10116000F8940F92888199812C8D30E07B8D729F4D
:10117000A001739F500D1124FC01E40FF51FFB83A8
:10118000EA831A8E9D838C83421B530B840F951F19
:101190009F838E838FEF8D8F8E8F61110AC088851C
:1011A000882369F0CE010896BCD6813041F44EDE2A
:1011B00006C0CE0108964AD9CE01419647D90F9074
:1011C0000FBE81E0DF91CF9108950F931F93CF93CE
:1011D000DF93182F062F8823D1F08FE190E000D9FC
:1011E000EC010097B1F0109FC00111240196F8D8CE
:1011F00099838883892B31F01B8F0C8F61E0CE019E
:10120000ABDF07C0CE0121D9C0E0D0E002C0C0E012
:10121000D0E0CE01DF91CF911F910F9108959F9261
:10122000AF92BF92CF92DF92EF92FF920F931F93F4
:10123000CF93DF9300D01F921F92CDB7DEB78C0102
:101240006B015D834C83A22EB12C992493947C0175
:1012500088E0E80EF11C0FB6F8940F92F801928D19
:10126000838D981718F0F2E0AF1215C04A2DB60121
:10127000C801B0DEF8019189992339F0C80141967F
:1012800050D6813021F4E2DD02C08111DFDD0F9004
:101290000FBE81E046C0EC81FD81EF2B21F40F9061
:1012A0000FBE80E03EC0B11004C0CE01019681D6D1
:1012B000B92C0F900FBE78D30FB6F8940F92F801A7
:1012C000858D8F3F09F4158EF801868D8F3F09F4C7
:1012D000168E0F900FBEBE016C5F7F4FCE01019640
:1012E00073D681111AC00FB6F8940F92F801928D3F
:1012F0000F900FBEF801838D98130BC06C817D8118
:10130000C701E4D5C801E2DE22D48111A4CF9EDD5D
:10131000A2CFC801DBDE1BD49ECFC801D7DE17D415
:1013200080E00F900F900F900F900F90DF91CF9172
:101330001F910F91FF90EF90DF90CF90BF90AF90F3
:101340009F900895CF93DF938FE190E049D8EC010F
:101350000097E1F01B821A82198218821D821C827A
:101360001F821E821A8E81E08B8F1C8E8FEF8D8FD5
:101370008E8FCE0108966AD8CE01419667D820E0BC
:1013800040E050E060E070E0CE0149DFCE01DF9147
:10139000CF9108950F931F93CF93DF93EC018A01B0
:1013A0009A8D8B8D981710F0223011F5422FCE01B7
:1013B00011DE882331F00115110519F081E0F801E3
:1013C00080838E8D8F3F79F48989882399F0CE01AF
:1013D0004196A7D5882381F00115110579F081E0A8
:1013E000F80180830CC08E8D8F5F8E8F81E007C0E7
:1013F00080E005C081E003C081E001C081E0DF91B1
:10140000CF911F910F9108959F92AF92BF92CF926B
:10141000DF92EF92FF920F931F93CF93DF9300D051
:101420001F921F92CDB7DEB78C016B015D834C8399
:10143000B22EA12C992493947C0181E1E80EF11C39
:101440000FB6F8940F92F801828D882369F1E68037
:10145000F780B601C80120DEB11017C0F801828DF7
:101460008150828F80819181892B21F486D6F80169
:1014700093838283F8018085882391F0C8010896C0
:1014800050D5813069F4E2DC0BC0F801F782E682C6
:101490008189882329F0C801419643D58111D6DC82
:1014A0000F900FBE81E052C04C815D81452B21F42D
:1014B0000F900FBE80E04AC0A11004C0CE0101967B
:1014C00078D5A92C0F900FBE6FD20FB6F8940F925B
:1014D000F801858D8F3F09F4158EF801868D8F3FB9
:1014E00009F4168E0F900FBEBE016C5F7F4FCE01C8
:1014F00001966AD5811126C00FB6F8940F92F801B3
:10150000828D0F900FBE811119C0F80180819181E9
:10151000892B49F40FB6F8940F92F80182819381D8
:101520008FD50F900FBE6C817D81C701CFD4C801CC
:10153000CDDD0DD3811184CF89DC82CFC801C6DD1A
:1015400006D37ECFC801C2DD02D380E00F900F909A
:101550000F900F900F90DF91CF911F910F91FF90FF
:10156000EF90DF90CF90BF90AF909F900895FC01D7
:10157000718360834283148213820895FC019481F5
:10158000A081B181A90FB11D8C919F5F94832281AD
:10159000921710F0921B9483938191509383089536
:1015A000FC01462F83812281821778F4348190E0F8
:1015B000830F911D622F70E0F2D5A081B181A80F39
:1015C000B91F4C9383818F5F83830895FC0181E071
:1015D00022819381291380E0089521E0FC01838119
:1015E000811101C020E0822F0895E0915E08F09102
:1015F0005F088081811107C08FEF9FEF90930502F4
:10160000809304020895E0915E08F0915F080580E0
:10161000F681E02D0680F781E02D82819381909301
:101620000502809304020895CF93DF93EC01E091CB
:101630009F08F091A0089383828380913D08909148
:101640003E08C817D90768F460919F087091A008F8
:1016500080915C0890915D086E5F7F4F0E945902F7
:1016600017C060919F087091A00880915E089091CA
:101670005F086E5F7F4F0E94590280910402909133
:101680000502C817D90720F4D0930502C0930402BD
:10169000DF91CF9108954F925F926F927F928F92D8
:1016A0009F92AF92BF92CF92DF92EF92FF920F93F1
:1016B0001F93CF93DF934C015B012A01390183E231
:1016C00090E00E94F001EC01009709F4E7C0C1141A
:1016D000D10409F0CCC0C2010E94F001988F8F8B19
:1016E000892B09F0C6C0CE010E942502D7C0CF01C8
:1016F0003191DA013D93AD01DC018C91882311F029
:101700002150A9F718A2102F053008F014E01E8B05
:1017100019A31AA25E01B2E0AB0EB11CC5010E9472
:101720003402CE010C960E943402D987C88785E026
:1017300090E0811B91099D878C87DB8BCA8BA3016D
:10174000B401C601D4DA99838883E114F10419F055
:10175000F701D183C0830FB6F8940F9280913F08B0
:101760008F5F80933F0880919F089091A008892BFC
:1017700009F03FC0D093A008C0939F0880913F0814
:10178000813009F045C00F2EF2E7EF2EF8E0FF2E72
:10179000F02D0F2EFFE9CF2EF8E0DF2EF02DC70140
:1017A0000E942602F9E0EF0EF11CEC14FD04B9F7DB
:1017B00089E698E00E94260280E698E00E942602D0
:1017C00083E598E00E9426028AE498E00E942602BF
:1017D00080E498E00E94260289E698E090935F08F2
:1017E00080935E0880E698E090935D0880935C08A3
:1017F0000FC080913B0881110BC0E0919F08F091D0
:10180000A0088689081720F0D093A008C0939F08ED
:10181000809137088F5F809337088E8990913C08BC
:10182000981710F480933C0890E09C01220F331F1E
:10183000220F331F220F331F820F931FB5018E58C3
:10184000974F0E9438020F900FBE80913B0888236B
:1018500051F0E0919F08F091A0088689801728F444
:10186000F5DA81E01CC081E01AC081E018C0D88E92
:10187000CF8A81E0481A5108CF88D88CC40CD51C77
:10188000D5018C91898F8C91882309F43BCFAE01CF
:10189000465E5F4FF501319627E029CF8FEFDF914C
:1018A000CF911F910F91FF90EF90DF90CF90BF905D
:1018B000AF909F908F907F906F905F904F90089522
:1018C0000F931F93CF93DF93EC01009709F43EC071
:1018D00080919F089091A008C817D907B9F10FB659
:1018E000F8940F928A859B858054984069F58C897D
:1018F0009D8928E08335920739F1892B29F58E01DE
:101900000E5F1F4FC8010E948A028E8990913C0889
:10191000981710F480933C0890E09C01220F331F2D
:10192000220F331F220F331F820F931FB8018E58CF
:10193000974F0E943802E0919F08F091A0089E897D
:101940008689981708F082DA0F900FBEDF91CF9149
:101950001F910F910895AF92BF92CF92DF92EF92B5
:10196000FF920F93A12CB12CC12CD12CE12CF12C86
:1019700000E020E030E045E550E060E572E082E81C
:101980009EE089DE813041F4F89480933B08109208
:101990003E0810923D081DDA0F91FF90EF90DF9006
:1019A000CF90BF90AF900895809136088F5F80935D
:1019B000360808950FB6F8940F9280913D089091E3
:1019C0003E080F900FBE089580913D0890913E080B
:1019D0000895CF92DF92EF92FF920F931F93CF93D0
:1019E000DF9380913608811199C080913D089091D4
:1019F0003E08019690933E0880933D08E0903D0894
:101A0000F0903E08E114F104B1F480915E089091E9
:101A10005F0820915C0830915D0830935F08209347
:101A20005E0890935D0880935C08809138088F5F12
:101A300080933808DADD8091040290910502E8165F
:101A4000F90608F454C0D12CCC24C39401C0DC2C7A
:101A5000E0915E08F0915F088081811107C08FEFEF
:101A60009FEF909305028093040242C0E0915E08CC
:101A7000F0915F080580F681E02DC681D7812A812B
:101A80003B81E216F30628F430930502209304020A
:101A90002FC08E010E5F1F4FC8010E948A028C89E1
:101AA0009D89892B21F0CE010C960E948A022E89F5
:101AB00080913C08821710F420933C0830E0C90163
:101AC000880F991F880F991F880F991F820F931FE6
:101AD000B8018E58974F0E943802E0919F08F0910C
:101AE000A0089E898689981708F0B1CFB1CFD12C74
:101AF000E0919F08F091A008868990E0FC01EE0F2C
:101B0000FF1FEE0FFF1FEE0FFF1F8E0F9F1FFC0129
:101B1000EE58F74F8081823040F409C080913A0836
:101B20008F5F80933A08D12C02C0DD24D39480913A
:101B30003908882311F0DD24D3948D2DDF91CF91C6
:101B40001F910F91FF90EF90DF90CF900895DF925B
:101B5000EF92FF920F931F93CF93DF930FB6F894FA
:101B60000F92809136088150809336088091360814
:101B700081115FC080913F08882309F45CC00F2E5B
:101B8000F3E5EF2EF8E0FF2EF02DDD24D39430C0E6
:101B9000E0915808F0915908C681D781CE010C9682
:101BA0000E948A028E010E5F1F4FC8010E948A02A6
:101BB0008E8990913C08981710F480933C0890E02F
:101BC0009C01220F331F220F331F220F331F820F5E
:101BD000931FB8018E58974F0E943802E0919F08DA
:101BE000F091A0089E898689981710F0D092390844
:101BF000F70180818111CCCF80913A08882391F040
:101C000080913A08882371F0C1E0E3DE8111C0932E
:101C1000390880913A08815080933A0880913A08B7
:101C20008111F3CF80913908813039F40FD981E0E7
:101C300005C080E003C080E001C080E00F900FBECF
:101C4000DF91CF911F910F91FF90EF90DF9008955A
:101C50000F931F93CF93DF938C01EB01A5DE80914F
:101C60003D0890913E08F80120813181C20FD31FB9
:101C70008217930748F4C217D307F8F4D183C083BF
:101C80008C179D0788F407C0C217D30790F08C17F4
:101C90009D0778F012C080919F089091A00802964D
:101CA0000E948A02CE01C0DC52DF81110AC0CED868
:101CB00008C0F801D183C083EECFF801D183C0837F
:101CC000F3CFDF91CF911F910F910895CF93DF93C1
:101CD000EC01009799F068DE80913D0890913E08F4
:101CE000C80FD91F80919F089091A00802960E946A
:101CF0008A02CE0199DC2BDF811101C0A7D8DF91C8
:101D0000CF9108950F2EF2E7EF2EF8E0FF2EF02D81
:101D1000CAE4D8E026C048DE188119DF112309F192
:101D20000FB6F8940F92E0914F08F0915008068199
:101D30001781C80102960E948A0280913F08815053
:101D400080933F08809149088150809349080F9003
:101D50000FBEF8018789908D0E942502C8010E945C
:101D60002502809149088111D6CFF7018081823008
:101D7000C0F36CD8F6CF80913608882321F081E03B
:101D80008093390808951092390880913C0890E0BA
:101D9000FC01EE0FFF1FEE0FFF1FEE0FFF1F8E0F58
:101DA0009F1FFC01EE58F74F8081811117C0809171
:101DB0003C08815080933C0880913C0890E0FC01F5
:101DC000EE0FFF1FEE0FFF1FEE0FFF1F8E0F9F1F67
:101DD000FC01EE58F74F8081882349F3E0913C08DD
:101DE000F0E0CF01880F991F880F991F880F991F66
:101DF000E80FF91FEE58F74FA181B28112960D90AE
:101E0000BC91A02DB283A183CF010396A817B90777
:101E100031F412968D919C91139792838183018066
:101E2000F281E02D868197819093A00880939F088E
:101E300008950F931F93CF93DF93EC010FB6F8949F
:101E40000F92009721F4C0919F08D091A0088E01B5
:101E50000E5F1F4FC8010E948A028C899D89892BC1
:101E600021F0CE010C960E948A02B80180E498E02D
:101E70000E9438020F900FBE80919F089091A00899
:101E8000C817D907A1F480913B08882319F00E9454
:101E9000260717C080913F0890914008981305C00D
:101EA0001092A00810929F080CC065DF0AC08091B4
:101EB0003B08882331F00FB6F8940F9296DB0F9011
:101EC0000FBEDF91CF911F910F910895CF93DF93B4
:101ED000EB0160919F087091A008645F7F4F0E94A2
:101EE000590280919F089091A00802960E948A0250
:101EF000CF3F8FEFD80759F460919F087091A008E9
:101F00006E5F7F4F80E498E00E94380207C08091A6
:101F10003D0890913E088C0F9D1F86DBDF91CF918D
:101F200008950F931F93CF93DF93DC011596ED91E6
:101F3000FC911697C681D7818E01045F1F4FC8019F
:101F40000E948A028091360881111CC00A50110932
:101F5000C8010E948A028E8990913C08981710F45B
:101F600080933C0890E09C01220F331F220F331F07
:101F7000220F331F820F931FB8018E58974F0E9474
:101F8000380205C0B80183E598E00E943802E0916C
:101F90009F08F091A0089E898689891720F481E026
:101FA0008093390801C080E0DF91CF911F910F919C
:101FB000089520913808FC01208320913D0830913C
:101FC0003E083283218308950FB6F8940F92409112
:101FD0003D0850913E08DB012D913C912F3FBFEF12
:101FE0003B0711F1E0913808DC01FC91FE1739F054
:101FF0001196ED91FC9112974E175F07B8F4DC0132
:102000001196ED91FC911297DA01AE1BBF0BA2174E
:10201000B30770F4E41BF50B2E0F3F1FFB01318358
:102020002083C7DF80E005C080E003C081E001C0FD
:1020300081E00F900FBE089581E0809339080895E4
:102040000F931F93CF93DF93EC01009709F451C0D6
:102050008E89E0919F08F091A0089689891708F071
:1020600048C02C853D8533235CF0E0919F08F091BA
:10207000A008968925E030E0291B31093D872C878F
:1020800090E09C01220F331F220F331F220F331FBA
:10209000820F931F8E58974F2A853B852817390743
:1020A00011F58E010E5F1F4FC8010E948A02E09158
:1020B0009F08F091A00886898E8B90913C08981714
:1020C00010F480933C0890E09C01220F331F220FF4
:1020D000331F220F331F820F931FB8018E58974F63
:1020E0000E94380206C0E0919F08F091A0088689FE
:1020F0008E8BDF91CF911F910F9108950F931F93B6
:10210000CF93DF93EC01009771F18AA181508AA3EC
:102110002E8999A1291749F1811129C08E010E5FDD
:102120001F4FC8010E948A0289A18E8B25E030E0F2
:10213000281B31093D872C8790913C08981710F493
:1021400080933C0890E09C01220F331F220F331F25
:10215000220F331F820F931FB8018E58974F0E9492
:10216000380281E005C080E003C080E001C080E06B
:10217000DF91CF911F910F91089580919F089091C9
:10218000A008892B39F0E0919F08F091A00882A166
:102190008F5F82A380919F089091A008089597FB7C
:1021A000072E16F4009406D077FD08D00BD007FC5C
:1021B00005D03EF4909581959F4F08957095619557
:1021C0007F4F0895AA1BBB1B51E107C0AA1FBB1F6D
:1021D000A617B70710F0A61BB70B881F991F5A95B3
:1021E000A9F780959095BC01CD010895FB01DC0114
:1021F00002C001900D9241505040D8F70895BB277E
:102200004A3031F4992322F4BDE2909581959F4F95
:1022100001C0BB27FB015527AA27880F991FAA1FBA
:10222000A41710F0A41B83955051B9F7A05DAA33F1
:1022300008F0A95DA193009779F7B111B1931192BC
:10224000CB0100C0DC01FC01672F71917723E1F71E
:10225000329704C07C916D9370836291AE17BF0773
:08226000C8F30895F894FFCFC4
:1022680088138813FFFF0A0A5250492048616E6498
:102278007368616B6520446F6E650A0A003A200036
:102288002C20005461736B2031006D7954696D65A1
:1022980072006D6178536F6E6172005250495F52DF
:1022A800656365697665005250495F53656E6400E1
:0622B80049444C45000002
:00000001FF
