S01400004672656552544F53323536302E7372656379
S1130000B2C00000D0C00000CEC00000CCC00000D0
S1130010CAC00000C8C00000C6C00000C4C00000C0
S1130020C2C0000049C30000BEC00000BCC0000044
S1130030BAC00000B8C00000B6C00000B4C00000E0
S1130040B2C00000B0C00000AEC00000ACC00000F0
S1130050AAC000000C94C009A6C00000A4C00000FF
S1130060A2C0000078C60000E4C600009CC00000E6
S11300709AC00000D0C3000096C0000094C00000E5
S113008092C0000090C000008EC000008CC0000030
S11300902AC6000098C6000086C0000084C0000084
S11300A082C0000080C000007EC000007CC0000050
S11300B07AC0000078C0000076C0000074C0000060
S11300C072C0000070C000006EC000006CC0000070
S11300D06AC0000068C0000066C0000064C0000080
S11300E062C0000007634236B79BD8A71A39685626
S11300F018AEBAAB558C1D3CB7CC5763BD6DEDFD46
S1130100753EF6177231BF000000803F0800000002
S1130110BE922449123EABAAAA2ABECDCCCC4C3EF8
S113012000000080BEABAAAAAA3E00000000BF00E7
S11301300000803F0000000000084178D3BB4387E3
S1130140D1133D190E3CC3BD4282AD2B3E68EC82F7
S113015076BED98FE1A93E4C80EFFFBE01C4FF7F7C
S11301603F000000000011241FBECFEFD1E2DEBF2C
S1130170CDBF00E00CBF12E0A0E0B2E0E2EEFCE292
S113018000E00BBF02C007900D92AE33B107D9F760
S113019029E0AEE3B2E001C01D92A734B207E1F753
S11301A0C5D00C946F162CCF59D7C82F45D78823A8
S11301B019F007D736D7F8CF8C2F4AD7882311F0F8
S11301C000D7F2CF8C2F3ED7882311F01BD7ECCF6A
S11301D0F8D6EACFCF93DF9300D000D0CDB7DEB707
S11301E020E04FEF5FEFBE016A5F7F4F80918F0881
S11301F0909190080E94E20B8E81805DAFD68AE0D8
S1130200ADD68E819FEF980F9E83882321F120E045
S11302104FEF5FEFBE016F5F7F4F80919108909128
S113022092080E94E20B898182D6898197D686E062
S113023092E0B9D6CE010296B6D6CE010296A5D6E4
S11302408AE08CD689E092E0AED68E819FEF980F3B
S11302509E838111DCCF8AE06AD6C2CF95D4D4D4F0
S1130260FECF269A2E9A88EE93E00E944F1085B115
S113027015B888EE93E00E944F10F4CF8FEF80936F
S11302807E00EFE7F0E090819360908380937D009F
S113029008958CEC809364008EE380936500EECF28
S11302A00895109280001092810010926F001092B5
S11302B0B0001092B1001092700010929000109251
S11302C09100109271001092A0001092A10010925F
S11302D0720010922001109221011092730008956F
S11302E0CF93CFB7F894DDDFD4DFD9D5F8D5CBD20F
S11302F0999A6CD240E061E085E00E94BD0A909337
S1130300900880938F0840E065E084E10E94BD0A74
S113031090939208809391086C9AE1E0F1E08081D7
S113032080618083CFBF7894CF910895CF93DF937A
S1130330CDB7DEB72A970FB6F894DEBF0FBECDBF98
S1130340CFDFA12CB12CC12CD12CCE0101967C0184
S113035001E020E030E045E550E06CE072E081E34C
S113036091E00E94340DCE0103967C0104E09C01CF
S113037049E650E063E172E08EE291E00E94340DC0
S1130380CE0109967C0102E020E030E04FE451E028
S11303906BE172E082E592E00E94340DCE01079693
S11303A07C0103E020E030E047E850E064E272E0E2
S11303B084ED90E00E94340DCE0105967C0101E0AD
S11303C020E030E047E850E060E372E08AEE90E03D
S11303D00E94340D0E94940EB3CF1F93CF93DF93EA
S11303E000D01F921F92CDB7DEB7182FCB01112377
S11303F099F04AE0BE016E5F7F4F0E943C1619835C
S113040020E04FEF5FEFBE016F5F7F4F8091910857
S1130410909192080E94EA0A0F900F900F900F900B
S11304200F90DF91CF911F9108958F929F92AF9279
S1130430BF92CF92DF92EF92FF920F931F93CF93CD
S1130440DF931F92CDB7DEB789836B014A0159014F
S113045020E04FEF5FEFBE016F5F7F4F80918F0809
S1130460909190080E94EA0AB401F6018081B5DFF8
S1130470B501F6018181B1DFB801F6018281ADDFFA
S1130480B701F6018381A9DF0F90DF91CF911F910E
S11304900F91FF90EF90DF90CF90BF90AF909F901F
S11304A08F900895CF93DF93CDB7DEB728970FB61B
S11304B0F894DEBF0FBECDBF1B821C821D821E823C
S11304C084E2C5D298878F830E94C30E9A8389835E
S11304D092D187E296D16C0186E293D15C0185E2E8
S11304E090D14C0184E2B3D27C01BC01CE010796C9
S11304F0E7D284019501AE014D5F5F4F60E0C60114
S11305009AD2782E0F8118859701A401B501C601EE
S11305103BD284019501A601BE016D5F7F4F872DFB
S113052084DF1E821D821C821B8266E970E0CE017C
S113053001960E941110CCCFCF93DF93EC010E945F
S1130540BD0E80913E0290913F02892B31F483E4E9
S113055092E090933F0280933E024091400250917A
S113056041029E01240F351F2B3D85E0380770F4AE
S11305704217530770F4C0913E02D0913F02C40F5A
S1130580D51F309341022093400205C0C0E0D0E063
S113059002C0C0E0D0E00E94900FCE01DF91CF9165
S11305A008950895FC010396928381832FEF3FEF12
S11305B03483238396838583908787831082089569
S11305C0FC01118610860895CF93DF939C01FB01F3
S11305D0DC011196CD91DC911297D383C2838C8177
S11305E09D81958384838C819D81DC0113967C930A
S11305F06E9312977D836C8331872087F901808104
S11306008F5F8083DF91CF910895CF93DF93EB01C8
S1130610488159814F3F2FEF520721F4FC01A781F4
S1130620B0850DC0DC0113961296ED91FC911397E1
S1130630208131814217530710F0DF01F5CF129664
S1130640ED91FC911397FB83EA83D583C483BD8327
S1130650AC831396DC93CE93129799878887FC0119
S113066020812F5F2083DF91CF910895CF93DF9373
S1130670FC01A085B185C281D381848195819D834C
S11306808C83C481D581828193819B838A831196D3
S1130690CD91DC911297CE17DF0731F48C819D81C7
S11306A012969C938E931197118610868C9181508B
S11306B08C93DF91CF9108951F920F920FB60F92F2
S11306C011240BB60F922F933F934F935F936F9325
S11306D07F938F939F93AF93BF93EF93FF931B9B52
S11306E00DC06CD290E090939808809397080E9474
S11306F0CD0E909394088093930855C01B9953C0D2
S11307000E94CD0E90939E0880939D08209193089B
S113071030919408821793074CF480919D0890912E
S11307209E08019790939E0880939D0847D290E07D
S11307309093A00880939F0820919708309198087F
S11307408217930754F480919F089091A0088650D3
S11307509F4F9093A00880939F0880919F08909149
S1130760A0082091970830919808821B930B9093CE
S11307709A088093990880919D0890919E082091F1
S1130780930830919408821B930B9093960880935E
S1130790950820E040E050E060E070E080919B0824
S11307A090919C08D5D7FF91EF91BF91AF919F9104
S11307B08F917F916F915F914F913F912F910F9006
S11307C00BBE0F900FBE0F901F901895229A23987E
S11307D0E8E6F0E0808181608083EBE6F0E08081F0
S11307E08860808343E060E081E0C7D690939C08F2
S11307F080939B080895A19A89E190E0E1D1A198A2
S11308000895ABD09C0163E070E00E940C16CB010C
S1130810820F931F08951F920F920FB60F92112407
S11308200BB60F922F933F934F935F936F937F93E6
S11308308F939F93AF93BF93EF93FF93809178002F
S11308408093A108809179008093A20820E040E081
S113085050E060E070E08091A5089091A60878D7F8
S1130860FF91EF91BF91AF919F918F917F916F9184
S11308705F914F913F912F910F900BBE0F900FBE40
S11308800F901F9018958FE880937A0010927B0048
S113089080E480937C0043E060E081E06ED6909336
S11308A0A6088093A50881E028D79093A408809394
S11308B0A30820E040E050E060E070E08BC60895BB
S11308C0CF93C82F20E04FEF5FEF60E070E080919E
S11308D0A3089091A40876D7ECE7F0E080819C2FE0
S11308E09F718076892B8083EBE7F0E02081C072D2
S11308F08C2F90E09595879595958795922F907676
S1130900892B8083EAE7F0E0808180648083CF9143
S11309100895CF93DF9320E04FEF5FEF60E070E046
S11309208091A5089091A6084DD7C091A208C370E4
S1130930D0E0DC2FCC278091A108C80FD11D20E086
S113094040E050E060E070E08091A3089091A4083A
S113095041D6CE01DF91CF910895CF93C82FB0DF58
S11309608C2FD7DFCF9108959C01215F3F4F26172D
S1130970370744F02E51310981E0621773071CF0E8
S113098080E0089581E008950F931F9386349105C4
S11309901CF56D32710554F44D3251053CF4749AD2
S11309A0E2E0F1E080818061808342C0665F7F4F36
S11309B0461757073CF4E2E0F1E080818F7E8083A4
S11309C0749A36C0641775079CF57498E2E0F1E0F8
S11309D08081806180832CC04E31510554F46F3185
S11309E071053CF0E2E0F1E080818F7E8083749AAF
S11309F01FC06E31710554F44F3151053CF0E2E0F3
S1130A00F1E0808180618083749812C0B901C801CB
S1130A10ABDF882339F0749AE2E0F1E080818061F1
S1130A20808306C0E2E0F1E080818F7E8083749849
S1130A301F910F910895FA0186E480838CE48183E9
S1130A4082E5828382E4838384E0860F089585DFD0
S1130A50BC01882777FD8095982F0E94501329E2C6
S1130A603CE54FE65FEB0E943F1422E538E646E2A0
S1130A7056E40E94DC1320E030E040E251E40E949E
S1130A80B8120E941D13CB01683E23E0720714F0D4
S1130A9087EE93E00895FB012081318150E0B90194
S1130AA0640F751F681779074CF0241B350B41E060
S1130AB0821793070CF040E0842F089581E0089595
S1130AC00F931F93CF93DF938C01EB0145E0BC019F
S1130AD0CE01E1DF882341F02091220830912308E0
S1130AE02115310569F44BC0209122083091230867
S1130AF02115310529F4D0931F08C0931E0832C074
S1130B002A303105A9F445E06EE178E0CE01C3DF77
S1130B10882349F0D0931F08C0931E08109223081D
S1130B20109222081FC0D0932108C09320081AC035
S1130B3024313105B9F4109223081092220845E0BB
S1130B406EE178E0CE01A7DF882329F0D0931F0857
S1130B50C0931E0807C080911E0890911F08F801D9
S1130B60918380838091220890912308019664E107
S1130B7070E00E940C169093230880932208DF9162
S1130B80CF911F910F9108959093AC088093AB0877
S1130B90FC01808191810E94021143E060E081E0C8
S1130BA0ECD49093A8088093A70843E060E081E028
S1130BB0E4D49093AA088093A908089586B508956B
S1130BC046B550E09C01992314F42D5F3F4F3595B1
S1130BD0279535952795240F351F309303022093CD
S1130BE00202E091AB08F091AC08808191810E94EF
S1130BF0490E20E042E050E060E070E08091A708F8
S1130C009091A808DFC50895CF93DF93C6B5C111AD
S1130C1022C080910202909103028838934151F0DE
S1130C2080910202909103028A5F910990930302DA
S1130C3080930202809100029091010288389341CE
S1130C4051F080910002909101028A5F9109909382
S1130C50010280930002D0E080910202909103028D
S1130C608C179D0784F488E893E1909303028093A2
S1130C70020220E040E050E060E070E08091A708CC
S1130C809091A808A7D480910002909101028C173A
S1130C909D0784F488E893E1909301028093000215
S1130CA020E040E050E060E070E08091A90890917D
S1130CB0AA0890D48091020290910302883893414B
S1130CC079F480910002909101028838934141F4B3
S1130CD0E091AB08F091AC08808191810E940211EF
S1130CE0DF91CF9108951F920F920FB60F921124A6
S1130CF00BB60F922F933F934F935F936F937F9312
S1130D008F939F93AF93BF93EF93FF936091CE0024
S1130D1082E499E02DD620E040E050E060E070E00D
S1130D20809136099091370913D582E499E037D63A
S1130D30FF91EF91BF91AF919F918F917F916F91AF
S1130D405F914F913F912F910F900BBE0F900FBE6B
S1130D500F901F9018951F920F920FB60F921124A7
S1130D600BB60F922F933F934F935F936F937F93A1
S1130D708F939F93AF93BF93EF93FF936091C600BC
S1130D808DEC98E0F5D520E040E050E060E070E0C4
S1130D908091360990913709DBD48DEC98E0FFD52A
S1130DA0FF91EF91BF91AF919F918F917F916F913F
S1130DB05F914F913F912F910F900BBE0F900FBEFB
S1130DC00F901F9018951F920F920FB60F92112437
S1130DD00BB60F922F933F934F935F936F937F9331
S1130DE08F939F93AF93BF93EF93FF9388E399E01F
S1130DF0DDD5882331F088E399E0A8D58093CE002F
S1130E0005C0E9ECF0E080818F7D8083FF91EF9154
S1130E10BF91AF919F918F917F916F915F914F910E
S1130E203F912F910F900BBE0F900FBE0F901F900C
S1130E3018951F920F920FB60F9211240BB60F92B2
S1130E402F933F934F935F936F937F938F939F93CE
S1130E50AF93BF93EF93FF938DE399E0A7D58823D6
S1130E6031F08DE399E072D58093C60005C0E1ECC2
S1130E70F0E080818F7D8083FF91EF91BF91AF91EE
S1130E809F918F917F916F915F914F913F912F919E
S1130E900F900BBE0F900FBE0F901F9018951092DD
S1130EA0C50087E68093C40088EB8093C10086E088
S1130EB08093C20040E264EF78E08DEC98E035D591
S1130EC040E262ED78E08DE399E02FD543E060E005
S1130ED081E053D390933509809334090895109297
S1130EE0CD0087E68093CC0088EB8093C90086E030
S1130EF08093CA0040E26DEA78E082E499E015D577
S1130F0040E264E179E088E399E00FD543E060E0F2
S1130F1081E033D3909337098093360943E060E04E
S1130F2081E02BD39093F3088093F2080895CF9334
S1130F30C82F8DE399E033D58111FBCF6C2F8DE35E
S1130F4099E016D5E1ECF0E0808180628083E0ECEA
S1130F50F0E0808180648083CF910895CF93C82F7F
S1130F6088E399E01CD58111FBCF6C2F88E399E0CD
S1130F70FFD4E9ECF0E0808180628083E8ECF0E06B
S1130F80808180648083CF910895CF93DF93EC01B7
S1130F908881882329F02196E1DF89918111FCCF92
S1130FA0DF91CF910895CF93DF93EC01888188235B
S1130FB029F02196BCDF89918111FCCFDF91CF917B
S1130FC00895CF9320E04FEF5FEF60E070E08091F1
S1130FD0360990913709F6D382E499E0B7D4C82F43
S1130FE082E499E0E3D4882351F020E040E050E02B
S1130FF060E070E08091360990913709EBD28C2F34
S1131000CF910895DEDF863151F485E0A7DFD9DF83
S113101091E0863109F490E0892F819508958FEF4E
S1131020089520E040E050E060E070E08091F20834
S11310309091F308CFC2089591E0853009F090E0D3
S1131040892F089591E0863109F090E0892F089561
S113105091E0863009F090E0892F0895CF9320E045
S11310604FEF5FEF60E070E08091360990913709AF
S1131070A9D382E499E060D4C82F82E499E096D49D
S1131080882351F020E040E050E060E070E080917F
S11310903609909137099ED28C2FCF91089531E172
S11310A0FC013083319722E220833197A3E3A083AC
S11310B03197608331977083319710823197108212
S11310C0319760E8608331971082319710823197AD
S11310D01082319762E06083319763E060833197D7
S11310E064E06083319765E06083319766E06083F4
S11310F0319767E06083319768E06083319769E0F6
S11311006083319760E1608331973083319732E1B6
S11311103083319733E13083319734E13083319731
S113112035E13083319736E13083319737E13083CD
S1131130319738E13083319739E13083319730E2A8
S11311403083319731E2308331972083319723E222
S113115020833197408331975083319726E220834F
S1131160319727E22083319728E22083319729E2BF
S11311702083319720E32083319721E320838997CB
S1131180089582E084BD16BC80E387BDEEE6F0E0FE
S113119080818260808383E085BDA0918D08B091B9
S11311A08E08CD91CDBFDD91DEBFFF91EF91DF9130
S11311B0CF91BF91AF919F918F917F916F915F91EB
S11311C04F913F912F911F910F91FF90EF90DF90DE
S11311D0CF90BF90AF909F908F907F906F905F90D3
S11311E04F903F902F901F900F900CBE0F900BBE0E
S11311F00F900FBE0F90089581E008950F920FB6DF
S1131200F8940F920BB60F920CB60F921F92112402
S11312102F923F924F925F926F927F928F929F9202
S1131220AF92BF92CF92DF92EF92FF920F931F93F0
S11312302F933F934F935F936F937F938F939F93DA
S1131240AF93BF93CF93DF93EF93FF93A0918D0858
S1131250B0918E080DB60D920EB60D9275D7A09171
S11312608D08B0918E08CD91CDBFDD91DEBFFF9189
S1131270EF91DF91CF91BF91AF919F918F917F912A
S11312806F915F914F913F912F911F910F91FF901B
S1131290EF90DF90CF90BF90AF909F908F907F9012
S11312A06F905F904F903F902F901F900F900CBEC7
S11312B00F900BBE0F900FBE0F9008950F920FB6B4
S11312C0F8940F920BB60F920CB60F921F92112442
S11312D02F923F924F925F926F927F928F929F9242
S11312E0AF92BF92CF92DF92EF92FF920F931F9330
S11312F02F933F934F935F936F937F938F939F931A
S1131300AF93BF93CF93DF93EF93FF93A0918D0897
S1131310B0918E080DB60D920EB60D9243D5811183
S113132013D7A0918D08B0918E08CD91CDBFDD91DA
S1131330DEBFFF91EF91DF91CF91BF91AF919F916C
S11313408F917F916F915F914F913F912F911F9159
S11313500F91FF90EF90DF90CF90BF90AF909F9050
S11313608F907F906F905F904F903F902F901F9041
S11313700F900CBE0F900BBE0F900FBE0F900895F0
S11313809DDF18951F93CF93DF93EC01142F8C8D61
S113139081110CC088819981892B09F047C08A8109
S11313A09B810E9467121B821A8247C0411118C098
S11313B0482F50E08C819D810E9433162C8D8C81A6
S11313C09D81820F911D9D838C832A813B8182178D
S11313D0930770F1888199819D838C8380E02DC06F
S11313E0482F50E08E819F810E9433162C8D30E06F
S11313F03195219531098E819F81820F931F9F839F
S11314008E83688179818617970730F48A819B815E
S1131410280F391F3F832E83123061F48A8D88236D
S113142059F08A8D81508A8F80E007C080E005C022
S113143080E003C080E001C080E09A8D9F5F9A8FB6
S1131440DF91CF911F910895FC01CB01448D44237A
S1131450A1F050E026813781240F351F378326837E
S1131460628173812617370720F020813181378309
S11314702683668177810C94331608950F931F9306
S1131480CF93DF93EC010FB6F8940F928E8D18165C
S1131490A4F48989882389F08E010F5E1F4F03C04D
S11314A08989882351F0C80125D78111AED78E8D43
S11314B081508E8F8E8D18169CF38FEF8E8F0F9028
S11314C00FBE0FB6F8940F928D8D1816A4F488856C
S11314D0882389F08E01085F1F4F03C08885882305
S11314E051F0C80107D7811190D78D8D81508D8F10
S11314F08D8D18169CF38FEF8D8F0F900FBEDF919B
S1131500CF911F910F910895CF93DF93EC010FB604
S1131510F8940F92888199812C8D30E07B8D729F95
S1131520A001739F500D1124FC01E40FF51FFB83F0
S1131530EA831A8E9D838C83421B530B840F951F61
S11315409F838E838FEF8D8F8E8F61110AC0888564
S1131550882369F0CE010896CDD6813041F44EDE61
S113156006C0CE0108961ED8CE0141961BD80F9016
S11315700FBE81E0DF91CF9108950F931F93CF9316
S1131580DF93182F062F8823E9F08FE190E00E9463
S11315909C02EC010097C1F0109FC0011124019638
S11315A00E949C0299838883892B31F01B8F0C8FB6
S11315B061E0CE01A9DF08C0CE010E94D102C0E0E3
S11315C0D0E002C0C0E0D0E0CE01DF91CF911F9106
S11315D00F9108959F92AF92BF92CF92DF92EF92B4
S11315E0FF920F931F93CF93DF9300D01F921F920C
S11315F0CDB7DEB78C016B015D834C83A22EB12C79
S1131600992493947C0188E0E80EF11C0FB6F894B9
S11316100F92F801928D838D981718F0F2E0AF12B3
S113162015C04A2DB601C801ADDEF8019189992390
S113163039F0C80141965ED6813021F4DFDD02C065
S11316408111DCDD0F900FBE81E046C0EC81FD818D
S1131650EF2B21F40F900FBE80E03EC0B11004C008
S1131660CE0101968FD6B92C0F900FBE86D30FB63C
S1131670F8940F92F801858D8F3F09F4158EF801C7
S1131680868D8F3F09F4168E0F900FBEBE016C5FDE
S11316907F4FCE01019681D681111AC00FB6F894FE
S11316A00F92F801928D0F900FBEF801838D98135D
S11316B00BC06C817D81C701F2D5C801DFDE30D457
S11316C08111A4CF9BDDA2CFC801D8DE29D49ECF3F
S11316D0C801D4DE25D480E00F900F900F900F90B6
S11316E00F90DF91CF911F910F91FF90EF90DF90BA
S11316F0CF90BF90AF909F900895CF93DF938FE1E9
S113170090E00E949C02EC010097F1F01B821A8287
S1131710198218821D821C821F821E821A8E81E009
S11317208B8F1C8E8FEF8D8F8E8FCE0108960E942B
S1131730D202CE0141960E94D20220E040E050E065
S113174060E070E0CE0146DFCE01DF91CF910895D5
S11317500F931F93CF93DF93EC018A019A8D8B8DA6
S1131760981710F0223011F5422FCE010BDE88239A
S113177031F00115110519F081E0F80180838E8D97
S11317808F3F79F48989882399F0CE014196B2D5A7
S1131790882381F00115110579F081E0F801808337
S11317A00CC08E8D8F5F8E8F81E007C080E005C0F6
S11317B081E003C081E001C081E0DF91CF911F91FE
S11317C00F9108959F92AF92BF92CF92DF92EF92C2
S11317D0FF920F931F93CF93DF9300D01F921F921A
S11317E0CDB7DEB78C016B015D834C83B22EA12C87
S11317F0992493947C0181E1E80EF11C0FB6F894CE
S11318000F92F801828D882369F1E680F780B60192
S1131810C8011ADEB11017C0F801828D8150828F81
S113182080819181892B21F491D6F801938382835D
S1131830F8018085882391F0C80108965BD5813032
S113184069F4DCDC0BC0F801F782E6828189882325
S113185029F0C80141964ED58111D0DC0F900FBEFE
S113186081E052C04C815D81452B21F40F900FBE65
S113187080E04AC0A11004C0CE01019683D5A92CF2
S11318800F900FBE7AD20FB6F8940F92F801858D9F
S11318908F3F09F4158EF801868D8F3F09F4168E5B
S11318A00F900FBEBE016C5F7F4FCE01019675D5C0
S11318B0811126C00FB6F8940F92F801828D0F9013
S11318C00FBE811119C0F80180819181892B49F4DF
S11318D00FB6F8940F92F801828193819AD50F90F4
S11318E00FBE6C817D81C701DAD4C801C7DD18D36E
S11318F0811184CF83DC82CFC801C0DD11D37ECFB8
S1131900C801BCDD0DD380E00F900F900F900F90B5
S11319100F90DF91CF911F910F91FF90EF90DF9087
S1131920CF90BF90AF909F900895FC017183608326
S11319304283148213820895DC0114962C91149727
S1131940ED91FC91E20FF11D80810895FC019481D9
S1131950A081B181A90FB11D8C919F5F94832281D5
S1131960921710F0921B948393819150938308955E
S1131970FC01462F83812281821780F4348190E018
S1131980830F911D622F70E00E940C16A081B1811B
S1131990A80FB91F4C9383818F5F83830895FC0143
S11319A081E022819381291380E0089521E0FC01E4
S11319B08381811101C020E0822F0895E0914C08B9
S11319C0F0914D088081811107C08FEF9FEF9093B4
S11319D00502809304020895E0914C08F0914D08AB
S11319E00580F681E02D0680F781E02D82819381C8
S11319F090930502809304020895CF93DF93EC0142
S1131A00E0918D08F0918E089383828380912B0856
S1131A1090912C08C817D90768F460918D087091CB
S1131A208E0880914A0890914B086E5F7F4F0E9408
S1131A30050317C060918D0870918E0880914C0841
S1131A4090914D086E5F7F4F0E94050380910402C0
S1131A5090910502C817D90720F4D0930502C093CA
S1131A600402DF91CF9108954F925F926F927F921B
S1131A708F929F92AF92BF92CF92DF92EF92FF929A
S1131A800F931F93CF93DF934C015B012A0139011C
S1131A9083E290E00E949C02EC01009709F4E7C005
S1131AA0C114D10409F0CCC0C2010E949C02988FD9
S1131AB08F8B892B09F0C6C0CE010E94D102D7C0FA
S1131AC0CF013191DA013D93AD01DC018C91882382
S1131AD011F02150A9F718A2102F053008F014E0D6
S1131AE01E8B19A31AA25E01B2E0AB0EB11CC50194
S1131AF00E94E002CE010C960E94E002D987C887BA
S1131B0085E090E0811B91099D878C87DB8BCA8BD4
S1131B10A301B401C601C3DA99838883E114F104F3
S1131B2019F0F701D183C0830FB6F8940F92809116
S1131B302D088F5F80932D0880918D0890918E08D9
S1131B40892B09F03FC0D0938E08C0938D088091F3
S1131B502D08813009F045C00F2EF0E6EF2EF8E095
S1131B60FF2EF02D0F2EFDE8CF2EF8E0DF2EF02D06
S1131B70C7010E94D202F9E0EF0EF11CEC14FD043F
S1131B80B9F787E598E00E94D2028EE498E00E94BB
S1131B90D20281E498E00E94D20288E398E00E9495
S1131BA0D2028EE298E00E94D20287E598E09093F8
S1131BB04D0880934C088EE498E090934B088093F2
S1131BC04A080FC08091290881110BC0E0918D084B
S1131BD0F0918E088689081720F0D0938E08C09360
S1131BE08D08809125088F5F809325088E899091B8
S1131BF02A08981710F480932A0890E09C01220F79
S1131C00331F220F331F220F331F820F931FB5017F
S1131C10805A974F0E94E4020F900FBE80912908CA
S1131C20882351F0E0918D08F0918E088689801701
S1131C3028F4E4DA81E01CC081E01AC081E018C015
S1131C40D88ECF8A81E0481A5108CF88D88CC40C2A
S1131C50D51CD5018C91898F8C91882309F43BCFB5
S1131C60AE01465E5F4FF501319627E029CF8FEF35
S1131C70DF91CF911F910F91FF90EF90DF90CF9064
S1131C80BF90AF909F908F907F906F905F904F9098
S1131C9008950F931F93CF93DF93EC01009709F4FA
S1131CA03EC080918D0890918E08C817D907B9F16C
S1131CB00FB6F8940F928A859B858E52984069F5E9
S1131CC08C899D8928E08134920739F1892B29F583
S1131CD08E010E5F1F4FC8010E9436038E899091BA
S1131CE02A08981710F480932A0890E09C01220F88
S1131CF0331F220F331F220F331F820F931FB8018C
S1131D00805A974F0E94E402E0918D08F0918E086A
S1131D109E898689981708F071DA0F900FBEDF91BB
S1131D20CF911F910F910895AF92BF92CF92DF92FE
S1131D30EF92FF920F93A12CB12CC12CD12CE12C4A
S1131D40F12C00E020E030E045E550E069E372E08A
S1131D508BE690E189DE813041F4F8948093290880
S1131D6010922C0810922B080CDA0F91FF90EF9030
S1131D70DF90CF90BF90AF900895809124088F5F3B
S1131D808093240808950FB6F8940F9280912B083D
S1131D9090912C080F900FBE089580912B0890917C
S1131DA02C080895CF92DF92EF92FF920F931F9326
S1131DB0CF93DF9380912408811199C080912B08DF
S1131DC090912C08019690932C0880932B08E09016
S1131DD02B08F0902C08E114F104B1F480914C0824
S1131DE090914D0820914A0830914B0830934D084A
S1131DF020934C0890934B0880934A0880912608BE
S1131E008F5F80932608DADD8091040290910502A9
S1131E10E816F90608F454C0D12CCC24C39401C0AC
S1131E20DC2CE0914C08F0914D088081811107C0B1
S1131E308FEF9FEF909305028093040242C0E091DC
S1131E404C08F0914D080580F681E02DC681D781BC
S1131E502A813B81E216F30628F43093050220938D
S1131E6004022FC08E010E5F1F4FC8010E9436036B
S1131E708C899D89892B21F0CE010C960E94360312
S1131E802E8980912A08821710F420932A0830E0C2
S1131E90C901880F991F880F991F880F991F820FF6
S1131EA0931FB801805A974F0E94E402E0918D0875
S1131EB0F0918E089E898689981708F0B1CFB1CF2A
S1131EC0D12CE0918D08F0918E08868990E0FC0178
S1131ED0EE0FFF1FEE0FFF1FEE0FFF1F8E0F9F1F52
S1131EE0FC01E05AF74F8081823040F409C08091B0
S1131EF028088F5F80932808D12C02C0DD24D39456
S1131F0080912708882311F0DD24D3948D2DDF914F
S1131F10CF911F910F91FF90EF90DF90CF90089594
S1131F20DF92EF92FF920F931F93CF93DF930FB63D
S1131F30F8940F9280912408815080932408809112
S1131F40240881115FC080912D08882309F45CC0A6
S1131F500F2EF1E4EF2EF8E0FF2EF02DDD24D394C4
S1131F6030C0E0914608F0914708C681D781CE0180
S1131F700C960E9436038E010E5F1F4FC8010E940B
S1131F8036038E8990912A08981710F480932A08B2
S1131F9090E09C01220F331F220F331F220F331FA7
S1131FA0820F931FB801805A974F0E94E402E09178
S1131FB08D08F0918E089E898689981710F0D0922A
S1131FC02708F70180818111CCCF809128088823CC
S1131FD091F080912808882371F0C1E0E3DE81113B
S1131FE0C093270880912808815080932808809105
S1131FF028088111F3CF80912708813039F4FED865
S113200081E005C080E003C080E001C080E00F9063
S11320100FBEDF91CF911F910F91FF90EF90DF9052
S113202008950F931F93CF93DF938C01EB01A5DEEB
S113203080912B0890912C08F80120813181C20FE6
S1132040D31F8217930748F4C217D307F8F4D18338
S1132050C0838C179D0788F407C0C217D30790F07C
S11320608C179D0778F012C080918D0890918E088E
S113207002960E943603CE01C0DC52DF81110AC0F1
S1132080BDD808C0F801D183C083EECFF801D18355
S1132090C083F3CFDF91CF911F910F910895CF9318
S11320A0DF93EC01009799F068DE80912B08909102
S11320B02C08C80FD91F80918D0890918E08029624
S11320C00E943603CE0199DC2BDF811101C096D822
S11320D0DF91CF9108950F2EF0E6EF2EF8E0FF2E5A
S11320E0F02DC8E3D8E026C048DE188119DF11239B
S11320F009F10FB6F8940F92E0913D08F0913E0873
S113210006811781C80102960E94360380912D082A
S1132110815080932D08809137088150809337082F
S11321200F900FBEF8018789908D0E94D102C801DB
S11321300E94D102809137088111D6CFF7018081A6
S11321408230C0F35BD8F6CF80912408882321F035
S113215081E08093270808951092270880912A0827
S113216090E0FC01EE0FFF1FEE0FFF1FEE0FFF1FAD
S11321708E0F9F1FFC01E05AF74F8081811117C019
S113218080912A08815080932A0880912A0890E03F
S1132190FC01EE0FFF1FEE0FFF1FEE0FFF1F8E0F50
S11321A09F1FFC01E05AF74F8081882349F3E09197
S11321B02A08F0E0CF01880F991F880F991F880F14
S11321C0991FE80FF91FE05AF74FA181B2811296C7
S11321D00D90BC91A02DB283A183CF010396A817C3
S11321E0B90731F412968D919C9113979283818350
S11321F00180F281E02D8681978190938E088093EF
S11322008D0808950F931F93CF93DF93EC010FB6BE
S1132210F8940F92009721F4C0918D08D0918E0804
S11322208E010E5F1F4FC8010E9436038C899D8961
S1132230892B21F0CE010C960E943603B8018EE260
S113224098E00E94E4020F900FBE80918D08909157
S11322508E08C817D907A1F480912908882319F09A
S11322600E94FE0817C080912D0890912E089813A3
S113227005C010928E0810928D080CC065DF0AC04C
S113228080912908882331F00FB6F8940F9296DBD9
S11322900F900FBEDF91CF911F910F910895CF93AF
S11322A0DF93EB0160918D0870918E08645F7F4F1E
S11322B00E94050380918D0890918E0802960E94D9
S11322C03603CF3F8FEFD80759F460918D08709192
S11322D08E086E5F7F4F8EE298E00E94E40207C092
S11322E080912B0890912C088C0F9D1F86DBDF9129
S11322F0CF9108950F931F93CF93DF93DC0115962D
S1132300ED91FC911697C681D7818E01045F1F4F12
S1132310C8010E9436038091240881111CC00A5010
S11323201109C8010E9436038E8990912A089817D2
S113233010F480932A0890E09C01220F331F220F8F
S1132340331F220F331F820F931FB801805A974FF8
S11323500E94E40205C0B80181E498E00E94E4020E
S1132360E0918D08F0918E089E898689891720F462
S113237081E08093270801C080E0DF91CF911F9115
S11323800F91089520912608FC01208320912B08A9
S113239030912C083283218308950FB6F8940F925C
S11323A040912B0850912C08DB012D913C912F3F3B
S11323B0BFEF3B0711F1E0912608DC01FC91FE1709
S11323C039F01196ED91FC9112974E175F07B8F40E
S11323D0DC011196ED91FC911297DA01AE1BBF0B53
S11323E0A217B30770F4E41BF50B2E0F3F1FFB017C
S11323F031832083C7DF80E005C080E003C081E033
S113240001C081E00F900FBE089581E080932708FA
S113241008950F931F93CF93DF93EC01009709F472
S113242051C08E89E0918D08F0918E0896898917A4
S113243008F048C02C853D8533235CF0E0918D087D
S1132440F0918E08968925E030E0291B31093D87FB
S11324502C8790E09C01220F331F220F331F220F81
S1132460331F820F931F805A974F2A853B85281765
S1132470390711F58E010E5F1F4FC8010E94360304
S1132480E0918D08F0918E0886898E8B90912A08B0
S1132490981710F480932A0890E09C01220F331FB0
S11324A0220F331F220F331F820F931FB801805A4C
S11324B0974F0E94E40206C0E0918D08F0918E08C7
S11324C086898E8BDF91CF911F910F9108950F9381
S11324D01F93CF93DF93EC01009771F18AA1815090
S11324E08AA32E8999A1291749F1811129C08E0146
S11324F00E5F1F4FC8010E94360389A18E8B25E011
S113250030E0281B31093D872C8790912A089817C1
S113251010F480932A0890E09C01220F331F220FAD
S1132520331F220F331F820F931FB801805A974F16
S11325300E94E40281E005C080E003C080E001C0A5
S113254080E0DF91CF911F910F91089580918D08C4
S113255090918E08892B39F0E0918D08F0918E08C6
S113256082A18F5F82A380918D0890918E08089537
S11325705058BB27AA270ED0E5C0D6D030F0DBD008
S113258020F031F49F3F11F41EF4CBC00EF4E0951B
S1132590E7FBC1C0E92FE7D080F3BA1762077307DE
S11325A08407950718F071F49EF5FFC00EF4E095CA
S11325B00B2EBA2FA02D0B01B90190010C01CA01F9
S11325C0A0011124FF27591B99F0593F50F4503EA4
S11325D068F11A16F040A22F232F342F4427585F96
S11325E0F3CF469537952795A795F0405395C9F7AE
S11325F07EF41F16BA0B620B730B840BBAF0915066
S1132600A1F0FF0FBB1F661F771F881FC2F70EC004
S1132610BA0F621F731F841F48F4879577956795D7
S1132620B795F7959E3F08F0B3CF9395880F08F0C0
S11326309927EE0F97958795089504D06894B11162
S1132640B5C0089598D088F09F5790F0B92F992776
S1132650B751A0F0D1F0660F771F881F991F1AF0A9
S1132660BA95C9F712C0B13081F09FD0B1E0089596
S11326709CC0672F782F8827B85F39F0B93FCCF317
S1132680869577956795B395D9F73EF4909580959F
S1132690709561957F4F8F4F9F4F0895E89409C0BF
S11326A097FB3EF490958095709561957F4F8F4F81
S11326B09F4F9923A9F0F92F96E9BB279395F69597
S11326C0879577956795B795F111F8CFFAF4BB0F15
S11326D011F460FF1BC06F5F7F4F8F4F9F4F16C079
S11326E0882311F096E911C0772321F09EE8872F03
S11326F0762F05C0662371F096E8862F70E060E0BF
S11327002AF09A95660F771F881FDAF7880F969537
S1132710879597F9089597F99F6780E870E060E0DE
S113272008959FEF80EC089500240A941616170666
S113273018060906089500240A94121613061406AE
S113274005060895092E0394000C11F4882352F011
S1132750BB0F40F4BF2B11F460FF04C06F5F7F4FC9
S11327608F4F9F4F089557FD9058440F551F59F0B0
S11327705F3F71F04795880F97FB991F61F09F3F6A
S113278079F087950895121613061406551FF2CF93
S11327904695F1DF08C0161617061806991FF1CFE3
S11327A086957105610508940895E894BB2766270A
S11327B07727CB0197F908950BD0C4CFB5DF28F064
S11327C0BADF18F0952309F0A6CFABCF1124EECFD2
S11327D0CADFA0F3959FD1F3950F50E0551F629F78
S11327E0F001729FBB27F00DB11D639FAA27F00D66
S11327F0B11DAA1F649F6627B00DA11D661F829F8D
S11328002227B00DA11D621F739FB00DA11D621F71
S1132810839FA00D611D221F749F3327A00D611D8E
S1132820231F849F600D211D822F762F6A2F112470
S11328309F5750408AF0E1F088234AF0EE0FFF1FC3
S1132840BB1F661F771F881F91505040A9F79E3FFA
S1132850510570F060CFAACF5F3FECF3983EDCF3F4
S1132860869577956795B795F795E7959F5FC1F737
S1132870FE2B880F911D9695879597F90895FA0177
S1132880EE0FFF1F30962105310599F16115710591
S113289061F48038BFE39B0749F16894903881055F
S11328A061F08038BFEF9B0741F0992342F5FF3F69
S11328B0E1053105210511F1E8940894E795D90162
S11328C0AA2329F4AB2FBE2FF85FD0F310C0FF5F0B
S11328D070F4A695E0F7F73950F019F0FF3A38F4A0
S11328E09F779F930CD00F9007FC905808953EF06B
S11328F018CF60E070E080E89FE308954FE79F778A
S11329005F934F933F932F939ED02F913F914F917D
S11329105F9152DF05C019F40EF0FDCE46CF01CF12
S11329202ADFC8F39638C0F707F80F92E8942BE330
S11329303AEA48EB5FE74EDF0F920F920F924DB7E2
S11329405EB70F92C0D0E4EEF0E016D04F915F91E5
S1132950EF91FF91E595EE1FFF1F49F0FE57E068E8
S11329604427EE0F441FFA95E1F74195550B32D0F9
S11329700F9007FE26C00895DF93CF931F930F9304
S1132980FF92EF92DF927B018C01689405C0DA2EEE
S1132990EF011EDFFE01E894A59125913591459143
S11329A05591AEF3EF01F6DDFE019701A801DA942B
S11329B079F7DF90EF90FF900F911F91CF91DF9106
S11329C008959B01AC0160E070E080E89FE3AEC035
S11329D0A2CE14C1D0DEE8F39923D9F3940F511D8C
S11329E0BBF39150504094F059F0882332F0660FB5
S11329F0771F881F91505040C1F79E3F510544F7FF
S1132A00880F911D9695879597F908955F3FACF0CF
S1132A10983E9CF0BB27869577956795B79508F403
S1132A20B1609395C1F7BB0F58F711F460FFE8CF7D
S1132A306F5F7F4F8F4F9F4FE3CFB8CE0EF0DEC056
S1132A4070CE689468CE97DEC8F39923D1F3C6F3A9
S1132A50DF93CF931F930F93FF92C92FDD27882312
S1132A602AF02197660F771F881FDAF720E030E0FD
S1132A7040E85FEB9FE3883920F0803E30F02196F8
S1132A808F7777DDECE0F1E003C073DDE9E3F1E09B
S1132A9073DF8B01BE01EC01FB2E6F577109759535
S1132AA0771F880B990BFCDD28E132E741E35FE3F4
S1132AB08FDEAF2D9801AE01FF900F911F91CF9142
S1132AC0DF9168DD3FCEFA01DC01AA0FBB1F9B0139
S1132AD0AC01BF5728F422273327442750781FC05E
S1132AE0B75188F4AB2F0024469537952795011CE0
S1132AF0A395D2F3002069F0220F331F441FB3952E
S1132B00DAF30DD035CD61307105A0E88A07B946F6
S1132B1030F49B01AC01662777278827907830969C
S1132B2021F0208331834283538308950CD00ACE4D
S1132B3002DE40F0F9DD30F021F45F3F19F0EBCD17
S1132B40511134CEEECD0FDE98F39923C9F35523FA
S1132B50B1F3951B550BBB27AA276217730784078C
S1132B6038F09F5F5F4F220F331F441FAA1FA9F342
S1132B7033D00E2E3AF0E0E830D091505040E69534
S1132B80001CCAF729D0FE2F27D0660F771F881F95
S1132B90BB1F261737074807AB07B0E809F0BB0B84
S1132BA0802DBF01FF2793585F4F2AF09E3F5105A8
S1132BB068F0B1CDFBCD5F3FECF3983EDCF3869536
S1132BC077956795B795F7959F5FC9F7880F911D1E
S1132BD09695879597F90895E1E0660F771F881F0A
S1132BE0BB1F621773078407BA0720F0621B730BBD
S1132BF0840BBA0BEE1F88F7E09508959F3F31F0E0
S1132C00915020F4879577956795B795880F911D16
S1132C109695879597F9089597FB072E16F40094D7
S1132C2006D077FD08D00BD007FC05D03EF4909574
S1132C3081959F4F0895709561957F4F0895AA1BC4
S1132C40BB1B51E107C0AA1FBB1FA617B70710F093
S1132C50A61BB70B881F991F5A95A9F780959095C5
S1132C60BC01CD010895FB01DC0102C001900D926D
S1132C7041505040D8F70895BB274A3031F4992386
S1132C8022F4BDE2909581959F4F01C0BB27FB01C3
S1132C905527AA27880F991FAA1FA41710F0A41B51
S1132CA083955051B9F7A05DAA3308F0A95DA193AB
S1132CB0009779F7B111B1931192CB0100C0DC01F7
S1132CC0FC01672F71917723E1F7329704C07C915F
S1132CD06D9370836291AE17BF07C8F30895F8949B
S1052CE0FFCF20
S1132CE288138813FFFF3A20002C20005461736B71
S1132CF22031006D7954696D6572006D6178536F8E
S1132D026E6172005250495F52656365697665006F
S1112D125250495F53656E640049444C4500BD
S9030000FC
