:10000000B2C00000D0C00000CEC00000CCC00000D4
:10001000CAC00000C8C00000C6C00000C4C00000C4
:10002000C2C00000BDC30000BEC00000BCC00000D4
:10003000BAC00000B8C00000B6C00000B4C00000E4
:10004000B2C00000B0C00000AEC00000ACC00000F4
:10005000AAC000000C94D40AA6C00000A4C00000EE
:10006000A2C0000081C70000EDC700009CC00000D6
:100070009AC00000A5C4000096C0000094C0000013
:1000800092C0000090C000008EC000008CC0000034
:1000900033C70000A1C7000086C0000084C0000074
:1000A00082C0000080C000007EC000007CC0000054
:1000B0007AC0000078C0000076C0000074C0000064
:1000C00072C0000070C000006EC000006CC0000074
:1000D0006AC0000068C0000066C0000064C0000084
:1000E00062C0000007634236B79BD8A71A3968562A
:1000F00018AEBAAB558C1D3CB7CC5763BD6DEDFD4A
:10010000753EF6177231BF000000803F0800000006
:10011000BE922449123EABAAAA2ABECDCCCC4C3EFC
:1001200000000080BEABAAAAAA3E00000000BF00EB
:100130000000803F0000000000084178D3BB4387E7
:10014000D1133D190E3CC3BD4282AD2B3E68EC82FB
:1001500076BED98FE1A93E4C80EFFFBE01C4FF7F80
:100160003F000000000011241FBECFEFD1E2DEBF30
:10017000CDBF00E00CBF12E0A0E0B2E0E0E7FEE29D
:1001800000E00BBF02C007900D92A833B107D9F76A
:1001900029E0A8E3B2E001C01D92A134B207E1F763
:1001A000DBD00C9436172CCF12E0D1E00E9442092C
:1001B000C82F0E942A09882329F00E94EA080E9479
:1001C0001F09F4CF8C2F0E943C09882319F00E944C
:1001D000EA08ECCF8091380281110BC08C2F0E946D
:1001E0003009882319F3F6D785E0C1D7D0933802B8
:1001F000DDCF813059F48C2F0E943609882319F005
:1002000010933802D3CF10923802D0CF823071F6DB
:10021000E1D7CCCFCF93DF9300D000D0CDB7DEB7FE
:10022000FAD7182F20E04FEF5FEFBE016A5F7F4FD4
:100230008091890890918A080E94F80C112331F16D
:100240008E81805D94D78AE092D720C020E04FEF66
:100250005FEFBE016F5F7F4F80918B0890918C089C
:100260000E94F80C89816CD787E092E0A5D7CE0177
:100270000296A2D78AE092E09FD7112339F08981B4
:1002800076D7CE0102968AD78AE071D79E812FEF6A
:10029000290F2E839111DACF8AE052D7C1CF7DD5B5
:1002A000BCD5FECF8FEF80937E00EFE7F0E090812A
:1002B0009360908380937D0008958CEC809364001C
:1002C0008EE380936500EECF089510928000109227
:1002D000810010926F001092B0001092B100109245
:1002E0007000109290001092910010927100109284
:1002F000A0001092A10010927200109220011092A2
:100300002101109273000895CF93CFB7F894DDDFE9
:10031000D4DFCED6EDD68CD383B3836083BBCBD270
:1003200040E061E085E00E94D30B90938A088093BF
:10033000890840E065E084E10E94D30B90938C082B
:1003400080938B086C9AE1E0F1E08081806180838A
:10035000CFBF7894CF910895CF93DF93CDB7DEB719
:1003600028970FB6F894DEBF0FBECDBFCDDFA12C0E
:10037000B12CC12CD12CCE0101967C0104E09C0152
:1003800049E650E06DE072E08FE491E00E944A0E91
:10039000CE0107967C0102E020E030E04DE651E01E
:1003A00065E172E085E892E00E944A0ECE01059672
:1003B0007C0103E020E030E047E850E06EE172E0CD
:1003C00084ED90E00E944A0ECE0103967C0101E08C
:1003D00020E030E047E850E06AE272E08AE091E035
:1003E0000E944A0E0E94AA0FC1CF9C01FB0164E645
:1003F00070E00E9406176115710521F080E3860FF9
:10040000808331964CE94603C001479F900D11242B
:10041000280F391FC9016AE070E00E94061780E3C7
:10042000860F80838AE0689F20191124205D218334
:10043000128208951F93CF93DF9300D01F921F92D3
:10044000CDB7DEB7182FCB01112389F0BE016E5F47
:100450007F4FCBDF198320E04FEF5FEFBE016F5F6F
:100460007F4F80918B0890918C080E94000C0F9018
:100470000F900F900F900F90DF91CF911F910895E3
:100480006F927F928F929F92AF92BF92CF92DF92A4
:10049000EF92FF920F931F93CF93DF931F92CDB7ED
:1004A000DEB789835B013A01490120E04FEF5FEF3E
:1004B000BE016F5F7F4F8091890890918A080E94EA
:1004C000000CB301F5018081B5DFB401F501818134
:1004D000B1DFB801F5018281ADDFB701F50183819C
:1004E000A9DFB601F5018481A5DF0F90DF91CF91DF
:1004F0001F910F91FF90EF90DF90CF90BF90AF9042
:100500009F908F907F906F900895CF93DF93CDB79A
:10051000DEB7A4970FB6F894DEBF0FBECDBF1B8227
:1005200086E0FE013496DF01982F1D929A95E9F737
:100530003696DF01982F1D929A95E9F73696DF01DE
:10054000982F1D929A95E9F73696DF011D928A95AC
:10055000E9F7369685E0DF011D928A95E9F784E296
:100560008ED39AA389A30E94D90F9A838983BED17F
:1005700083E21CD2BE016C5F7F4F0FD29CA38BA382
:10058000AFD187E213D2BE01665F7F4F06D23C0136
:1005900086E20CD2BE01605F7F4FFFD11C0185E275
:1005A00005D2BE016A5E7F4FF8D12C0184E267D389
:1005B0004C01BC01CE0181969BD3C9A0DAA05401A5
:1005C000EBA0FCA082019101AE01445E5F4F6B8104
:1005D000C30125D38B838E01045E1F4F9401A201BA
:1005E000B101C301A6D2BE016D5F7F4FC80108D320
:1005F000CBA0DCA0740182019101A301BE01645E65
:100600007F4F8B813DDF1B8218A21F8E1E8E1D8E99
:100610001C8E66E970E0CE0101960E942711A7CFDB
:10062000CF93DF93EC010E94D30F80913902909118
:100630003A02892B31F48EE392E090933A02809350
:10064000390240913B0250913C029E01240F351F1C
:100650002B3D85E0380770F44217530770F4C091C2
:100660003902D0913A02C40FD51F30933C02209337
:100670003B0205C0C0E0D0E002C0C0E0D0E00E9474
:10068000A610CE01DF91CF9108950895FC01039645
:10069000928381832FEF3FEF348323839683858377
:1006A0009087878310820895FC0111861086089533
:1006B000CF93DF939C01FB01DC011196CD91DC917E
:1006C0001297D383C2838C819D81958384838C818F
:1006D0009D81DC0113967C936E9312977D836C83CE
:1006E00031872087F90180818F5F8083DF91CF91EF
:1006F0000895CF93DF93EB01488159814F3F2FEF4E
:10070000520721F4FC01A781B0850DC0DC011396CE
:100710001296ED91FC911397208131814217530776
:1007200010F0DF01F5CF1296ED91FC911397FB834A
:10073000EA83D583C483BD83AC831396DC93CE93C5
:10074000129799878887FC0120812F5F2083DF9192
:10075000CF910895CF93DF93FC01A085B185C2812D
:10076000D381848195819D838C83C481D58182814D
:1007700093819B838A831196CD91DC911297CE173A
:10078000DF0731F48C819D8112969C938E93119793
:10079000118610868C9181508C93DF91CF910895B2
:1007A0001F920F920FB60F9211240BB60F922F9338
:1007B0003F934F935F936F937F938F939F93AF93E9
:1007C000BF93EF93FF931B9B0DC001D390E09093D9
:1007D0009208809391080E94E30F90938E08809373
:1007E0008D0856C01B9954C00E94E30F909398083F
:1007F0008093970820918D0830918E088217930777
:100800004CF48091970890919808019790939808DC
:1008100080939708DCD290E090939A08809399088F
:1008200020919108309192088217930754F4809197
:10083000990890919A0886509F4F90939A088093B8
:1008400099088091990890919A0820919108309187
:100850009208821B930B9093940880939308809145
:1008600097089091980820918D0830918E08821BEE
:10087000930B9093900880938F0820E040E050E025
:1008800060E070E080919508909196080E94BE0CFF
:10089000FF91EF91BF91AF919F918F917F916F9158
:1008A0005F914F913F912F910F900BBE0F900FBE14
:1008B0000F901F901895229A2398E8E6F0E0808127
:1008C00081608083EBE6F0E080818860808343E094
:1008D00060E081E068D7909396088093950808952A
:1008E000A19A89E190E075D2A1980895A09A89E132
:1008F00090E06FD2A0980895FC01808191812281BF
:1009000033812817390754F444815581421753071E
:1009100084F04817590774F4CA0108954481558139
:10092000481759073CF0CA01241735071CF4C901C0
:100930000895C90108959B01285F3F4F2817390783
:100940003CF0205131098217930714F0862F972F1E
:1009500008950F931F93CF93DF93EB010091000253
:1009600010E0F801EE0FFF1FE60FF71F60817181A5
:10097000E2DF9C01C801019663E070E00E94061767
:1009800080930002880F991FC80FD91F39832883CD
:10099000DF91CF911F910F910895CF93DF93EB01DA
:1009A000D8DFCE01A9DFDF91CF910895ABD09C01B4
:1009B00063E070E00E940617CB01820F931F089539
:1009C0001F920F920FB60F9211240BB60F922F9316
:1009D0003F934F935F936F937F938F939F93AF93C7
:1009E000BF93EF93FF938091780080939B08809151
:1009F000790080939C0820E040E050E060E070E0E7
:100A000080919F089091A008B9D7FF91EF91BF9175
:100A1000AF919F918F917F916F915F914F913F9196
:100A20002F910F900BBE0F900FBE0F901F90189537
:100A30008FE880937A0010927B0080E480937C00A2
:100A400043E060E081E0AFD69093A00880939F08D8
:100A500081E069D790939E0880939D0820E040E054
:100A600050E060E070E0CCC60895CF93C82F20E03E
:100A70004FEF5FEF60E070E080919D0890919E08DD
:100A8000B7D7ECE7F0E080819C2F9F718076892BAF
:100A90008083EBE7F0E02081C0728C2F90E0959589
:100AA000879595958795922F9076892B8083EAE795
:100AB000F0E0808180648083CF910895CF93DF93AD
:100AC00020E04FEF5FEF60E070E080919F08909131
:100AD000A0088ED7C0919C08C370D0E0DC2FCC2733
:100AE00080919B08C80FD11D20E040E050E060E0FD
:100AF00070E080919D0890919E0882D6CE01DF9192
:100B0000CF910895CF93C82FB0DF8C2FD7DFCF912F
:100B100008959C01245F3F4F2617370744F0285162
:100B2000310981E0621773071CF080E0089581E0CD
:100B300008950F931F93F8018381882339F0749AE5
:100B4000E2E0F1E080818061808357C0808188236A
:100B5000B1F18181811118C08281811124C0CB0142
:100B60000E96841795073CF47498A2E0B1E08C913E
:100B700080618C9306C0749AA2E0B1E08C918F7E64
:100B80008C9381818823B1F18281811136C0461B0B
:100B9000570B493051058CF17498E2E0F1E0808107
:100BA000806180832AC0641B750B693071052CF14C
:100BB000749AE2E0F1E080818F7E80831EC066320D
:100BC00071053CF47498E2E0F1E0808180618083FB
:100BD00014C0443151053CF4749AE2E0F1E08081A4
:100BE0008F7E80830AC07498E2E0F1E080818F7E7E
:100BF000808303C082818111D6CF1F910F91089508
:100C0000FC0185E0DB018C9386E480838CE48183A6
:100C100082E5828382E4838384E584830895AF92AE
:100C2000BF92CF92DF92FF920F931F93CF93DF93E8
:100C3000F62EEA01863491051CF4F39486E4888349
:100C40002E3131051CF4F3948CE489830E311105A7
:100C50001CF4F39482E58A83B501C6015ADF882328
:100C600019F0F39482E48B838F2DDF91CF911F9144
:100C70000F91FF90DF90CF90BF90AF90089542DF2B
:100C8000BC01882777FD8095982F0E944A1429E29D
:100C90003CE54FE65FEB0E94391522E538E646E277
:100CA00056E40E94D61420E030E040E251E40E9475
:100CB000B2130E941714CB01683E23E0720714F0B0
:100CC00087EE93E00895FB012081318150E0B90166
:100CD000640F751F681779074CF0241B350B41E032
:100CE000821793070CF040E0842F089581E0089567
:100CF0000F931F93CF93DF938C01EB0145E0BC0171
:100D0000CE01E1DF882329F080911D0881110AC0FE
:100D10003FC080911D08811105C0D0931A08C0936F
:100D200019082CC08A3099F445E069E178E0CE01D9
:100D3000CADF882339F0D0931A08C093190810929B
:100D40001D081CC0D0931C08C0931B0817C0843119
:100D5000A9F410921D0845E069E178E0CE01B3DF07
:100D6000882329F0D0931A08C093190807C08091EE
:100D7000190890911A08F8019183808380911D08C9
:100D800090E0019664E170E00E94061780931D08D0
:100D9000DF91CF911F910F9108959093A6088093B2
:100DA000A508FC01808191810E94FC1143E060E074
:100DB00081E0F9D49093A2088093A10843E060E019
:100DC00081E0F1D49093A4088093A308089586B598
:100DD000089546B550E09C01992314F42D5F3F4FD0
:100DE0003595279535952795240F351F30930402A7
:100DF00020930302E091A508F091A60880819181DB
:100E00000E945F0F20E042E050E060E070E08091DF
:100E1000A1089091A208ECC50895CF93DF93C6B5C1
:100E2000C11122C08091030290910402883893413D
:100E300051F080910302909104028A5F910990938E
:100E4000040280930302809101029091020288388B
:100E5000934151F080910102909102028A5F9109C1
:100E60009093020280930102D0E08091030290915E
:100E700004028C179D0784F488E893E190930402A0
:100E80008093030220E040E050E060E070E0809159
:100E9000A1089091A208B4D480910102909102021D
:100EA0008C179D0784F488E893E190930202809365
:100EB000010220E040E050E060E070E08091A30893
:100EC0009091A4089DD480910302909104028838E7
:100ED000934179F480910102909102028838934104
:100EE00041F4E091A508F091A608808191810E94CB
:100EF000FC11DF91CF9108951F920F920FB60F92C0
:100F000011240BB60F922F933F934F935F936F93E0
:100F10007F938F939F93AF93BF93EF93FF936091D2
:100F2000CE008CE399E03AD620E040E050E060E06B
:100F300070E0809130099091310920D58CE399E0DF
:100F400044D6FF91EF91BF91AF919F918F917F9187
:100F50006F915F914F913F912F910F900BBE0F902A
:100F60000FBE0F901F9018951F920F920FB60F9201
:100F700011240BB60F922F933F934F935F936F9370
:100F80007F938F939F93AF93BF93EF93FF93609162
:100F9000C60087EC98E002D620E040E050E060E038
:100FA00070E08091300990913109E8D487EC98E0A5
:100FB0000CD6FF91EF91BF91AF919F918F917F914F
:100FC0006F915F914F913F912F910F900BBE0F90BA
:100FD0000FBE0F901F9018951F920F920FB60F9291
:100FE00011240BB60F922F933F934F935F936F9300
:100FF0007F938F939F93AF93BF93EF93FF9382E37E
:1010000099E0EAD5882331F082E399E0B5D5809361
:10101000CE0005C0E9ECF0E080818F7D8083FF91F8
:10102000EF91BF91AF919F918F917F916F915F9160
:101030004F913F912F910F900BBE0F900FBE0F90CD
:101040001F9018951F920F920FB60F9211240BB696
:101050000F922F933F934F935F936F937F938F9351
:101060009F93AF93BF93EF93FF9387E399E0B4D53A
:10107000882331F087E399E07FD58093C60005C0CF
:10108000E1ECF0E080818F7D8083FF91EF91BF9153
:10109000AF919F918F917F916F915F914F913F9110
:1010A0002F910F900BBE0F900FBE0F901F901895B1
:1010B0001092C50087E68093C40088EB8093C1003E
:1010C00086E08093C20040E26EEE78E087EC98E024
:1010D00042D540E26CEC78E087E399E03CD543E010
:1010E00060E081E060D390932F0980932E090895EA
:1010F0001092CD0087E68093CC0088EB8093C900E6
:1011000086E08093CA0040E267EA78E08CE399E0E9
:1011100022D540E26EE079E082E399E01CD543E01D
:1011200060E081E040D3909331098093300943E03F
:1011300060E081E038D39093ED088093EC08089547
:10114000CF93C82F87E399E040D58111FBCF6C2F57
:1011500087E399E023D5E1ECF0E080818062808331
:10116000E0ECF0E0808180648083CF910895CF939C
:10117000C82F82E399E029D58111FBCF6C2F82E340
:1011800099E00CD5E9ECF0E0808180628083E8ECA6
:10119000F0E0808180648083CF910895CF93DF93C6
:1011A000EC018881882329F02196E1DF8991811162
:1011B000FCCFDF91CF910895CF93DF93EC0188812D
:1011C000882329F02196BCDF89918111FCCFDF9122
:1011D000CF910895CF9320E04FEF5FEF60E070E094
:1011E000809130099091310903D48CE399E0C4D403
:1011F000C82F8CE399E0F0D4882351F020E040E040
:1012000050E060E070E08091300990913109F8D2AF
:101210008C2FCF91089586E1AADF20E04AEF50E0BD
:1012200060E070E08091EC089091ED08E1D38130AE
:1012300021F482E09CDF81E0089580E0089520E0C1
:1012400040E050E060E070E08091EC089091ED08A3
:10125000D7C2089591E0853009F090E0892F089574
:1012600091E0863109F090E0892F089591E0823075
:1012700009F090E0892F089591E0863009F090E020
:10128000892F0895CF9320E04FEF5FEF60E070E08B
:101290008091300990913109ABD38CE399E062D40D
:1012A000C82F8CE399E098D4882351F020E040E0E7
:1012B00050E060E070E08091300990913109A0D257
:1012C0008C2FCF91089531E1FC013083319722E2D8
:1012D00020833197A3E3A083319760833197708394
:1012E0003197108231971082319760E8608331978F
:1012F00010823197108231971082319762E06083BB
:10130000319763E06083319764E06083319765E0F3
:101310006083319766E06083319767E0608331973F
:1013200068E06083319769E06083319760E16083B2
:1013300031973083319732E13083319733E1308315
:10134000319734E13083319735E13083319736E19D
:101350003083319737E13083319738E130833197EB
:1013600039E13083319730E23083319731E2308395
:1013700031972083319723E220833197408331973F
:101380005083319726E22083319727E220833197DB
:1013900028E22083319729E22083319720E32083BC
:1013A000319721E320838997089582E084BD16BC9C
:1013B00080E387BDEEE6F0E080818260808383E099
:1013C00085BDA0918708B0918808CD91CDBFDD91F2
:1013D000DEBFFF91EF91DF91CF91BF91AF919F91D0
:1013E0008F917F916F915F914F913F912F911F91BD
:1013F0000F91FF90EF90DF90CF90BF90AF909F90B4
:101400008F907F906F905F904F903F902F901F90A4
:101410000F900CBE0F900BBE0F900FBE0F90089553
:1014200081E008950F920FB6F8940F920BB60F92C9
:101430000CB60F921F9211242F923F924F925F92FF
:101440006F927F928F929F92AF92BF92CF92DF92D4
:10145000EF92FF920F931F932F933F934F935F93BE
:101460006F937F938F939F93AF93BF93CF93DF93AC
:10147000EF93FF93A0918708B09188080DB60D9265
:101480000EB60D925BD7A0918708B0918808CD91D8
:10149000CDBFDD91DEBFFF91EF91DF91CF91BF9185
:1014A000AF919F918F917F916F915F914F913F91FC
:1014B0002F911F910F91FF90EF90DF90CF90BF90F1
:1014C000AF909F908F907F906F905F904F903F90E4
:1014D0002F901F900F900CBE0F900BBE0F900FBE61
:1014E0000F9008950F920FB6F8940F920BB60F92CB
:1014F0000CB60F921F9211242F923F924F925F923F
:101500006F927F928F929F92AF92BF92CF92DF9213
:10151000EF92FF920F931F932F933F934F935F93FD
:101520006F937F938F939F93AF93BF93CF93DF93EB
:10153000EF93FF93A0918708B09188080DB60D92A4
:101540000EB60D9245D58111F9D6A0918708B091BC
:101550008808CD91CDBFDD91DEBFFF91EF91DF9186
:10156000CF91BF91AF919F918F917F916F915F913B
:101570004F913F912F911F910F91FF90EF90DF902E
:10158000CF90BF90AF909F908F907F906F905F9023
:101590004F903F902F901F900F900CBE0F900BBE5E
:1015A0000F900FBE0F9008959DDF18951F93CF9356
:1015B000DF93EC01142F8C8D81110CC088819981EF
:1015C000892B09F047C08A819B810E9461131B828D
:1015D0001A8247C0411118C0482F50E08C819D816C
:1015E0000E942D172C8D8C819D81820F911D9D83D2
:1015F0008C832A813B818217930770F188819981BE
:101600009D838C8380E02DC0482F50E08E819F8188
:101610000E942D172C8D30E03195219531098E8156
:101620009F81820F931F9F838E83688179818617A4
:10163000970730F48A819B81280F391F3F832E83BF
:10164000123061F48A8D882359F08A8D81508A8FF7
:1016500080E007C080E005C080E003C080E001C0FA
:1016600080E09A8D9F5F9A8FDF91CF911F910895AF
:10167000FC01CB01448D4423A1F050E02681378149
:10168000240F351F3783268362817381261737071E
:1016900020F02081318137832683668177810C9405
:1016A0002D1708950F931F93CF93DF93EC010FB67F
:1016B000F8940F928E8D1816A4F48989882389F0E6
:1016C0008E010F5E1F4F03C08989882351F0C80126
:1016D0000BD7811194D78E8D81508E8F8E8D1816D9
:1016E0009CF38FEF8E8F0F900FBE0FB6F8940F9272
:1016F0008D8D1816A4F48885882389F08E01085FE3
:101700001F4F03C08885882351F0C801EDD6811191
:1017100076D78D8D81508D8F8D8D18169CF38FEF20
:101720008D8F0F900FBEDF91CF911F910F91089574
:10173000CF93DF93EC010FB6F8940F9288819981D3
:101740002C8D30E07B8D729FA001739F500D112472
:10175000FC01E40FF51FFB83EA831A8E9D838C83C3
:10176000421B530B840F951F9F838E838FEF8D8FAA
:101770008E8F61110AC08885882379F0CE01089682
:10178000B3D6813051F44EDE08C0CE0108960E94D7
:101790004603CE0141960E9446030F900FBE81E0A2
:1017A000DF91CF9108950F931F93CF93DF93182F5D
:1017B000062F8823E9F08FE190E00E941003EC01EE
:1017C0000097C1F0109FC001112401960E941003E0
:1017D00099838883892B31F01B8F0C8F61E0CE01B8
:1017E000A7DF08C0CE010E944503C0E0D0E002C0E0
:1017F000C0E0D0E0CE01DF91CF911F910F9108950D
:101800009F92AF92BF92CF92DF92EF92FF920F938F
:101810001F93CF93DF9300D01F921F92CDB7DEB7F7
:101820008C016B015D834C83A22EB12C992493947F
:101830007C0188E0E80EF11C0FB6F8940F92F801D5
:10184000928D838D981718F0F2E0AF1215C04A2DD3
:10185000B601C801ABDEF8019189992339F0C801BE
:10186000419642D6813021F4DDDD02C08111DADDFE
:101870000F900FBE81E046C0EC81FD81EF2B21F47B
:101880000F900FBE80E03EC0B11004C0CE010196A3
:1018900073D6B92C0F900FBE86D30FB6F8940F9263
:1018A000F801858D8F3F09F4158EF801868D8F3FE5
:1018B00009F4168E0F900FBEBE016C5F7F4FCE01F4
:1018C000019665D681111AC00FB6F8940F92F801EF
:1018D000928D0F900FBEF801838D98130BC06C8111
:1018E0007D81C701D6D5C801DDDE30D48111A4CFFA
:1018F00099DDA2CFC801D6DE29D49ECFC801D2DEA1
:1019000025D480E00F900F900F900F900F90DF91F3
:10191000CF911F910F91FF90EF90DF90CF90BF90EC
:10192000AF909F900895CF93DF938FE190E00E9456
:101930001003EC010097F1F01B821A8219821882C1
:101940001D821C821F821E821A8E81E08B8F1C8E4C
:101950008FEF8D8F8E8FCE0108960E944603CE01A9
:1019600041960E94460320E040E050E060E070E0D5
:10197000CE0146DFCE01DF91CF9108950F931F93E3
:10198000CF93DF93EC018A019A8D8B8D981710F01D
:10199000223011F5422FCE0109DE882331F00115E6
:1019A000110519F081E0F80180838E8D8F3F79F465
:1019B0008989882399F0CE01419696D5882381F0B4
:1019C0000115110579F081E0F80180830CC08E8D3E
:1019D0008F5F8E8F81E007C080E005C081E003C08B
:1019E00081E001C081E0DF91CF911F910F910895B7
:1019F0009F92AF92BF92CF92DF92EF92FF920F939E
:101A00001F93CF93DF9300D01F921F92CDB7DEB705
:101A10008C016B015D834C83B22EA12C992493948D
:101A20007C0181E1E80EF11C0FB6F8940F92F801E9
:101A3000828D882369F1E680F780B601C80118DE3F
:101A4000B11017C0F801828D8150828F8081918101
:101A5000892B21F475D6F80193838283F801808560
:101A6000882391F0C80108963FD5813069F4DADC0B
:101A70000BC0F801F782E6828189882329F0C8012A
:101A8000419632D58111CEDC0F900FBE81E052C05D
:101A90004C815D81452B21F40F900FBE80E04AC040
:101AA000A11004C0CE01019667D5A92C0F900FBEDE
:101AB0007AD20FB6F8940F92F801858D8F3F09F412
:101AC000158EF801868D8F3F09F4168E0F900FBE8C
:101AD000BE016C5F7F4FCE01019659D5811126C0A2
:101AE0000FB6F8940F92F801828D0F900FBE8111FE
:101AF00019C0F80180819181892B49F40FB6F894BF
:101B00000F92F801828193817ED50F900FBE6C8178
:101B10007D81C701BED4C801C5DD18D3811184CF32
:101B200081DC82CFC801BEDD11D37ECFC801BADD12
:101B30000DD380E00F900F900F900F900F90DF91DA
:101B4000CF911F910F91FF90EF90DF90CF90BF90BA
:101B5000AF909F900895FC0171836083428314824B
:101B600013820895DC0114962C911497ED91FC9149
:101B7000E20FF11D80810895FC019481A081B18163
:101B8000A90FB11D8C919F5F94832281921710F051
:101B9000921B94839381915093830895FC01462F67
:101BA00083812281821780F4348190E0830F911D1C
:101BB000622F70E00E940617A081B181A80FB91FA3
:101BC0004C9383818F5F83830895FC0181E02281A0
:101BD0009381291380E0089521E0FC018381811124
:101BE00001C020E0822F0895E0914608F091470857
:101BF0008081811107C08FEF9FEF90930602809341
:101C000005020895E0914608F09147080580F681A5
:101C1000E02D0680F781E02D82819381909306026A
:101C2000809305020895CF93DF93EC01E09187083C
:101C3000F0918808938382838091250890912608EB
:101C4000C817D90768F46091870870918808809157
:101C50004408909145086E5F7F4F0E94790317C03A
:101C60006091870870918808809146089091470894
:101C70006E5F7F4F0E94790380910502909106026A
:101C8000C817D90720F4D0930602C0930502DF914C
:101C9000CF9108954F925F926F927F928F929F9211
:101CA000AF92BF92CF92DF92EF92FF920F931F936A
:101CB000CF93DF934C015B012A01390183E290E06D
:101CC0000E941003EC01009709F4E7C0C114D1048D
:101CD00009F0CCC0C2010E941003988F8F8B892B12
:101CE00009F0C6C0CE010E944503D7C0CF01319193
:101CF000DA013D93AD01DC018C91882311F0215074
:101D0000A9F718A2102F053008F014E01E8B19A3B4
:101D10001AA25E01B2E0AB0EB11CC5010E945403D1
:101D2000CE010C960E945403D987C88785E090E0C5
:101D3000811B91099D878C87DB8BCA8BA301B40122
:101D4000C601C1DA99838883E114F10419F0F7011F
:101D5000D183C0830FB6F8940F92809127088F5FCC
:101D6000809327088091870890918808892B09F033
:101D70003FC0D0938808C09387088091270881309E
:101D800009F045C00F2EFAE5EF2EF8E0FF2EF02DFA
:101D90000F2EF7E8CF2EF8E0DF2EF02DC7010E94BE
:101DA0004603F9E0EF0EF11CEC14FD04B9F781E5F0
:101DB00098E00E94460388E498E00E9446038BE383
:101DC00098E00E94460382E398E00E94460388E27E
:101DD00098E00E94460381E598E09093470880933D
:101DE000460888E498E090934508809344080FC023
:101DF0008091230881110BC0E0918708F091880839
:101E00008689081720F0D0938808C09387088091AE
:101E10001F088F5F80931F088E8990912408981760
:101E200010F48093240890E09C01220F331F220FAE
:101E3000331F220F331F820F931FB501865A974F0E
:101E40000E9458030F900FBE80912308882351F001
:101E5000E0918708F09188088689801728F4E2DAF3
:101E600081E01CC081E01AC081E018C0D88ECF8A02
:101E700081E0481A5108CF88D88CC40CD51CD501F4
:101E80008C91898F8C91882309F43BCFAE01465EFB
:101E90005F4FF501319627E029CF8FEFDF91CF918A
:101EA0001F910F91FF90EF90DF90CF90BF90AF9078
:101EB0009F908F907F906F905F904F9008950F93B9
:101EC0001F93CF93DF93EC01009709F43EC08091FC
:101ED000870890918808C817D907B9F10FB6F89408
:101EE0000F928A859B858852984069F58C899D89D7
:101EF00028E08B33920739F1892B29F58E010E5F8B
:101F00001F4FC8010E94AA038E8990912408981738
:101F100010F48093240890E09C01220F331F220FBD
:101F2000331F220F331F820F931FB801865A974F1A
:101F30000E945803E0918708F09188089E8986895D
:101F4000981708F06FDA0F900FBEDF91CF911F91B5
:101F50000F910895AF92BF92CF92DF92EF92FF92CE
:101F60000F93A12CB12CC12CD12CE12CF12C00E031
:101F700020E030E045E550E063E372E085E691E182
:101F800089DE813041F4F89480932308109226086A
:101F9000109225080ADA0F91FF90EF90DF90CF9012
:101FA000BF90AF90089580911E088F5F80931E08A8
:101FB00008950FB6F8940F92809125089091260805
:101FC0000F900FBE089580912508909126080895DE
:101FD000CF92DF92EF92FF920F931F93CF93DF93F5
:101FE00080911E08811199C0809125089091260842
:101FF00001969093260880932508E0902508F0909C
:102000002608E114F104B1F4809146089091470844
:1020100020914408309145083093470820934608A2
:102020009093450880934408809120088F5F8093A7
:102030002008DADD8091050290910602E816F90683
:1020400008F454C0D12CCC24C39401C0DC2CE09102
:102050004608F09147088081811107C08FEF9FEFFC
:10206000909306028093050242C0E0914608F091E9
:1020700047080580F681E02DC681D7812A813B8102
:10208000E216F30628F430930602209305022FC0CF
:102090008E010E5F1F4FC8010E94AA038C899D8983
:1020A000892B21F0CE010C960E94AA032E898091E3
:1020B0002408821710F42093240830E0C901880F07
:1020C000991F880F991F880F991F820F931FB801BE
:1020D000865A974F0E945803E0918708F09188082C
:1020E0009E898689981708F0B1CFB1CFD12CE091A5
:1020F0008708F0918808868990E0FC01EE0FFF1FA9
:10210000EE0FFF1FEE0FFF1F8E0F9F1FFC01E65A01
:10211000F74F8081823040F409C0809122088F5FA0
:1021200080932208D12C02C0DD24D3948091210811
:10213000882311F0DD24D3948D2DDF91CF911F9151
:102140000F91FF90EF90DF90CF900895DF92EF9284
:10215000FF920F931F93CF93DF930FB6F8940F92D4
:1021600080911E08815080931E0880911E08811165
:102170005FC080912708882309F45CC00F2EFBE321
:10218000EF2EF8E0FF2EF02DDD24D39430C0E09147
:102190004008F0914108C681D781CE010C960E947B
:1021A000AA038E010E5F1F4FC8010E94AA038E89E9
:1021B00090912408981710F48093240890E09C01D3
:1021C000220F331F220F331F220F331F820F931F43
:1021D000B801865A974F0E945803E0918708F09102
:1021E00088089E898689981710F0D0922108F701F7
:1021F00080818111CCCF80912208882391F0809139
:102200002208882371F0C1E0E3DE8111C093210828
:1022100080912208815080932208809122088111A8
:10222000F3CF80912108813039F4FCD881E005C0DA
:1022300080E003C080E001C080E00F900FBEDF911E
:10224000CF911F910F91FF90EF90DF9008950F9322
:102250001F93CF93DF938C01EB01A5DE80912508BE
:1022600090912608F80120813181C20FD31F821777
:10227000930748F4C217D307F8F4D183C0838C17AF
:102280009D0788F407C0C217D30790F08C179D07ED
:1022900078F012C0809187089091880802960E9479
:1022A000AA03CE01C0DC52DF81110AC0BBD808C02E
:1022B000F801D183C083EECFF801D183C083F3CF7F
:1022C000DF91CF911F910F9108950F2EFAE5EF2E18
:1022D000F8E0FF2EF02DC2E3D8E026C064DE1881BE
:1022E00035DF112309F10FB6F8940F92E09137080A
:1022F000F091380806811781C80102960E94AA034E
:10230000809127088150809327088091310881505F
:10231000809331080F900FBEF8018789908D0E943D
:102320004503C8010E944503809131088111D6CF31
:10233000F70180818230C0F375D8F6CF80911E08F6
:10234000882321F081E080932108089510922108CC
:102350008091240890E0FC01EE0FFF1FEE0FFF1F9D
:10236000EE0FFF1F8E0F9F1FFC01E65AF74F808173
:10237000811117C080912408815080932408809196
:10238000240890E0FC01EE0FFF1FEE0FFF1FEE0F81
:10239000FF1F8E0F9F1FFC01E65AF74F8081882395
:1023A00049F3E0912408F0E0CF01880F991F880FCE
:1023B000991F880F991FE80FF91FE65AF74FA1815F
:1023C000B28112960D90BC91A02DB283A183CF0152
:1023D0000396A817B90731F412968D919C91139723
:1023E000928381830180F281E02D86819781909391
:1023F00088088093870808950F931F93CF93DF93E6
:10240000EC010FB6F8940F92009721F4C091870861
:10241000D09188088E010E5F1F4FC8010E94AA0349
:102420008C899D89892B21F0CE010C960E94AA03EC
:10243000B80188E298E00E9458030F900FBE809187
:10244000870890918808C817D907A1F480912308BC
:10245000882319F00E94120A17C0809127089091D2
:102460002808981305C010928808109287080CC09D
:1024700065DF0AC080912308882331F00FB6F894F5
:102480000F92B2DB0F900FBEDF91CF911F910F9192
:102490000895CF93DF93EB016091870870918808CE
:1024A000645F7F4F0E94790380918708909188082C
:1024B00002960E94AA03CF3F8FEFD80759F460918C
:1024C0008708709188086E5F7F4F88E298E00E94CD
:1024D000580307C080912508909126088C0F9D1FF6
:1024E000A2DBDF91CF9108950F931F93CF93DF93DA
:1024F000DC011596ED91FC911697C681D7818E016E
:10250000045F1F4FC8010E94AA0380911E08811119
:102510001CC00A501109C8010E94AA038E8990911B
:102520002408981710F48093240890E09C01220F4F
:10253000331F220F331F220F331F820F931FB80147
:10254000865A974F0E94580305C0B8018BE398E064
:102550000E945803E0918708F09188089E89868937
:10256000891720F481E08093210801C080E0DF9189
:10257000CF911F910F91089520912008FC01208395
:1025800020912508309126083283218308950FB6C3
:10259000F8940F924091250850912608DB012D9167
:1025A0003C912F3FBFEF3B0711F1E0912008DC0188
:1025B000FC91FE1739F01196ED91FC9112974E1790
:1025C0005F07B8F4DC011196ED91FC911297DA01E6
:1025D000AE1BBF0BA217B30770F4E41BF50B2E0F55
:1025E0003F1FFB0131832083C7DF80E005C080E00F
:1025F00003C081E001C081E00F900FBE089581E02B
:102600008093210808950F931F93CF93DF93EC01DC
:10261000009709F451C08E89E0918708F0918808ED
:102620009689891708F048C02C853D8533235CF0D6
:10263000E0918708F0918808968925E030E0291B11
:1026400031093D872C8790E09C01220F331F220F18
:10265000331F220F331F820F931F865A974F2A85ED
:102660003B852817390711F58E010E5F1F4FC801F2
:102670000E94AA03E0918708F091880886898E8BD2
:1026800090912408981710F48093240890E09C01FE
:10269000220F331F220F331F220F331F820F931F6E
:1026A000B801865A974F0E94580306C0E0918708E8
:1026B000F091880886898E8BDF91CF911F910F91C1
:1026C00008950F931F93CF93DF93EC01009771F15F
:1026D0008AA181508AA32E8999A1291749F18111D4
:1026E00029C08E010E5F1F4FC8010E94AA0389A155
:1026F0008E8B25E030E0281B31093D872C87909197
:102700002408981710F48093240890E09C01220F6D
:10271000331F220F331F220F331F820F931FB80165
:10272000865A974F0E94580381E005C080E003C09D
:1027300080E001C080E0DF91CF911F910F9108955B
:102740008091870890918808892B39F0E09187085B
:10275000F091880882A18F5F82A380918708909171
:10276000880808955058BB27AA270ED0E5C0D6D0B8
:1027700030F0DBD020F031F49F3F11F41EF4CBC0D9
:102780000EF4E095E7FBC1C0E92FE7D080F3BA175C
:10279000620773078407950718F071F49EF5FFC070
:1027A0000EF4E0950B2EBA2FA02D0B01B90190016C
:1027B0000C01CA01A0011124FF27591B99F0593FB0
:1027C00050F4503E68F11A16F040A22F232F342FF8
:1027D0004427585FF3CF469537952795A795F04046
:1027E0005395C9F77EF41F16BA0B620B730B840B5B
:1027F000BAF09150A1F0FF0FBB1F661F771F881F13
:10280000C2F70EC0BA0F621F731F841F48F487956A
:1028100077956795B795F7959E3F08F0B3CF939559
:10282000880F08F09927EE0F97958795089504D0A3
:102830006894B111B5C0089598D088F09F5790F072
:10284000B92F9927B751A0F0D1F0660F771F881FD5
:10285000991F1AF0BA95C9F712C0B13081F09FD014
:10286000B1E008959CC0672F782F8827B85F39F0B2
:10287000B93FCCF3869577956795B395D9F73EF434
:1028800090958095709561957F4F8F4F9F4F0895DC
:10289000E89409C097FB3EF49095809570956195FA
:1028A0007F4F8F4F9F4F9923A9F0F92F96E9BB27B0
:1028B0009395F695879577956795B795F111F8CF2C
:1028C000FAF4BB0F11F460FF1BC06F5F7F4F8F4F97
:1028D0009F4F16C0882311F096E911C0772321F08D
:1028E0009EE8872F762F05C0662371F096E8862F25
:1028F00070E060E02AF09A95660F771F881FDAF77C
:10290000880F9695879597F9089597F99F6780E8BE
:1029100070E060E008959FEF80EC089500240A9431
:102920001616170618060906089500240A941216AA
:102930001306140605060895092E0394000C11F4DD
:10294000882352F0BB0F40F4BF2B11F460FF04C08A
:102950006F5F7F4F8F4F9F4F089557FD9058440FE3
:10296000551F59F05F3F71F04795880F97FB991FEE
:1029700061F09F3F79F087950895121613061406AB
:10298000551FF2CF4695F1DF08C016161706180638
:10299000991FF1CF86957105610508940895E89413
:1029A000BB2766277727CB0197F908950BD0C4CFB3
:1029B000B5DF28F0BADF18F0952309F0A6CFABCF2A
:1029C0001124EECFCADFA0F3959FD1F3950F50E00D
:1029D000551F629FF001729FBB27F00DB11D639FD1
:1029E000AA27F00DB11DAA1F649F6627B00DA11D77
:1029F000661F829F2227B00DA11D621F739FB00D1D
:102A0000A11D621F839FA00D611D221F749F33278C
:102A1000A00D611D231F849F600D211D822F762F25
:102A20006A2F11249F5750408AF0E1F088234AF022
:102A3000EE0FFF1FBB1F661F771F881F915050406E
:102A4000A9F79E3F510570F060CFAACF5F3FECF32E
:102A5000983EDCF3869577956795B795F795E7955A
:102A60009F5FC1F7FE2B880F911D9695879597F96B
:102A70000895FA01EE0FFF1F30962105310599F1F7
:102A80006115710561F48038BFE39B0749F16894D3
:102A90009038810561F08038BFEF9B0741F09923A2
:102AA00042F5FF3FE1053105210511F1E894089455
:102AB000E795D901AA2329F4AB2FBE2FF85FD0F3F5
:102AC00010C0FF5F70F4A695E0F7F73950F019F0E9
:102AD000FF3A38F49F779F930CD00F9007FC9058E3
:102AE00008953EF018CF60E070E080E89FE308951D
:102AF0004FE79F775F934F933F932F939ED02F91F4
:102B00003F914F915F9152DF05C019F40EF0FDCE59
:102B100046CF01CF2ADFC8F39638C0F707F80F92E7
:102B2000E8942BE33AEA48EB5FE74EDF0F920F920F
:102B30000F924DB75EB70F92C0D0E4EEF0E016D022
:102B40004F915F91EF91FF91E595EE1FFF1F49F0C7
:102B5000FE57E0684427EE0F441FFA95E1F74195D0
:102B6000550B32D00F9007FE26C00895DF93CF9308
:102B70001F930F93FF92EF92DF927B018C01689479
:102B800005C0DA2EEF011EDFFE01E894A591259124
:102B9000359145915591AEF3EF01F6DDFE019701B8
:102BA000A801DA9479F7DF90EF90FF900F911F91D1
:102BB000CF91DF9108959B01AC0160E070E080E867
:102BC0009FE3AEC0A2CE14C1D0DEE8F39923D9F3BF
:102BD000940F511DBBF39150504094F059F088234D
:102BE00032F0660F771F881F91505040C1F79E3F0B
:102BF000510544F7880F911D9695879597F908958B
:102C00005F3FACF0983E9CF0BB2786957795679523
:102C1000B79508F4B1609395C1F7BB0F58F711F45D
:102C200060FFE8CF6F5F7F4F8F4F9F4FE3CFB8CEEE
:102C30000EF0DEC070CE689468CE97DEC8F399239C
:102C4000D1F3C6F3DF93CF931F930F93FF92C92F56
:102C5000DD2788232AF02197660F771F881FDAF770
:102C600020E030E040E85FEB9FE3883920F0803ED1
:102C700030F021968F7777DDECE0F1E003C073DD73
:102C8000E9E3F1E073DF8B01BE01EC01FB2E6F572E
:102C900071097595771F880B990BFCDD28E132E7E8
:102CA00041E35FE38FDEAF2D9801AE01FF900F91FE
:102CB0001F91CF91DF9168DD3FCEFA01DC01AA0FB1
:102CC000BB1F9B01AC01BF5728F4222733274427A1
:102CD00050781FC0B75188F4AB2F00244695379524
:102CE0002795011CA395D2F3002069F0220F331F12
:102CF000441FB395DAF30DD035CD61307105A0E8EE
:102D00008A07B94630F49B01AC01662777278827EC
:102D10009078309621F02083318342835383089545
:102D20000CD00ACE02DE40F0F9DD30F021F45F3F36
:102D300019F0EBCD511134CEEECD0FDE98F399237F
:102D4000C9F35523B1F3951B550BBB27AA2762176F
:102D50007307840738F09F5F5F4F220F331F441FB4
:102D6000AA1FA9F333D00E2E3AF0E0E830D09150EC
:102D70005040E695001CCAF729D0FE2F27D0660FD9
:102D8000771F881FBB1F261737074807AB07B0E818
:102D900009F0BB0B802DBF01FF2793585F4F2AF02E
:102DA0009E3F510568F0B1CDFBCD5F3FECF3983EFF
:102DB000DCF3869577956795B795F7959F5FC9F78B
:102DC000880F911D9695879597F90895E1E0660F14
:102DD000771F881FBB1F621773078407BA0720F08D
:102DE000621B730B840BBA0BEE1F88F7E0950895F6
:102DF0009F3F31F0915020F4879577956795B7956F
:102E0000880F911D9695879597F9089597FB072E42
:102E100016F4009406D077FD08D00BD007FC05D03F
:102E20003EF4909581959F4F0895709561957F4FE1
:102E30000895AA1BBB1B51E107C0AA1FBB1FA61701
:102E4000B70710F0A61BB70B881F991F5A95A9F753
:102E500080959095BC01CD010895FB01DC0102C075
:102E600001900D9241505040D8F70895F894FFCF4B
:102E70000388138813FFFF3A20002C20006D79543B
:102E8000696D6572006D6178536F6E6172005250AA
:102E9000495F52656365697665005250495F5365C5
:082EA0006E640049444C45003A
:00000001FF
