:10000000B2C00000D0C00000CEC00000CCC00000D4
:10001000CAC00000C8C00000C6C00000C4C00000C4
:10002000C2C00000C4C30000BEC00000BCC00000CD
:10003000BAC00000B8C00000B6C00000B4C00000E4
:10004000B2C00000B0C00000AEC00000ACC00000F4
:10005000AAC000000C944B0BA6C00000A4C0000076
:10006000A2C00000E5C700000C9490089CC00000EE
:100070009AC000009FC4000096C0000094C0000019
:1000800092C0000090C000008EC000008CC0000034
:1000900097C700000C94500886C0000084C0000080
:1000A00082C0000080C000007EC000007CC0000054
:1000B0007AC0000078C0000076C0000074C0000064
:1000C00072C0000070C000006EC000006CC0000074
:1000D0006AC0000068C0000066C0000064C0000084
:1000E00062C0000007634236B79BD8A71A3968562A
:1000F00018AEBAAB558C1D3CB7CC5763BD6DEDFD4A
:10010000753EF6177231BF000000803F0800000006
:10011000BE922449123EABAAAA2ABECDCCCC4C3EFC
:1001200000000080BEABAAAAAA3E00000000BF00EB
:100130000000803F0000000000084178D3BB4387E7
:10014000D1133D190E3CC3BD4282AD2B3E68EC82FB
:1001500076BED98FE1A93E4C80EFFFBE01C4FF7F80
:100160003F000000000011241FBECFEFD1E2DEBF30
:10017000CDBF00E00CBF12E0A0E0B2E0EAE4FFE295
:1001800000E00BBF02C007900D92A833B107D9F76A
:1001900029E0A8E3B2E001C01D92A334B207E1F761
:1001A000E0D00C94A3172CCF12E0D1E00E9482097A
:1001B000C82F0E94C209882319F00E94B709F6CF00
:1001C0008C2F0E94D4098111F1CF809138028111C6
:1001D0000BC08C2F0E94C809882341F385E00E9440
:1001E0004509D0933802E2CF813059F48C2F0E9418
:1001F000CE09882319F010933802D8CF1092380214
:10020000D5CF823099F6C83189F610923802CECF18
:10021000CF93DF9300D000D0CDB7DEB70E94A30903
:10022000182F20E04FEF5FEFBE016A5F7F4F809194
:100230009108909192080E946F0D112369F18E81AF
:10024000805D0E9445098AE00E94450925C020E0A2
:100250004FEF5FEFBE016F5F7F4F809193089091EA
:1002600094080E946F0D8981EFD787E092E00E9489
:100270007409CE0102960E9474098AE092E00E94FD
:100280007409112349F089810E944509CE01029623
:100290000E9466098AE0F9D79E812FEF290F2E83ED
:1002A0009111D5CF8AE0D0D7B9CFB7D51AD6FECF26
:1002B0008FEF80937E00EFE7F0E090819360908372
:1002C00080937D0008958CEC809364008EE380938E
:1002D0006500EECF08951092800010928100109278
:1002E0006F001092B0001092B10010927000109246
:1002F000900010929100109271001092A000109244
:10030000A10010927200109220011092210110920F
:1003100073000895CF93CFB7F894DDDFD4DF40D7D3
:1003200065D781D383B3836083BB40E061E085E020
:100330000E944A0C909392088093910840E065E0F7
:1003400084E10E944A0C90939408809393086C9ADD
:10035000E1E0F1E0808180618083CFBF7894CF912C
:100360000895CF93DF93CDB7DEB728970FB6F894F3
:10037000DEBF0FBECDBFCEDFA12CB12CC12CD12C46
:10038000CE0101967C0104E09C0149E650E06DE05D
:1003900072E085E591E00E94B70ECE0107967C01E0
:1003A00002E020E030E04DE651E065E172E08AE8ED
:1003B00092E00E94B70ECE0105967C0103E020E09A
:1003C00030E047E850E06EE172E084ED90E00E949A
:1003D000B70ECE0103967C0101E020E030E047E853
:1003E00050E06AE272E088E091E00E94B70E0E945D
:1003F0001710C1CF9C01FB0164E670E00E947317E7
:100400006115710521F080E3860F808331964CE9F8
:100410004603C001479F900D1124280F391FC901C1
:100420006AE070E00E94731780E3860F80838AE0A1
:10043000689F20191124205D2183128208951F9343
:10044000CF93DF9300D01F921F92CDB7DEB7182F46
:10045000CB01112389F0BE016E5F7F4FCBDF198383
:1004600020E04FEF5FEFBE016F5F7F4F80919308F9
:10047000909194080E94770C0F900F900F900F901E
:100480000F90DF91CF911F9108956F927F928F927D
:100490009F92AF92BF92CF92DF92EF92FF920F9313
:1004A0001F93CF93DF931F92CDB7DEB789835B0194
:1004B0003A01490120E04FEF5FEFBE016F5F7F4FD0
:1004C00080919108909192080E94770CB301F501F8
:1004D0008081B5DFB401F5018181B1DFB801F5019B
:1004E0008281ADDFB701F5018381A9DFB601F50196
:1004F0008481A5DF0F90DF91CF911F910F91FF9025
:10050000EF90DF90CF90BF90AF909F908F907F90B3
:100510006F900895CF93DF93CDB7DEB7A4970FB652
:10052000F894DEBF0FBECDBF1B8286E0FE0134967D
:10053000DF01982F1D929A95E9F73696DF01982FE3
:100540001D929A95E9F73696DF01982F1D929A959C
:10055000E9F73696DF011D928A95E9F7369685E030
:10056000DF011D928A95E9F784E2B7D39AA389A3A4
:100570000E9446109A838983A5D187E209D2BE01E1
:10058000665F7F4FFCD13C0186E202D2BE01605F14
:100590007F4FF5D11C0185E2FBD1BE016A5E7F4F22
:1005A000EED12C0195D183E2F3D1BE016C5F7F4F78
:1005B000E6D19CA38BA384E290D34C01BC01CE0175
:1005C0008196C4D3C9A0DAA05401EBA0FCA082019B
:1005D0009101AE01445E5F4F6B81C30144D38B83B5
:1005E000CE014C967C0184019201A1016BA17CA1FA
:1005F000C301B7D2BE016D5F7F4FC70197D2CBA0B9
:10060000DCA0740182019101A301BE01645E7F4FF1
:100610008B813BDF1B8218A21F8E1E8E1D8E1C8EAF
:1006200066E970E0CE0101960E949411A5CFCF93A8
:10063000DF93EC010E9440108091390290913A02C0
:10064000892B31F48EE392E090933A028093390241
:1006500040913B0250913C029E01240F351F2B3DDF
:1006600085E0380770F44217530770F4C0913902DF
:10067000D0913A02C40FD51F30933C0220933B0225
:1006800005C0C0E0D0E002C0C0E0D0E00E9413117D
:10069000CE01DF91CF9108950895FC0103969283D6
:1006A00081832FEF3FEF3483238396838583908765
:1006B000878310820895FC01118610860895CF93D8
:1006C000DF939C01FB01DC011196CD91DC91129727
:1006D000D383C2838C819D81958384838C819D810A
:1006E000DC0113967C936E9312977D836C83318724
:1006F0002087F90180818F5F8083DF91CF910895FA
:10070000CF93DF93EB01488159814F3F2FEF520781
:1007100021F4FC01A781B0850DC0DC01139612966F
:10072000ED91FC911397208131814217530710F00E
:10073000DF01F5CF1296ED91FC911397FB83EA83CD
:10074000D583C483BD83AC831396DC93CE93129779
:1007500099878887FC0120812F5F2083DF91CF91CB
:100760000895CF93DF93FC01A085B185C281D38129
:10077000848195819D838C83C481D581828193817D
:100780009B838A831196CD91DC911297CE17DF0758
:1007900031F48C819D8112969C938E9311971186D2
:1007A00010868C9181508C93DF91CF9108951F9288
:1007B0000F920FB60F9211240BB60F922F933F9307
:1007C0004F935F936F937F938F939F93AF93BF9359
:1007D000EF93FF931B9B0DC03AD390E090939A0840
:1007E000809399080E9450109093960880939508E2
:1007F00056C01B9954C00E9450109093A00880933B
:100800009F082091950830919608821793074CF421
:1008100080919F089091A00801979093A0088093E1
:100820009F0815D390E09093A2088093A10820918F
:10083000990830919A088217930754F48091A1087F
:100840009091A20886509F4F9093A2088093A10890
:100850008091A1089091A2082091990830919A085E
:10086000821B930B90939C0880939B0880919F0818
:100870009091A0082091950830919608821B930BC7
:10088000909398088093970820E040E050E060E063
:1008900070E080919D0890919E080E94350DFF9117
:1008A000EF91BF91AF919F918F917F916F915F91E8
:1008B0004F913F912F910F900BBE0F900FBE0F9055
:1008C0001F901895A19A89E190E0C3D2A19808954C
:1008D000A09A89E190E0E1D2A0980895FC0180817E
:1008E0009181228133812817390754F4448155813D
:1008F0004217530784F04817590774F4CA01089542
:1009000044815581481759073CF0CA01241735071F
:100910001CF4C9010895C90108959B01285F3F4F48
:10092000281739073CF0205131098217930714F03A
:10093000862F972F08950F931F93CF93DF93EB018B
:100940000091000210E0F801EE0FFF1FE60FF71F05
:1009500060817181E2DF9C01C801019663E070E073
:100960000E94731780930002880F991FC80FD91F28
:1009700039832883DF91CF911F910F910895CF93F1
:10098000DF93EB01D8DFCE01A9DFDF91CF9108958E
:10099000B6D09C0163E070E00E947317260F371FEA
:1009A000293E83E038071CF087EE93E00895822FFC
:1009B000932F08951F920F920FB60F9211240BB62A
:1009C0000F922F933F934F935F936F937F938F93E8
:1009D0009F93AF93BF93EF93FF93809178008093A1
:1009E000A308809179008093A40820E040E050E0C3
:1009F00060E070E08091A7089091A8080E94350DF2
:100A0000FF91EF91BF91AF919F918F917F916F91E6
:100A10005F914F913F912F910F900BBE0F900FBEA2
:100A20000F901F9018958FE880937A0010927B00AA
:100A300080E480937C0043E060E081E02BD79093DA
:100A4000A8088093A70881E0E5D79093A608809333
:100A5000A50820E040E050E060E070E048C708955D
:100A6000CF93C82F20E04FEF5FEF60E070E0809100
:100A7000A5089091A6080E946F0DECE7F0E0808138
:100A80009C2F9F718076892B8083EBE7F0E020819B
:100A9000C0728C2F90E09595879595958795922FAC
:100AA0009076892B8083EAE7F0E080818064808300
:100AB000CF910895CF93DF9320E04FEF5FEF60E099
:100AC00070E08091A7089091A8080E946F0DC091D6
:100AD000A408C370D0E0DC2FCC278091A308C80FF6
:100AE000D11D20E040E050E060E070E08091A5087A
:100AF0009091A608FCD6CE01DF91CF910895CF93B7
:100B0000C82FAEDF8C2FD6DFCF9108959C01285FD0
:100B10003F4F2617370744F02051310981E0621713
:100B200073071CF080E0089581E00895FC0185E0E2
:100B3000DB018C9386E480838CE4818382E582836D
:100B400082E4838384E584830895C29744F46155E5
:100B5000710981E06D31710518F080E0089580E041
:100B60000895CF92DF92EF92FF920F931F93CF934E
:100B7000DF938A016901E7012B81222339F0749AFE
:100B8000E2E0F1E080818061808364C028812223DB
:100B900019F0DBDF882319F08C818823E1F189814A
:100BA00081111DC08A8181112AC0045111090C15BF
:100BB0001D0564F4C601801B910B08973CF07498E6
:100BC000E2E0F1E080818061808306C0749AE2E017
:100BD000F1E080818F7E808389818823C1F18A81C1
:100BE000811138C0C01AD10A88E0C816D10494F126
:100BF0007498E2E0F1E08081806180832BC00C1961
:100C00001D090830110534F1749AE2E0F1E08081A9
:100C10008F7E80831FC00F3111053CF47498E2E091
:100C2000F1E080818061808315C086E1C816D1041F
:100C30003CF4749AE2E0F1E080818F7E80830AC008
:100C40007498E2E0F1E080818F7E808303C08A8126
:100C50008111D5CFDF91CF911F910F91FF90EF9030
:100C6000DF90CF9008959F92AF92BF92CF92DF9284
:100C7000EF92FF920F931F93CF93DF93962EEA018B
:100C8000B501C2971CF4939486E488832F31310513
:100C90001CF493948CE489830E3111051CF4939415
:100CA00082E58A83C60132DF882319F0939482E4B7
:100CB0008B8387E3E816F1041CF4939484E58C831A
:100CC000892DDF91CF911F910F91FF90EF90DF90D1
:100CD000CF90BF90AF909F90089511DFBC018827FF
:100CE00077FD8095982F0E94B71429E23CE54FE6E6
:100CF0005FEB0E94A61522E538E646E256E40E9424
:100D0000431520E030E040E251E40E941F140E94AD
:100D10008414CB01683E23E0720714F087EE93E061
:100D20000895FB012081318150E0B901640F751FE6
:100D3000681779074CF0241B350B41E082179307A5
:100D40000CF040E0842F089581E00895FF920F9306
:100D50001F93CF93DF938C01EB0145E0BC01CE01E3
:100D6000E0DF811105C080911B08882309F44FC082
:100D7000CE014997459728F010921A081092190849
:100D800046C0F0901B08F11005C0D0931A08C0931C
:100D900019083AC08DECF89E812D112482958F7030
:100DA000880F880F982F990F990F890FF81213C089
:100DB00045E069E178E0CE01B4DF882339F0109294
:100DC0001A081092190810921B0821C0D0931A0813
:100DD000C093190819C085E48F15B0F410921B0850
:100DE00045E069E178E0CE019CDF882329F010928C
:100DF0001A08109219080BC08091190890911A08CE
:100E0000F8019183808303C0F394F0921B08DF9173
:100E1000CF911F910F91FF9008959093AE0880930A
:100E2000AD08FC01808191810E94691243E060E07D
:100E300081E030D59093AA088093A90843E060E050
:100E400081E028D59093AC088093AB08089586B5CF
:100E5000089546B550E09C01992314F42D5F3F4F4F
:100E60003595279535952795240F351F3093040226
:100E700020930302E091AD08F091AE08808191814A
:100E80000E94CC0F20E042E050E060E070E08091F2
:100E9000A9089091AA0823C6089546B550E09C0180
:100EA000992314F42D5F3F4F359527953595279558
:100EB000240F351F3093020220930102E091AD0808
:100EC000F091AE08808191810E94CC0F20E042E039
:100ED00050E060E070E08091AB089091AC08FFC5F5
:100EE0000895CF93DF93C6B5C11122C0809103024C
:100EF000909104028838934151F0809103029091BF
:100F000004028A5F91099093040280930302809106
:100F10000102909102028838934151F080910102C0
:100F2000909102028A5F91099093020280930102DC
:100F3000D0E080910302909104028C179D0784F405
:100F400088E893E1909304028093030220E040E05C
:100F500050E060E070E08091A9089091AA08C7D4A1
:100F600080910102909102028C179D0784F488E819
:100F700093E1909302028093010220E040E050E070
:100F800060E070E08091AB089091AC08B0D48091A3
:100F90000302909104028838934179F48091010210
:100FA000909102028838934141F4E091AD08F091AC
:100FB000AE08808191810E946912DF91CF910895DE
:100FC0001F920F920FB60F9211240BB60F922F9310
:100FD0003F934F935F936F937F938F939F93AF93C1
:100FE000BF93EF93FF936091CE008EE399E043D6D9
:100FF00020E040E050E060E070E0809124089091B3
:10100000250833D58EE399E04DD6FF91EF91BF913E
:10101000AF919F918F917F916F915F914F913F9190
:101020002F910F900BBE0F900FBE0F901F90189531
:101030001F920F920FB60F9211240BB60F922F939F
:101040003F934F935F936F937F938F939F93AF9350
:10105000BF93EF93FF936091C6008FEC98E00BD69F
:1010600020E040E050E060E070E080912408909142
:101070002508FBD48FEC98E015D6FF91EF91BF9136
:10108000AF919F918F917F916F915F914F913F9120
:101090002F910F900BBE0F900FBE0F901F901895C1
:1010A0001F920F920FB60F9211240BB60F922F932F
:1010B0003F934F935F936F937F938F939F93AF93E0
:1010C000BF93EF93FF9384E399E0F3D5882331F046
:1010D00084E399E0BED58093CE000FC0E9ECF0E048
:1010E00080818F7D808320E040E050E060E070E010
:1010F00080911C0890911D08B8D4FF91EF91BF9189
:10110000AF919F918F917F916F915F914F913F919F
:101110002F910F900BBE0F900FBE0F901F90189540
:101120001F920F920FB60F9211240BB60F922F93AE
:101130003F934F935F936F937F938F939F93AF935F
:10114000BF93EF93FF9389E399E0B3D5882331F000
:1011500089E399E07ED58093C6000FC0E1ECF0E012
:1011600080818F7D808320E040E050E060E070E08F
:1011700080911E0890911F0878D4FF91EF91BF9144
:10118000AF919F918F917F916F915F914F913F911F
:101190002F910F900BBE0F900FBE0F901F901895C0
:1011A0001092C50087E68093C40088EB8093C1004D
:1011B00086E08093C20040E264EF78E08FEC98E034
:1011C00041D540E264ED78E089E399E03BD543E026
:1011D00060E081E05FD3909323088093220881E050
:1011E00019D490931F0880931E0808951092CD0083
:1011F00087E68093CC0088EB8093C90086E08093DB
:10120000CA0040E26FEA78E08EE399E01BD540E245
:1012100064E179E084E399E015D543E060E081E0A2
:1012200039D3909325088093240843E060E081E05F
:1012300031D3909321088093200881E0EBD39093E1
:101240001D0880931C080895CF93C82F20E04FEF0E
:101250005FEF60E070E080911E0890911F083FD41E
:1012600089E399E01FD58111FBCF6C2F89E399E0C9
:1012700002D5E1ECF0E0808180628083E0ECF0E078
:10128000808180648083CF910895CF93C82F20E020
:101290004FEF5FEF60E070E080911C0890911D08B7
:1012A0001ED484E399E0FED48111FBCF6C2F84E33C
:1012B00099E0E1D4E9ECF0E0808180628083E8ECA1
:1012C000F0E0808180648083CF910895CF93DF9395
:1012D000EC018881882329F02196D7DF899181113B
:1012E000FCCFDF91CF910895CF93DF93EC018881FC
:1012F000882329F02196A8DF89918111FCCFDF9105
:10130000CF910895CF9320E04FEF5FEF60E070E062
:101310008091240890912508E2D38EE399E099D436
:10132000C82F8EE399E0C5D4882351F020E040E037
:1013300050E060E070E08091240890912508D7D2B9
:101340008C2FCF91089586E1A0DF20E04AEF50E096
:1013500060E070E08091200890912108C0D3813036
:1013600021F482E092DF81E0089580E0089520E09A
:1013700040E050E060E070E080912008909121080A
:10138000B6C2089591E0853009F090E0892F089564
:1013900091E0863109F090E0892F089591E0823044
:1013A00009F090E0892F089591E0863009F090E0EF
:1013B000892F089531E1FC013083319722E22083A7
:1013C0003197A3E3A083319760833197708331977E
:1013D000108231971082319760E8608331971082D4
:1013E0003197108231971082319762E06083319794
:1013F00063E06083319764E06083319765E06083E8
:10140000319766E06083319767E06083319768E0E9
:101410006083319769E06083319760E16083319741
:101420003083319732E13083319733E13083319724
:1014300034E13083319735E13083319736E13083C1
:10144000319737E13083319738E13083319739E193
:101450003083319730E23083319731E230833197F6
:101460002083319723E22083319740833197508343
:10147000319726E22083319727E22083319728E2B3
:101480002083319729E22083319720E3208331970D
:1014900021E320838997089582E084BD16BC80E310
:1014A00087BDEEE6F0E080818260808383E085BDC9
:1014B000A0918F08B0919008CD91CDBFDD91DEBF96
:1014C000FF91EF91DF91CF91BF91AF919F918F915C
:1014D0007F916F915F914F913F912F911F910F914C
:1014E000FF90EF90DF90CF90BF90AF909F908F9044
:1014F0007F906F905F904F903F902F901F900F9034
:101500000CBE0F900BBE0F900FBE0F90089581E0A0
:1015100008950F920FB6F8940F920BB60F920CB677
:101520000F921F9211242F923F924F925F926F92CF
:101530007F928F929F92AF92BF92CF92DF92EF9263
:10154000FF920F931F932F933F934F935F936F934C
:101550007F938F939F93AF93BF93CF93DF93EF933B
:10156000FF93A0918F08B09190080DB60D920EB622
:101570000D9251D7A0918F08B0919008CD91CDBF19
:10158000DD91DEBFFF91EF91DF91CF91BF91AF91E0
:101590009F918F917F916F915F914F913F912F918B
:1015A0001F910F91FF90EF90DF90CF90BF90AF9081
:1015B0009F908F907F906F905F904F903F902F9073
:1015C0001F900F900CBE0F900BBE0F900FBE0F9090
:1015D00008950F920FB6F8940F920BB60F920CB6B7
:1015E0000F921F9211242F923F924F925F926F920F
:1015F0007F928F929F92AF92BF92CF92DF92EF92A3
:10160000FF920F931F932F933F934F935F936F938B
:101610007F938F939F93AF93BF93CF93DF93EF937A
:10162000FF93A0918F08B09190080DB60D920EB661
:101630000D923BD58111EFD6A0918F08B091900803
:10164000CD91CDBFDD91DEBFFF91EF91DF91CF91C5
:10165000BF91AF919F918F917F916F915F914F91CA
:101660003F912F911F910F91FF90EF90DF90CF90BE
:10167000BF90AF909F908F907F906F905F904F90B2
:101680003F902F901F900F900CBE0F900BBE0F90AD
:101690000FBE0F9008959DDF18951F93CF93DF9392
:1016A000EC01142F8C8D81110CC088819981892BBC
:1016B00009F047C08A819B810E94CE131B821A8247
:1016C00047C0411118C0482F50E08C819D810E9475
:1016D0009A172C8D8C819D81820F911D9D838C8307
:1016E0002A813B818217930770F1888199819D83BC
:1016F0008C8380E02DC0482F50E08E819F810E9416
:101700009A172C8D30E03195219531098E819F817A
:10171000820F931F9F838E83688179818617970735
:1017200030F48A819B81280F391F3F832E8312302A
:1017300061F48A8D882359F08A8D81508A8F80E0E8
:1017400007C080E005C080E003C080E001C080E009
:101750009A8D9F5F9A8FDF91CF911F910895FC0121
:10176000CB01448D4423A1F050E026813781240F22
:10177000351F37832683628173812617370720F050
:101780002081318137832683668177810C949A1773
:1017900008950F931F93CF93DF93EC010FB6F89446
:1017A0000F928E8D1816A4F48989882389F08E01F2
:1017B0000F5E1F4F03C08989882351F0C80101D7EC
:1017C00081118AD78E8D81508E8F8E8D18169CF345
:1017D0008FEF8E8F0F900FBE0FB6F8940F928D8DF6
:1017E0001816A4F48885882389F08E01085F1F4F9E
:1017F00003C08885882351F0C801E3D681116CD7D6
:101800008D8D81508D8F8D8D18169CF38FEF8D8F60
:101810000F900FBEDF91CF911F910F910895CF933D
:10182000DF93EC010FB6F8940F92888199812C8D8B
:1018300030E07B8D729FA001739F500D1124FC013D
:10184000E40FF51FFB83EA831A8E9D838C83421B72
:10185000530B840F951F9F838E838FEF8D8F8E8FF9
:1018600061110AC08885882379F0CE010896A9D62F
:10187000813051F44EDE08C0CE0108960E944D031F
:10188000CE0141960E944D030F900FBE81E0DF9183
:10189000CF9108950F931F93CF93DF93182F062FA7
:1018A0008823E9F08FE190E00E941703EC01009794
:1018B000C1F0109FC001112401960E941703998363
:1018C0008883892B31F01B8F0C8F61E0CE01A7DF5D
:1018D00008C0CE010E944C03C0E0D0E002C0C0E0CE
:1018E000D0E0CE01DF91CF911F910F9108959F928B
:1018F000AF92BF92CF92DF92EF92FF920F931F931E
:10190000CF93DF9300D01F921F92CDB7DEB78C012B
:101910006B015D834C83A22EB12C992493947C019E
:1019200088E0E80EF11C0FB6F8940F92F801928D42
:10193000838D981718F0F2E0AF1215C04A2DB6014A
:10194000C801ABDEF8019189992339F0C8014196AD
:1019500038D6813021F4DDDD02C08111DADD0F904F
:101960000FBE81E046C0EC81FD81EF2B21F40F908A
:101970000FBE80E03EC0B11004C0CE01019669D612
:10198000B92C0F900FBE7CD30FB6F8940F92F801CC
:10199000858D8F3F09F4158EF801868D8F3F09F4F0
:1019A000168E0F900FBEBE016C5F7F4FCE01019669
:1019B0005BD681111AC00FB6F8940F92F801928D80
:1019C0000F900FBEF801838D98130BC06C817D8141
:1019D000C701CCD5C801DDDE26D48111A4CF99DDA5
:1019E000A2CFC801D6DE1FD49ECFC801D2DE1BD441
:1019F00080E00F900F900F900F900F90DF91CF919C
:101A00001F910F91FF90EF90DF90CF90BF90AF901C
:101A10009F900895CF93DF938FE190E00E9417038A
:101A2000EC010097F1F01B821A82198218821D8244
:101A30001C821F821E821A8E81E08B8F1C8E8FEF7C
:101A40008D8F8E8FCE0108960E944D03CE01419658
:101A50000E944D0320E040E050E060E070E0CE01E5
:101A600046DFCE01DF91CF9108950F931F93CF935F
:101A7000DF93EC018A019A8D8B8D981710F022303C
:101A800011F5422FCE0109DE882331F00115110531
:101A900019F081E0F80180838E8D8F3F79F4898978
:101AA000882399F0CE0141968CD5882381F00115C9
:101AB000110579F081E0F80180830CC08E8D8F5F75
:101AC0008E8F81E007C080E005C081E003C081E027
:101AD00001C081E0DF91CF911F910F9108959F92F6
:101AE000AF92BF92CF92DF92EF92FF920F931F932C
:101AF000CF93DF9300D01F921F92CDB7DEB78C013A
:101B00006B015D834C83B22EA12C992493947C01AC
:101B100081E1E80EF11C0FB6F8940F92F801828D66
:101B2000882369F1E680F780B601C80118DEB1109C
:101B300017C0F801828D8150828F80819181892B1D
:101B400021F46BD6F80193838283F8018085882382
:101B500091F0C801089635D5813069F4DADC0BC004
:101B6000F801F782E6828189882329F0C80141962D
:101B700028D58111CEDC0F900FBE81E052C04C8180
:101B80005D81452B21F40F900FBE80E04AC0A1106B
:101B900004C0CE0101965DD5A92C0F900FBE70D266
:101BA0000FB6F8940F92F801858D8F3F09F4158ECA
:101BB000F801868D8F3F09F4168E0F900FBEBE017F
:101BC0006C5F7F4FCE0101964FD5811126C00FB6B5
:101BD000F8940F92F801828D0F900FBE811119C0F9
:101BE000F80180819181892B49F40FB6F8940F9206
:101BF000F8018281938174D50F900FBE6C817D8135
:101C0000C701B4D4C801C5DD0ED3811184CF81DCF6
:101C100082CFC801BEDD07D37ECFC801BADD03D3B2
:101C200080E00F900F900F900F900F90DF91CF9169
:101C30001F910F91FF90EF90DF90CF90BF90AF90EA
:101C40009F900895FC017183608342831482138204
:101C50000895FC019481A081B181A90FB11D8C91DF
:101C60009F5F94832281921710F0921B948393813B
:101C7000915093830895FC01462F8381228182171E
:101C800080F4348190E0830F911D622F70E00E94F8
:101C90007317A081B181A80FB91F4C9383818F5F07
:101CA00083830895FC0181E022819381291380E0E0
:101CB000089521E0FC018381811101C020E0822F81
:101CC0000895E0914E08F0914F088081811107C07E
:101CD0008FEF9FEF90930602809305020895E091A5
:101CE0004E08F0914F080580F681E02D0680F781BF
:101CF000E02D8281938190930602809305020895DE
:101D0000CF93DF93EC01E0918F08F09190089383DB
:101D1000828380912D0890912E08C817D90768F406
:101D200060918F087091900880914C0890914D08B7
:101D30006E5F7F4F0E94800317C060918F08709183
:101D4000900880914E0890914F086E5F7F4F0E94DF
:101D500080038091050290910602C817D90720F4EC
:101D6000D0930602C0930502DF91CF9108954F9260
:101D70005F926F927F928F929F92AF92BF92CF921B
:101D8000DF92EF92FF920F931F93CF93DF934C015B
:101D90005B012A01390183E290E00E941703EC0104
:101DA000009709F4E7C0C114D10409F0CCC0C20106
:101DB0000E941703988F8F8B892B09F0C6C0CE0124
:101DC0000E944C03D7C0CF013191DA013D93AD01A0
:101DD000DC018C91882311F02150A9F718A2102F53
:101DE000053008F014E01E8B19A31AA25E01B2E0C0
:101DF000AB0EB11CC5010E945B03CE010C960E9484
:101E00005B03D987C88785E090E0811B91099D8796
:101E10008C87DB8BCA8BA301B401C601CBDA998313
:101E20008883E114F10419F0F701D183C0830FB660
:101E3000F8940F9280912F088F5F80932F088091E4
:101E40008F0890919008892B09F03FC0D09390089B
:101E5000C0938F0880912F08813009F045C00F2E64
:101E6000F2E6EF2EF8E0FF2EF02D0F2EFFE8CF2E3A
:101E7000F8E0DF2EF02DC7010E944D03F9E0EF0ED0
:101E8000F11CEC14FD04B9F789E598E00E944D03BC
:101E900080E598E00E944D0383E498E00E944D03A2
:101EA0008AE398E00E944D0380E398E00E944D038E
:101EB00089E598E090934F0880934E0880E598E07C
:101EC00090934D0880934C080FC080912B0881118E
:101ED0000BC0E0918F08F09190088689081720F0D8
:101EE000D0939008C0938F08809127088F5F8093CC
:101EF00027088E8990912C08981710F480932C084D
:101F000090E09C01220F331F220F331F220F331F3B
:101F1000820F931FB5018E59974F0E945F030F9058
:101F20000FBE80912B08882351F0E0918F08F0912B
:101F300090088689801728F4ECDA81E01CC081E0E3
:101F40001AC081E018C0D88ECF8A81E0481A5108A3
:101F5000CF88D88CC40CD51CD5018C91898F8C91DD
:101F6000882309F43BCFAE01465E5F4FF501319601
:101F700027E029CF8FEFDF91CF911F910F91FF9035
:101F8000EF90DF90CF90BF90AF909F908F907F9019
:101F90006F905F904F9008950F931F93CF93DF93AF
:101FA000EC01009709F43EC080918F089091900851
:101FB000C817D907B9F10FB6F8940F928A859B8597
:101FC0008053984069F58C899D8928E08334920775
:101FD00039F1892B29F58E010E5F1F4FC8010E9430
:101FE000B1038E8990912C08981710F480932C08D7
:101FF00090E09C01220F331F220F331F220F331F4B
:10200000820F931FB8018E59974F0E945F03E09192
:102010008F08F09190089E898689981708F079DAE0
:102020000F900FBEDF91CF911F910F910895AF9246
:10203000BF92CF92DF92EF92FF920F93A12CB12C1F
:10204000C12CD12CE12CF12C00E020E030E045E562
:1020500050E063E372E082ED91E189DE813041F48A
:10206000F89480932B0810922E0810922D0814DA01
:102070000F91FF90EF90DF90CF90BF90AF900895B9
:10208000809126088F5F8093260808950FB6F894F4
:102090000F9280912D0890912E080F900FBE0895F9
:1020A00080912D0890912E080895CF92DF92EF92A3
:1020B000FF920F931F93CF93DF9380912608811196
:1020C00099C080912D0890912E08019690932E082A
:1020D00080932D08E0902D08F0902E08E114F10473
:1020E000B1F480914E0890914F0820914C083091A6
:1020F0004D0830934F0820934E0890934D088093DD
:102100004C08809128088F5F80932808DADD809141
:10211000050290910602E816F90608F454C0D12C85
:10212000CC24C39401C0DC2CE0914E08F0914F0800
:102130008081811107C08FEF9FEF909306028093FB
:10214000050242C0E0914E08F0914F080580F681EB
:10215000E02DC681D7812A813B81E216F30628F45F
:1021600030930602209305022FC08E010E5F1F4F91
:10217000C8010E94B1038C899D89892B21F0CE0171
:102180000C960E94B1032E8980912C08821710F4BE
:1021900020932C0830E0C901880F991F880F991FE0
:1021A000880F991F820F931FB8018E59974F0E9475
:1021B0005F03E0918F08F09190089E8986899817B7
:1021C00008F0B1CFB1CFD12CE0918F08F0919008F9
:1021D000868990E0FC01EE0FFF1FEE0FFF1FEE0F50
:1021E000FF1F8E0F9F1FFC01EE59F74F8081823039
:1021F00040F409C080912A088F5F80932A08D12C6F
:1022000002C0DD24D39480912908882311F0DD24B5
:10221000D3948D2DDF91CF911F910F91FF90EF906F
:10222000DF90CF900895DF92EF92FF920F931F936C
:10223000CF93DF930FB6F8940F92809126088150C8
:10224000809326088091260881115FC080912F0815
:10225000882309F45CC00F2EF3E4EF2EF8E0FF2E84
:10226000F02DDD24D39430C0E0914808F091490866
:10227000C681D781CE010C960E94B1038E010E5FFC
:102280001F4FC8010E94B1038E8990912C089817A6
:1022900010F480932C0890E09C01220F331F220F32
:1022A000331F220F331F820F931FB8018E59974F90
:1022B0000E945F03E0918F08F09190089E898689C3
:1022C000981710F0D0922908F70180818111CCCFA6
:1022D00080912A08882391F080912A08882371F040
:1022E000C1E0E3DE8111C093290880912A08815062
:1022F00080932A0880912A088111F3CF80912908C0
:10230000813039F406D981E005C080E003C080E067
:1023100001C080E00F900FBEDF91CF911F910F9110
:10232000FF90EF90DF9008950F931F93CF93DF936B
:102330008C01EB01A5DE80912D0890912E08F8010B
:1023400020813181C20FD31F8217930748F4C2172F
:10235000D307F8F4D183C0838C179D0788F407C096
:10236000C217D30790F08C179D0778F012C08091A8
:102370008F089091900802960E94B103CE01C0DCB4
:1023800052DF81110AC0C5D808C0F801D183C083CB
:10239000EECFF801D183C083F3CFDF91CF911F91AE
:1023A0000F9108950F2EF2E6EF2EF8E0FF2EF02D9C
:1023B000CAE3D8E026C064DE188135DF112309F1B5
:1023C0000FB6F8940F92E0913F08F0914008068113
:1023D0001781C80102960E94B10380912F08815095
:1023E00080932F08809139088150809339080F908D
:1023F0000FBEF8018789908D0E944C03C8010E948E
:102400004C03809139088111D6CFF7018081823049
:10241000C0F37FD8F6CF80912608882321F081E091
:102420008093290808951092290880912C0890E043
:10243000FC01EE0FFF1FEE0FFF1FEE0FFF1F8E0FB1
:102440009F1FFC01EE59F74F8081811117C08091C9
:102450002C08815080932C0880912C0890E0FC017E
:10246000EE0FFF1FEE0FFF1FEE0FFF1F8E0F9F1FC0
:10247000FC01EE59F74F8081882349F3E0912C0845
:10248000F0E0CF01880F991F880F991F880F991FBF
:10249000E80FF91FEE59F74FA181B28112960D9006
:1024A000BC91A02DB283A183CF010396A817B907D1
:1024B00031F412968D919C911397928381830180C0
:1024C000F281E02D868197819093900880938F0808
:1024D00008950F931F93CF93DF93EC010FB6F894F9
:1024E0000F92009721F4C0918F08D09190088E012F
:1024F0000E5F1F4FC8010E94B1038C899D89892BF3
:1025000021F0CE010C960E94B103B80180E398E05F
:102510000E945F030F900FBE80918F0890919008EA
:10252000C817D907A1F480912B08882319F00E94BD
:10253000890A17C080912F0890913008981305C020
:102540001092900810928F080CC065DF0AC080912D
:102550002B08882331F00FB6F8940F92B2DB0F905E
:102560000FBEDF91CF911F910F910895CF93DF930D
:10257000EB0160918F0870919008645F7F4F0E941B
:10258000800380918F089091900802960E94B10379
:10259000CF3F8FEFD80759F460918F087091900862
:1025A0006E5F7F4F80E398E00E945F0307C08091D9
:1025B0002D0890912E088C0F9D1FA2DBDF91CF91EB
:1025C00008950F931F93CF93DF93DC011596ED9140
:1025D000FC911697C681D7818E01045F1F4FC801F9
:1025E0000E94B1038091260881111CC00A50110974
:1025F000C8010E94B1038E8990912C08981710F49D
:1026000080932C0890E09C01220F331F220F331F70
:10261000220F331F820F931FB8018E59974F0E94CC
:102620005F0305C0B80183E498E00E945F03E09176
:102630008F08F09190089E898689891720F481E09F
:102640008093290801C080E0DF91CF911F910F9105
:10265000089520912808FC01208320912D083091B5
:102660002E083283218308950FB6F8940F9240917B
:102670002D0850912E08DB012D913C912F3FBFEF8B
:102680003B0711F1E0912808DC01FC91FE1739F0BD
:102690001196ED91FC9112974E175F07B8F4DC018B
:1026A0001196ED91FC911297DA01AE1BBF0BA217A8
:1026B000B30770F4E41BF50B2E0F3F1FFB013183B2
:1026C0002083C7DF80E005C080E003C081E001C057
:1026D00081E00F900FBE089581E08093290808954E
:1026E0000F931F93CF93DF93EC01009709F451C030
:1026F0008E89E0918F08F09190089689891708F0EB
:1027000048C02C853D8533235CF0E0918F08F09123
:102710009008968925E030E0291B31093D872C87F8
:1027200090E09C01220F331F220F331F220F331F13
:10273000820F931F8E59974F2A853B85281739079B
:1027400011F58E010E5F1F4FC8010E94B103E09189
:102750008F08F091900886898E8B90912C0898179D
:1027600010F480932C0890E09C01220F331F220F5D
:10277000331F220F331F820F931FB8018E59974FBB
:102780000E945F0306C0E0918F08F091900886894F
:102790008E8BDF91CF911F910F9108950F931F930F
:1027A000CF93DF93EC01009771F18AA181508AA346
:1027B0002E8999A1291749F1811129C08E010E5F37
:1027C0001F4FC8010E94B10389A18E8B25E030E024
:1027D000281B31093D872C8790912C08981710F4FD
:1027E00080932C0890E09C01220F331F220F331F8F
:1027F000220F331F820F931FB8018E59974F0E94EB
:102800005F0381E005C080E003C080E001C080E09C
:10281000DF91CF911F910F91089580918F08909132
:102820009008892B39F0E0918F08F091900882A1EF
:102830008F5F82A380918F089091900808955058DF
:10284000BB27AA270ED0E5C0D6D030F0DBD020F0D1
:1028500031F49F3F11F41EF4CBC00EF4E095E7FB7A
:10286000C1C0E92FE7D080F3BA1762077307840766
:10287000950718F071F49EF5FFC00EF4E0950B2E4D
:10288000BA2FA02D0B01B90190010C01CA01A001C2
:102890001124FF27591B99F0593F50F4503E68F11D
:1028A0001A16F040A22F232F342F4427585FF3CF5E
:1028B000469537952795A795F0405395C9F77EF42F
:1028C0001F16BA0B620B730B840BBAF09150A1F078
:1028D000FF0FBB1F661F771F881FC2F70EC0BA0FFE
:1028E000621F731F841F48F4879577956795B79586
:1028F000F7959E3F08F0B3CF9395880F08F099277E
:10290000EE0F97958795089504D06894B111B5C0DE
:10291000089598D088F09F5790F0B92F9927B75114
:10292000A0F0D1F0660F771F881F991F1AF0BA9593
:10293000C9F712C0B13081F09FD0B1E008959CC0BA
:10294000672F782F8827B85F39F0B93FCCF3869589
:1029500077956795B395D9F73EF4909580957095E6
:1029600061957F4F8F4F9F4F0895E89409C097FB63
:102970003EF490958095709561957F4F8F4F9F4F56
:102980009923A9F0F92F96E9BB279395F69587959A
:1029900077956795B795F111F8CFFAF4BB0F11F45D
:1029A00060FF1BC06F5F7F4F8F4F9F4F16C0882304
:1029B00011F096E911C0772321F09EE8872F762F3A
:1029C00005C0662371F096E8862F70E060E02AF07B
:1029D0009A95660F771F881FDAF7880F9695879567
:1029E00097F9089597F99F6780E870E060E008958F
:1029F0009FEF80EC089500240A9416161706180617
:102A00000906089500240A941216130614060506F2
:102A10000895092E0394000C11F4882352F0BB0F83
:102A200040F4BF2B11F460FF04C06F5F7F4F8F4FE6
:102A30009F4F089557FD9058440F551F59F05F3F21
:102A400071F04795880F97FB991F61F09F3F79F0D0
:102A500087950895121613061406551FF2CF469552
:102A6000F1DF08C0161617061806991FF1CF8695D4
:102A70007105610508940895E894BB2766277727B8
:102A8000CB0197F908950BD0C4CFB5DF28F0BADF9A
:102A900018F0952309F0A6CFABCF1124EECFCADFF3
:102AA000A0F3959FD1F3950F50E0551F629FF00161
:102AB000729FBB27F00DB11D639FAA27F00DB11DBA
:102AC000AA1F649F6627B00DA11D661F829F222743
:102AD000B00DA11D621F739FB00DA11D621F839FCA
:102AE000A00D611D221F749F3327A00D611D231FA0
:102AF000849F600D211D822F762F6A2F11249F57EE
:102B000050408AF0E1F088234AF0EE0FFF1FBB1F10
:102B1000661F771F881F91505040A9F79E3F5105AF
:102B200070F060CFAACF5F3FECF3983EDCF3869560
:102B300077956795B795F795E7959F5FC1F7FE2B5A
:102B4000880F911D9695879597F90895FA01EE0FD4
:102B5000FF1F30962105310599F16115710561F46A
:102B60008038BFE39B0749F168949038810561F094
:102B70008038BFEF9B0741F0992342F5FF3FE10505
:102B80003105210511F1E8940894E795D901AA23AC
:102B900029F4AB2FBE2FF85FD0F310C0FF5F70F4A5
:102BA000A695E0F7F73950F019F0FF3A38F49F771F
:102BB0009F930CD00F9007FC905808953EF018CFCB
:102BC00060E070E080E89FE308954FE79F775F93B0
:102BD0004F933F932F939ED02F913F914F915F91B1
:102BE00052DF05C019F40EF0FDCE46CF01CF2ADF2B
:102BF000C8F39638C0F707F80F92E8942BE33AEA47
:102C000048EB5FE74EDF0F920F920F924DB75EB722
:102C10000F92C0D0E4EEF0E016D04F915F91EF91AB
:102C2000FF91E595EE1FFF1F49F0FE57E06844272E
:102C3000EE0F441FFA95E1F74195550B32D00F90F6
:102C400007FE26C00895DF93CF931F930F93FF9243
:102C5000EF92DF927B018C01689405C0DA2EEF01C0
:102C60001EDFFE01E894A59125913591459155917E
:102C7000AEF3EF01F6DDFE019701A801DA9479F7D2
:102C8000DF90EF90FF900F911F91CF91DF9108950A
:102C90009B01AC0160E070E080E89FE3AEC0A2CE93
:102CA00014C1D0DEE8F39923D9F3940F511DBBF37F
:102CB0009150504094F059F0882332F0660F771FFE
:102CC000881F91505040C1F79E3F510544F7880F2F
:102CD000911D9695879597F908955F3FACF0983EC2
:102CE0009CF0BB27869577956795B79508F4B160FA
:102CF0009395C1F7BB0F58F711F460FFE8CF6F5FF2
:102D00007F4F8F4F9F4FE3CFB8CE0EF0DEC070CE17
:102D1000689468CE97DEC8F39923D1F3C6F3DF93A6
:102D2000CF931F930F93FF92C92FDD2788232AF09B
:102D30002197660F771F881FDAF720E030E040E820
:102D40005FEB9FE3883920F0803E30F021968F774B
:102D500077DDECE0F1E003C073DDE9E3F1E073DF80
:102D60008B01BE01EC01FB2E6F5771097595771F22
:102D7000880B990BFCDD28E132E741E35FE38FDE4E
:102D8000AF2D9801AE01FF900F911F91CF91DF9170
:102D900068DD3FCEFA01DC01AA0FBB1F9B01AC012D
:102DA000BF5728F422273327442750781FC0B75134
:102DB00088F4AB2F0024469537952795011CA395E1
:102DC000D2F3002069F0220F331F441FB395DAF3CA
:102DD0000DD035CD61307105A0E88A07B94630F4D1
:102DE0009B01AC016627772788279078309621F0E1
:102DF000208331834283538308950CD00ACE02DEB0
:102E000040F0F9DD30F021F45F3F19F0EBCD5111C6
:102E100034CEEECD0FDE98F39923C9F35523B1F3E9
:102E2000951B550BBB27AA2762177307840738F039
:102E30009F5F5F4F220F331F441FAA1FA9F333D098
:102E40000E2E3AF0E0E830D091505040E695001C4C
:102E5000CAF729D0FE2F27D0660F771F881FBB1F08
:102E6000261737074807AB07B0E809F0BB0B802DE2
:102E7000BF01FF2793585F4F2AF09E3F510568F02E
:102E8000B1CDFBCD5F3FECF3983EDCF386957795B3
:102E90006795B795F7959F5FC9F7880F911D969530
:102EA000879597F90895E1E0660F771F881FBB1F8C
:102EB000621773078407BA0720F0621B730B840B39
:102EC000BA0BEE1F88F7E09508959F3F31F09150BF
:102ED00020F4879577956795B795880F911D9695FE
:102EE000879597F9089597FB072E16F4009406D05E
:102EF00077FD08D00BD007FC05D03EF49095819566
:102F00009F4F0895709561957F4F0895AA1BBB1B35
:102F100051E107C0AA1FBB1FA617B70710F0A61BD9
:102F2000B70B881F991F5A95A9F780959095BC01FA
:102F3000CD010895FB01DC0102C001900D924150CA
:0A2F40005040D8F70895F894FFCF31
:102F4A000388138813FFFF3A20002C20006D795460
:102F5A00696D6572006D6178536F6E6172005250CF
:102F6A00495F52656365697665005250495F5365EA
:082F7A006E640049444C45005F
:00000001FF
