:1000000071C000008FC000008DC000008BC00000D8
:1000100089C0000087C0000085C0000083C00000C8
:1000200081C0000076C200007DC000007BC00000DF
:1000300079C0000077C0000075C0000073C00000E8
:1000400071C000006FC000006DC000006BC00000F8
:1000500069C000001AC7000065C0000063C000004E
:1000600061C0000046C40000B2C400005BC00000D4
:1000700059C00000C0C2000055C0000053C00000BD
:1000800051C000004FC000004DC000004BC0000038
:10009000F8C3000066C4000045C0000043C0000073
:1000A00041C000003FC000003DC000003BC0000058
:1000B00039C0000037C0000035C0000033C0000068
:1000C00031C000002FC000002DC000002BC0000078
:1000D00029C0000027C0000025C0000023C0000088
:1000E00021C0000011241FBECFEFD1E2DEBFCDBF83
:1000F00000E00CBF12E0A0E0B2E0E2E2F1E200E0DA
:100100000BBF02C007900D92AE38B107D9F729E0B6
:10011000AEE8B2E001C01D92A838B207E1F7D5D031
:100120000C948F106DCF2E9A88EE93E00E94C30D31
:1001300085B115B888EE93E00E94C30DF4CF2F9AD5
:1001400084EF91E00E94C30D85B115B884EF91E072
:100150000E94C30DF4CF19D586E092E0DCC4089567
:1001600009D58DE192E0D7C40895CF93DF93CDB741
:10017000DEB7A8970FB6F894DEBF0FBECDBF88E0FC
:10018000E3E3F2E0DE01179601900D928A95E1F724
:1001900087E0EBE3F2E0DE011F9601900D928A9575
:1001A000E1F788E0E2E4F2E0DE01569601900D927C
:1001B0008A95E1F786E0EAE4F2E0DE015E960190DE
:1001C0000D928A95E1F785E0E0E5F2E0DE01949694
:1001D00001900D928A95E1F70E94370C9A838983EA
:1001E000F9D187E2FED14AE0BE016D5F7F4F0E94E8
:1001F0005C10CE0107968FD4CE0103968CD4CE012D
:100200004E9689D486E2EDD14AE0BE016D5F7F4F04
:100210000E945C10CE010F967ED4CE0103967BD453
:10022000CE014E9678D485E2DCD14AE0BE016D5F06
:100230007F4F0A970E945C10CE0146966CD4CE0187
:10024000039669D4CE01849666D466E970E0CE0147
:1002500001960E94850DC4CF66D2A4D2FECF8CEC4D
:10026000809364008EE3809365000895109280006F
:100270001092810010926F001092B0001092B100A5
:1002800010927000109290001092910010927100E4
:100290001092A0001092A100109272001092200102
:1002A00010922101109273000895CF93CFB7F89464
:1002B000DDDFD5DFC2D3E1D3D2D1999A84B1806C8E
:1002C00084B9CFBF7894CF910895CF93DF93CDB702
:1002D000DEB72C970FB6F894DEBF0FBECDBFE5DFBB
:1002E000A12CB12CC12CD12CCE0101967C0104E0B3
:1002F0009C0149E650E065E572E08CE291E00E94E5
:10030000A80ACE0107967C0102E020E030E04DE132
:1003100051E06DE572E085EB90E00E94A80ACE0105
:100320000B967C0101E020E030E049E650E066E613
:1003300072E083E990E00E94A80ACE0109967C0150
:1003400020E030E049E650E06DE672E08FE990E0B1
:100350000E94A80ACE0105967C0103E020E030E06F
:1003600047E850E064E772E08BEA90E00E94A80A58
:10037000CE0103967C0102E020E030E047E850E047
:1003800060E872E080EB90E00E94A80A0E94080CEE
:10039000A6CFCF93DF93EC010E94310C80918E02A7
:1003A00090918F02892B31F483E992E090938F0230
:1003B00080938E0240919002509191029E01240FF1
:1003C000351F2B3D85E0380770F44217530770F452
:1003D000C0918E02D0918F02C40FD51F309391022D
:1003E0002093900205C0C0E0D0E002C0C0E0D0E0A1
:1003F0000E94040DCE01DF91CF9108950895FC0174
:100400000396928381832FEF3FEF34832383968378
:1004100085839087878310820895FC01118610865A
:100420000895CF93DF939C01FB01DC011196CD91E0
:10043000DC911297D383C2838C819D8195838483C1
:100440008C819D81DC0113967C936E9312977D8342
:100450006C8331872087F90180818F5F8083DF91F2
:10046000CF910895CF93DF93EB01488159814F3F9E
:100470002FEF520721F4FC01A781B0850DC0DC01EC
:1004800013961296ED91FC911397208131814217BA
:10049000530710F0DF01F5CF1296ED91FC91139701
:1004A000FB83EA83D583C483BD83AC831396DC933B
:1004B000CE93129799878887FC0120812F5F208334
:1004C000DF91CF910895CF93DF93FC01A085B18593
:1004D000C281D381848195819D838C83C481D581A0
:1004E000828193819B838A831196CD91DC911297AF
:1004F000CE17DF0731F48C819D8112969C938E93E9
:100500001197118610868C9181508C93DF91CF9139
:1005100008951F920F920FB60F9211240BB60F92EF
:100520002F933F934F935F936F937F938F939F93FB
:10053000AF93BF93EF93FF9383B113B80ED190E0C5
:100540009093E4088093E3082091DD083091DE0861
:100550008217930754F48091E3089091E408865041
:100560009F4F9093E4088093E308F7D02091DD0833
:100570003091DE0890E0821B930B9093E00880930B
:10058000DF080E94410C2091D9083091DA08821BC3
:10059000930B9093DC088093DB0820E040E050E070
:1005A00060E070E08091E1089091E20850D6FF9100
:1005B000EF91BF91AF919F918F917F916F915F91DB
:1005C0004F913F912F910F900BBE0F900FBE0F9048
:1005D0001F901895A19A89E190E0C1D084B314BA14
:1005E00008959AD090E09C01220F331F220F331FF1
:1005F000820F931F08951F920F920FB60F9211242E
:100600000BB60F922F933F934F935F936F937F930C
:100610008F939F93AF93BF93EF93FF938091790054
:100620008093E50820E040E050E060E070E08091D9
:10063000E8089091E9080BD6FF91EF91BF91AF9137
:100640009F918F917F916F915F914F913F912F91EA
:100650000F900BBE0F900FBE0F901F9018958FE854
:1006600080937A0010927B0080E680937C0043E0C8
:1006700060E081E007D59093E9088093E80881E085
:10068000BED59093E7088093E60820E040E050E074
:1006900060E070E021C50895CF93C82F20E04FEFB0
:1006A0005FEF60E070E08091E6089091E70809D67E
:1006B000ECE7F0E080819C2F9F718076892B80830E
:1006C000EBE7F0E02081C0728C2F90E09595879544
:1006D00095958795922F9076892B8083EAE7F0E0B5
:1006E000808180648083CF91089520E04FEF5FEF99
:1006F00060E070E08091E8089091E908E2D520E0A0
:1007000040E050E060E070E08091E6089091E708FA
:10071000E3D48091E5080895CF93C82FBDDF8C2FD7
:10072000E4DFCF9108959093EF088093EE08FC01E9
:10073000808191810E94760E43E060E081E0A2D446
:100740009093EB088093EA0843E060E081E09AD45C
:100750009093ED088093EC08089586B5089546B50A
:1007600050E09C01992314F42D5F3F4F3595279558
:1007700035952795240F351F3093030220930202ED
:10078000E091EE08F091EF0880819181F6D720E0AA
:1007900042E050E060E070E08091EA089091EB0860
:1007A00090C50895CF93DF93C6B5C11122C0809143
:1007B0000202909103028838934151F08091020225
:1007C000909103028A5F9109909303028093020241
:1007D00080910002909101028838934151F08091FC
:1007E0000002909101028A5F910990930102809327
:1007F0000002D0E080910202909103028C179D07C5
:1008000084F488E893E1909303028093020220E04D
:1008100040E050E060E070E08091EA089091EB08E1
:100820005BD480910002909101028C179D0784F4A3
:1008300088E893E1909301028093000220E040E079
:1008400050E060E070E08091EC089091ED0844D4B5
:1008500080910202909103028838934179F480914B
:100860000002909101028838934141F4E091EE0832
:10087000F091EF08808191810E94760EDF91CF91F7
:1008800008951F920F920FB60F9211240BB60F927C
:100890002F933F934F935F936F937F938F939F9388
:1008A000AF93BF93EF93FF936091CE0083E899E0FD
:1008B000D4D520E040E050E060E070E0809177091E
:1008C00090917809C4D483E899E0DDD5FF91EF9148
:1008D000BF91AF919F918F917F916F915F914F9158
:1008E0003F912F910F900BBE0F900FBE0F901F9056
:1008F00018951F920F920FB60F9211240BB60F92FC
:100900002F933F934F935F936F937F938F939F9317
:10091000AF93BF93EF93FF936091C60080E199E09E
:100920009CD520E040E050E060E070E080917709E5
:10093000909178098CD480E199E0A5D5FF91EF9151
:10094000BF91AF919F918F917F916F915F914F91E7
:100950003F912F910F900BBE0F900FBE0F901F90E5
:1009600018951F920F920FB60F9211240BB60F928B
:100970002F933F934F935F936F937F938F939F93A7
:10098000AF93BF93EF93FF9389E799E083D58823D3
:1009900031F089E799E04FD58093CE0005C0E9ECAE
:1009A000F0E080818F7D8083FF91EF91BF91AF91C7
:1009B0009F918F917F916F915F914F913F912F9177
:1009C0000F900BBE0F900FBE0F901F9018951F92A7
:1009D0000F920FB60F9211240BB60F922F933F93E5
:1009E0004F935F936F937F938F939F93AF93BF9337
:1009F000EF93FF938EE799E04DD5882331F08EE792
:100A000099E019D58093C60005C0E1ECF0E0808143
:100A10008F7D8083FF91EF91BF91AF919F918F91D7
:100A20007F916F915F914F913F912F910F900BBEEE
:100A30000F900FBE0F901F9018951092C50087E67B
:100A40008093C40088EB8093C10086E08093C2004D
:100A500040E265E379E080E199E0E6D440E265E1D7
:100A600079E08EE799E0E0D443E060E081E00AD3EA
:100A7000909376098093750908951092CD0087E6CA
:100A80008093CC0088EB8093C90086E08093CA00F5
:100A900040E260EF78E083E899E0C6D440E265E5A3
:100AA00079E089E799E0C0D443E060E081E0EAD2F0
:100AB00090937809809377090895CF93C82F8EE794
:100AC00099E0E1D48111FBCF6C2F8EE799E0C5D47A
:100AD000E1ECF0E0808180628083E0ECF0E08081F6
:100AE00080648083CF910895CF93C82F89E799E0E0
:100AF000CAD48111FBCF6C2F89E799E0AED4E9EC21
:100B0000F0E0808180628083E8ECF0E080818064A6
:100B10008083CF910895CF93DF93EC018881882360
:100B200029F02196CADF89918111FCCFDF91CF9105
:100B30000895CF9320E04FEF5FEF60E070E0809189
:100B4000750990917609BDD383E899E074D4C82FD4
:100B500083E899E09FD4882351F020E040E050E002
:100B600060E070E08091750990917609B5D28C2F84
:100B7000CF91089580E0B8DFDCDF853521F48FEF79
:100B8000B3DF80E008958FEF0895D3DF81110AC0AD
:100B900085E5AADFCEDF91E0811101C090E0892FC9
:100BA000819508958FEF089531E1FC0130833197ED
:100BB00022E220833197A3E3A083319760833197AA
:100BC00070833197108231971082319760E860838B
:100BD000319710823197108231971082319762E0FD
:100BE0006083319763E06083319764E0608331977D
:100BF00065E06083319766E06083319767E06083EA
:100C0000319768E06083319769E06083319760E1F4
:100C1000608331973083319732E13083319733E10C
:100C20003083319734E13083319735E13083319728
:100C300036E13083319737E13083319738E13083C3
:100C4000319739E13083319730E23083319731E2A7
:100C5000308331972083319723E22083319740837B
:100C600031975083319726E22083319727E2208302
:100C7000319728E22083319729E22083319720E3BE
:100C80002083319721E320838997089582E084BDF2
:100C900016BC80E387BDEEE6F0E080818260808351
:100CA00083E085BDA091D708B091D808CD91CDBF84
:100CB000DD91DEBFFF91EF91DF91CF91BF91AF91B9
:100CC0009F918F917F916F915F914F913F912F9164
:100CD0001F910F91FF90EF90DF90CF90BF90AF905A
:100CE0009F908F907F906F905F904F903F902F904C
:100CF0001F900F900CBE0F900BBE0F900FBE0F9069
:100D0000089581E008950F920FB6F8940F920BB6F4
:100D10000F920CB60F921F9211242F923F924F9276
:100D20005F926F927F928F929F92AF92BF92CF927B
:100D3000DF92EF92FF920F931F932F933F934F9366
:100D40005F936F937F938F939F93AF93BF93CF9353
:100D5000DF93EF93FF93A091D708B091D8080DB619
:100D60000D920EB60D9264D7A091D708B091D80815
:100D7000CD91CDBFDD91DEBFFF91EF91DF91CF919E
:100D8000BF91AF919F918F917F916F915F914F91A3
:100D90003F912F911F910F91FF90EF90DF90CF9097
:100DA000BF90AF909F908F907F906F905F904F908B
:100DB0003F902F901F900F900CBE0F900BBE0F9086
:100DC0000FBE0F9008950F920FB6F8940F920BB6C6
:100DD0000F920CB60F921F9211242F923F924F92B6
:100DE0005F926F927F928F929F92AF92BF92CF92BB
:100DF000DF92EF92FF920F931F932F933F934F93A6
:100E00005F936F937F938F939F93AF93BF93CF9392
:100E1000DF93EF93FF93A091D708B091D8080DB658
:100E20000D920EB60D9232D5811102D7A091D7083E
:100E3000B091D808CD91CDBFDD91DEBFFF91EF918C
:100E4000DF91CF91BF91AF919F918F917F916F91E2
:100E50005F914F913F912F911F910F91FF90EF90D4
:100E6000DF90CF90BF90AF909F908F907F906F90CA
:100E70005F904F903F902F901F900F900CBE0F905F
:100E80000BBE0F900FBE0F9008959DDF18951F9316
:100E9000CF93DF93EC01142F8C8D81110CC08881CE
:100EA0009981892B09F047C08A819B810E94DB0FC1
:100EB0001B821A8247C0411118C0482F50E08C8114
:100EC0009D810E9453102C8D8C819D81820F911DDC
:100ED0009D838C832A813B818217930770F18881DF
:100EE00099819D838C8380E02DC0482F50E08E81B6
:100EF0009F810E9453102C8D30E03195219531094E
:100F00008E819F81820F931F9F838E836881798159
:100F10008617970730F48A819B81280F391F3F83FA
:100F20002E83123061F48A8D882359F08A8D815086
:100F30008A8F80E007C080E005C080E003C080E0C9
:100F400001C080E09A8D9F5F9A8FDF91CF911F91B2
:100F50000895FC01CB01448D4423A1F050E026818B
:100F60003781240F351F37832683628173812617CB
:100F7000370720F02081318137832683668177818E
:100F80000C94531008950F931F93CF93DF93EC01AC
:100F90000FB6F8940F928E8D1816A4F489898823C1
:100FA00089F08E010F5E1F4F03C08989882351F09D
:100FB000C80114D781119DD78E8D81508E8F8E8D53
:100FC00018169CF38FEF8E8F0F900FBE0FB6F8940C
:100FD0000F928D8D1816A4F48885882389F08E01D0
:100FE000085F1F4F03C08885882351F0C801F6D6DB
:100FF00081117FD78D8D81508D8F8D8D18169CF32B
:101000008FEF8D8F0F900FBEDF91CF911F910F91BA
:101010000895CF93DF93EC010FB6F8940F92888177
:1010200099812C8D30E07B8D729FA001739F500DB4
:101030001124FC01E40FF51FFB83EA831A8E9D83C4
:101040008C83421B530B840F951F9F838E838FEFDE
:101050008D8F8E8F61110AC08885882369F0CE013B
:101060000896BCD6813041F44EDE06C0CE0108960B
:10107000C6D9CE014196C3D90F900FBE81E0DF9152
:10108000CF9108950F931F93CF93DF93182F062FBF
:101090008823D1F08FE190E07CD9EC010097B1F08A
:1010A000109FC0011124019674D999838883892BDC
:1010B00031F01B8F0C8F61E0CE01ABDF07C0CE019A
:1010C0009DD9C0E0D0E002C0C0E0D0E0CE01DF9109
:1010D000CF911F910F9108959F92AF92BF92CF929F
:1010E000DF92EF92FF920F931F93CF93DF9300D085
:1010F0001F921F92CDB7DEB78C016B015D834C83CD
:10110000A22EB12C992493947C0188E0E80EF11C66
:101110000FB6F8940F92F801928D838D981718F0FE
:10112000F2E0AF1215C04A2DB601C801B0DEF801D9
:101130009189992339F0C801419650D6813021F424
:10114000E2DD02C08111DFDD0F900FBE81E046C0FD
:10115000EC81FD81EF2B21F40F900FBE80E03EC0AB
:10116000B11004C0CE01019681D6B92C0F900FBEEC
:1011700078D30FB6F8940F92F801858D8F3F09F45C
:10118000158EF801868D8F3F09F4168E0F900FBED5
:10119000BE016C5F7F4FCE01019673D681111AC0DC
:1011A0000FB6F8940F92F801928D0F900FBEF801D0
:1011B000838D98130BC06C817D81C701E4D5C80174
:1011C000E2DE22D48111A4CF9EDDA2CFC801DBDEF6
:1011D0001BD49ECFC801D7DE17D480E00F900F90AC
:1011E0000F900F900F90DF91CF911F910F91FF9073
:1011F000EF90DF90CF90BF90AF909F900895CF93E6
:10120000DF938FE190E0C5D8EC010097E1F01B82FD
:101210001A82198218821D821C821F821E821A8ED7
:1012200081E08B8F1C8E8FEF8D8F8E8FCE01089675
:10123000E6D8CE014196E3D820E040E050E060E0FF
:1012400070E0CE0149DFCE01DF91CF9108950F9379
:101250001F93CF93DF93EC018A019A8D8B8D9817A2
:1012600010F0223011F5422FCE0111DE882331F02B
:101270000115110519F081E0F80180838E8D8F3FF3
:1012800079F48989882399F0CE014196A7D58823DE
:1012900081F00115110579F081E0F80180830CC01F
:1012A0008E8D8F5F8E8F81E007C080E005C081E06A
:1012B00003C081E001C081E0DF91CF911F910F91C8
:1012C00008959F92AF92BF92CF92DF92EF92FF92DA
:1012D0000F931F93CF93DF9300D01F921F92CDB730
:1012E000DEB78C016B015D834C83B22EA12C992457
:1012F00093947C0181E1E80EF11C0FB6F8940F92F3
:10130000F801828D882369F1E680F780B601C80173
:1013100020DEB11017C0F801828D8150828F80814C
:101320009181892B21F486D6F80193838283F80179
:101330008085882391F0C801089650D5813069F4E2
:10134000E2DC0BC0F801F782E6828189882329F06C
:10135000C801419643D58111D6DC0F900FBE81E0C4
:1013600052C04C815D81452B21F40F900FBE80E06F
:101370004AC0A11004C0CE01019678D5A92C0F90C7
:101380000FBE6FD20FB6F8940F92F801858D8F3F84
:1013900009F4158EF801868D8F3F09F4168E0F9093
:1013A0000FBEBE016C5F7F4FCE0101966AD58111E1
:1013B00026C00FB6F8940F92F801828D0F900FBEE1
:1013C000811119C0F80180819181892B49F40FB6F0
:1013D000F8940F92F801828193818FD50F900FBE00
:1013E0006C817D81C701CFD4C801CDDD0DD38111C2
:1013F00084CF89DC82CFC801C6DD06D37ECFC80189
:10140000C2DD02D380E00F900F900F900F900F90ED
:10141000DF91CF911F910F91FF90EF90DF90CF90D0
:10142000BF90AF909F900895FC01718360834283C9
:10143000148213820895FC019481A081B181A90FC7
:10144000B11D8C919F5F94832281921710F0921BA3
:1014500094839381915093830895FC01462F838157
:101460002281821778F4348190E0830F911D622FDE
:1014700070E0F2D5A081B181A80FB91F4C93838190
:101480008F5F83830895FC0181E02281938129137A
:1014900080E0089521E0FC018381811101C020E0FA
:1014A000822F0895E0919608F0919708808181112C
:1014B00007C08FEF9FEF9093050280930402089579
:1014C000E0919608F09197080580F681E02D06805E
:1014D000F781E02D8281938190930502809304022D
:1014E0000895CF93DF93EC01E091D708F091D808ED
:1014F000938382838091750890917608C817D907E5
:1015000068F46091D7087091D80880919408909100
:1015100095086E5F7F4F0E94320217C06091D70816
:101520007091D80880919608909197086E5F7F4FD0
:101530000E9432028091040290910502C817D907D7
:1015400020F4D0930502C0930402DF91CF91089557
:101550004F925F926F927F928F929F92AF92BF92C3
:10156000CF92DF92EF92FF920F931F93CF93DF936F
:101570004C015B012A01390183E290E00E94C9011C
:10158000EC01009709F4E7C0C114D10409F0CCC004
:10159000C2010E94C901988F8F8B892B09F0C6C0A8
:1015A000CE010E94FE01D7C0CF013191DA013D93F7
:1015B000AD01DC018C91882311F02150A9F718A20C
:1015C000102F053008F014E01E8B19A31AA25E013B
:1015D000B2E0AB0EB11CC5010E940D02CE010C960B
:1015E0000E940D02D987C88785E090E0811B910990
:1015F0009D878C87DB8BCA8BA301B401C601D4DA2B
:1016000099838883E114F10419F0F701D183C08331
:101610000FB6F8940F92809177088F5F80937708C8
:101620008091D7089091D808892B09F03FC0D093BA
:10163000D808C093D70880917708813009F045C059
:101640000F2EFAEAEF2EF8E0FF2EF02D0F2EF7ED19
:10165000CF2EF8E0DF2EF02DC7010E94FF01F9E048
:10166000EF0EF11CEC14FD04B9F781EA98E00E943A
:10167000FF0188E998E00E94FF018BE898E00E9452
:10168000FF0182E898E00E94FF0188E798E00E944D
:10169000FF0181EA98E0909397088093960888E983
:1016A00098E090939508809394080FC080917308F8
:1016B00081110BC0E091D708F091D80886890817EE
:1016C00020F0D093D808C093D70880916F088F5F1F
:1016D00080936F088E8990917408981710F4809306
:1016E000740890E09C01220F331F220F331F220F3A
:1016F000331F820F931FB5018655974F0E94110229
:101700000F900FBE80917308882351F0E091D708A5
:10171000F091D8088689801728F4F5DA81E01CC09A
:1017200081E01AC081E018C0D88ECF8A81E0481AC3
:101730005108CF88D88CC40CD51CD5018C91898FC9
:101740008C91882309F43BCFAE01465E5F4FF501D3
:10175000319627E029CF8FEFDF91CF911F910F9125
:10176000FF90EF90DF90CF90BF90AF909F908F90C1
:101770007F906F905F904F9008950F931F93CF933A
:10178000DF93EC01009709F43EC08091D708909157
:10179000D808C817D907B9F10FB6F8940F928A85FF
:1017A0009B858857984069F58C899D8928E08B38FE
:1017B000920739F1892B29F58E010E5F1F4FC80161
:1017C0000E9463028E8990917408981710F4809398
:1017D000740890E09C01220F331F220F331F220F49
:1017E000331F820F931FB8018655974F0E94110235
:1017F000E091D708F091D8089E898689981708F05B
:1018000082DA0F900FBEDF91CF911F910F91089553
:10181000AF92BF92CF92DF92EF92FF920F93A12CE3
:10182000B12CC12CD12CE12CF12C00E020E030E0D7
:1018300045E550E069E872E08FED9DE089DE81309A
:1018400041F4F8948093730810927608109275080A
:101850001DDA0F91FF90EF90DF90CF90BF90AF9087
:10186000089580916E088F5F80936E0808950FB67B
:10187000F8940F9280917508909176080F900FBEA2
:10188000089580917508909176080895CF92DF921F
:10189000EF92FF920F931F93CF93DF9380916E0887
:1018A000811199C080917508909176080196909366
:1018B000760880937508E0907508F0907608E1143A
:1018C000F104B1F4809196089091970820919408C2
:1018D0003091950830939708209396089093950837
:1018E00080939408809170088F5F80937008DADD90
:1018F0008091040290910502E816F90608F454C09C
:10190000D12CCC24C39401C0DC2CE0919608F0913A
:1019100097088081811107C08FEF9FEF9093050298
:101920008093040242C0E0919608F09197080580E8
:10193000F681E02DC681D7812A813B81E216F3062C
:1019400028F430930502209304022FC08E010E5F0D
:101950001F4FC8010E9463028C899D89892B21F049
:10196000CE010C960E9463022E8980917408821722
:1019700010F42093740830E0C901880F991F880F74
:10198000991F880F991F820F931FB8018655974F93
:101990000E941102E091D708F091D8089E898689AB
:1019A000981708F0B1CFB1CFD12CE091D708F091C2
:1019B000D808868990E0FC01EE0FFF1FEE0FFF1F95
:1019C000EE0FFF1F8E0F9F1FFC01E655F74F808122
:1019D000823040F409C0809172088F5F8093720852
:1019E000D12C02C0DD24D39480917108882311F09A
:1019F000DD24D3948D2DDF91CF911F910F91FF9016
:101A0000EF90DF90CF900895DF92EF92FF920F93C7
:101A10001F93CF93DF930FB6F8940F9280916E08C7
:101A2000815080936E0880916E0881115FC0809113
:101A30007708882309F45CC00F2EFBE8EF2EF8E04E
:101A4000FF2EF02DDD24D39430C0E0919008F0916A
:101A50009108C681D781CE010C960E9463028E0147
:101A60000E5F1F4FC8010E9463028E899091740817
:101A7000981710F48093740890E09C01220F331F94
:101A8000220F331F220F331F820F931FB801865579
:101A9000974F0E941102E091D708F091D8089E89D3
:101AA0008689981710F0D0927108F7018081811112
:101AB000CCCF80917208882391F08091720888239E
:101AC00071F0C1E0E3DE8111C0937108809172086A
:101AD000815080937208809172088111F3CF8091B8
:101AE0007108813039F40FD981E005C080E003C06E
:101AF00080E001C080E00F900FBEDF91CF911F9179
:101B00000F91FF90EF90DF9008950F931F93CF9365
:101B1000DF938C01EB01A5DE80917508909176082A
:101B2000F80120813181C20FD31F8217930748F437
:101B3000C217D307F8F4D183C0838C179D0788F4AC
:101B400007C0C217D30790F08C179D0778F012C01A
:101B50008091D7089091D80802960E946302CE0126
:101B6000C0DC52DF81110AC0CED808C0F801D18391
:101B7000C083EECFF801D183C083F3CFDF91CF9143
:101B80001F910F910895CF93DF93EC01009799F087
:101B900068DE8091750890917608C80FD91F8091F2
:101BA000D7089091D80802960E946302CE0199DC72
:101BB0002BDF811101C0A7D8DF91CF9108950F2E9F
:101BC000FAEAEF2EF8E0FF2EF02DC2E8D8E026C0AA
:101BD00048DE188119DF112309F10FB6F8940F922E
:101BE000E0918708F091880806811781C801029664
:101BF0000E946302809177088150809377088091DA
:101C000081088150809381080F900FBEF801878969
:101C1000908D0E94FE01C8010E94FE018091810802
:101C20008111D6CFF70180818230C0F36CD8F6CF16
:101C300080916E08882321F081E0809371080895D7
:101C4000109271088091740890E0FC01EE0FFF1F64
:101C5000EE0FFF1FEE0FFF1F8E0F9F1FFC01E655BB
:101C6000F74F8081811117C0809174088150809353
:101C700074088091740890E0FC01EE0FFF1FEE0FD6
:101C8000FF1FEE0FFF1F8E0F9F1FFC01E655F74F42
:101C90008081882349F3E0917408F0E0CF01880F38
:101CA000991F880F991F880F991FE80FF91FE65594
:101CB000F74FA181B28112960D90BC91A02DB283F5
:101CC000A183CF010396A817B90731F412968D911D
:101CD0009C911397928381830180F281E02D86810C
:101CE00097819093D8088093D70808950F931F93F6
:101CF000CF93DF93EC010FB6F8940F92009721F485
:101D0000C091D708D091D8088E010E5F1F4FC8012F
:101D10000E9463028C899D89892B21F0CE010C964B
:101D20000E946302B80188E798E00E9411020F90B8
:101D30000FBE8091D7089091D808C817D907A1F491
:101D400080917308882319F00E94830617C0809140
:101D5000770890917808981305C01092D8081092CF
:101D6000D7080CC065DF0AC080917308882331F062
:101D70000FB6F8940F9296DB0F900FBEDF91CF91C4
:101D80001F910F910895CF93DF93EB016091D708D6
:101D90007091D808645F7F4F0E9432028091D7080B
:101DA0009091D80802960E946302CF3F8FEFD80728
:101DB00059F46091D7087091D8086E5F7F4F88E71B
:101DC00098E00E94110207C08091750890917608F2
:101DD0008C0F9D1F86DBDF91CF9108950F931F938A
:101DE000CF93DF93DC011596ED91FC911697C68198
:101DF000D7818E01045F1F4FC8010E94630280914A
:101E00006E0881111CC00A501109C8010E946302AA
:101E10008E8990917408981710F48093740890E05C
:101E20009C01220F331F220F331F220F331F820FFB
:101E3000931FB8018655974F0E94110205C0B80143
:101E40008BE898E00E941102E091D708F091D80841
:101E50009E898689891720F481E08093710801C0EA
:101E600080E0DF91CF911F910F910895209170082C
:101E7000FC012083209175083091760832832183FC
:101E800008950FB6F8940F92409175085091760816
:101E9000DB012D913C912F3FBFEF3B0711F1E0910A
:101EA0007008DC01FC91FE1739F01196ED91FC9160
:101EB00012974E175F07B8F4DC011196ED91FC9173
:101EC0001297DA01AE1BBF0BA217B30770F4E41B25
:101ED000F50B2E0F3F1FFB0131832083C7DF80E00E
:101EE00005C080E003C081E001C081E00F900FBE1B
:101EF000089581E08093710808950F931F93CF9305
:101F0000DF93EC01009709F451C08E89E091D70866
:101F1000F091D8089689891708F048C02C853D852E
:101F200033235CF0E091D708F091D808968925E03A
:101F300030E0291B31093D872C8790E09C01220F5E
:101F4000331F220F331F220F331F820F931F86551B
:101F5000974F2A853B852817390711F58E010E5FAB
:101F60001F4FC8010E946302E091D708F091D80882
:101F700086898E8B90917408981710F4809374085A
:101F800090E09C01220F331F220F331F220F331FBB
:101F9000820F931FB8018655974F0E94110206C009
:101FA000E091D708F091D80886898E8BDF91CF9188
:101FB0001F910F9108950F931F93CF93DF93EC011F
:101FC000009771F18AA181508AA32E8999A12917BE
:101FD00049F1811129C08E010E5F1F4FC8010E9477
:101FE000630289A18E8B25E030E0281B31093D87F3
:101FF0002C8790917408981710F48093740890E0DF
:102000009C01220F331F220F331F220F331F820F19
:10201000931FB8018655974F0E94110281E005C0B9
:1020200080E003C080E001C080E0DF91CF911F918C
:102030000F9108958091D7089091D808892B39F095
:10204000E091D708F091D80882A18F5F82A3809198
:10205000D7089091D808089597FB072E16F400949E
:1020600006D077FD08D00BD007FC05D03EF4909544
:1020700081959F4F0895709561957F4F0895AA1B94
:10208000BB1B51E107C0AA1FBB1FA617B70710F063
:10209000A61BB70B881F991F5A95A9F78095909595
:1020A000BC01CD010895FB01DC0102C001900D923D
:1020B00041505040D8F70895BB274A3031F4992356
:1020C00022F4BDE2909581959F4F01C0BB27FB0193
:1020D0005527AA27880F991FAA1FA41710F0A41B21
:1020E00083955051B9F7A05DAA3308F0A95DA1937B
:1020F000009779F7B111B1931192CB0100C0DC01C7
:10210000FC01672F71917723E1F7329704C07C912E
:102110006D9370836291AE17BF07C8F30895F8946A
:02212000FFCFEF
:1021220088138813FFFF0A0A5250492048616E64DF
:102132007368616B6520446F6E650A0A000A0A4D76
:10214200792048616E647368616B6520446F6E65C7
:102152000A0A0046726F6E74203A004C656674205B
:102162003A005269676874203A0020636D2C20009F
:1021720020636D0A006D7954696D6572006D617836
:10218200536F6E6172005461736B2031005461733E
:102192006B2032005250495F526563656976650073
:0E21A2005250495F53656E640049444C45003D
:00000001FF
