S01400004672656552544F53323536302E7372656379
S113000071C000008FC000008DC000008BC00000D4
S113001089C0000087C0000085C0000083C00000C4
S113002081C000007FC000007DC000007BC00000D4
S113003079C0000077C0000075C0000073C00000E4
S113004071C000006FC000006DC000006BC00000F4
S113005069C000004FC6000065C0000063C0000016
S113006061C000007BC30000E7C300005BC0000068
S113007059C0000059C2000055C0000053C0000020
S113008051C000004FC000004DC000004BC0000034
S11300902DC300009BC3000045C0000043C0000006
S11300A041C000003FC000003DC000003BC0000054
S11300B039C0000037C0000035C0000033C0000064
S11300C031C000002FC000002DC000002BC0000074
S11300D029C0000027C0000025C0000023C0000084
S11300E021C0000011241FBECFEFD1E2DEBFCDBF7F
S11300F000E00CBF12E0A0E0B2E0ECEEFEE100E0B4
S11301000BBF02C007900D92AC38B107D9F729E0B4
S1130110ACE8B2E001C01D92A837B207E1F7CFD036
S11301200C94740F6DCF2E9A88EE93E00E94A90C64
S113013085B115B888EE93E00E94A90CF4CF2F9AEC
S113014084EF91E00E94A90C85B115B884EF91E089
S11301500E94A90CF4CF4ED483E092E011C4089518
S11301603ED48AE192E00CC40895CF93DF93CDB7D7
S1130170DEB7A6970FB6F894DEBF0FBECDBF88E0FA
S1130180E0E3F2E0DE01159601900D928A95E1F725
S113019087E0E8E3F2E0DE011D9601900D928A9576
S11301A0E1F788E0EFE3F2E0DE01549601900D926E
S11301B08A95E1F786E0E7E4F2E0DE015C960190DF
S11301C00D928A95E1F785E0EDE4F2E0DE01929686
S11301D001900D928A95E1F796D187E29BD14AE08E
S11301E0BE016F5F7F4F0E94410FCE010596C8D3B9
S11301F0CE010196C5D3CE014C96C2D386E28AD1F4
S11302004AE0BE016F5F7F4F0E94410FCE010D9601
S1130210B7D3CE010196B4D3CE014C96B1D385E2C7
S113022079D14AE0BE016F5F7F4F0A970E94410F68
S1130230CE014496A5D3CE010196A2D3CE018296D7
S11302409FD386E990E00E94A90CC6CF05D236D28E
S1130250FECF8CEC809364008EE380936500089558
S1130260109280001092810010926F001092B000E2
S11302701092B100109270001092900010929100B0
S1130280109271001092A0001092A10010927200BE
S11302901092200110922101109273000895CF93BF
S11302A0CFB7F894DDDFD5DFFDD21CD371D1999A95
S11302B084B1806C84B9CFBF7894CF910895CF93E3
S11302C0DF93CDB7DEB72C970FB6F894DEBF0FBE21
S11302D0CDBFE5DFA12CB12CC12CD12CCE010196D0
S11302E07C0104E09C0149E650E062E572E086E2AC
S11302F091E00E94DB09CE0107967C0102E020E038
S113030030E04DE151E06AE572E085EB90E00E9457
S1130310DB09CE010B967C0101E020E030E049E6E8
S113032050E063E672E083E990E00E94DB09CE01CD
S113033009967C0120E030E049E650E06AE672E08C
S11303408FE990E00E94DB09CE0105967C0103E071
S113035020E030E047E850E061E772E08BEA90E0AB
S11303600E94DB09CE0103967C0102E020E030E02C
S113037047E850E06DE772E080EB90E00E94DB0913
S11303800E943B0BA6CFCF93DF93EC010E94640B3A
S113039080918C0290918D02892B31F481E992E055
S11303A090938D0280938C0240918E0250918F0223
S11303B09E01240F351F2B3D85E0380770F442174A
S11303C0530770F4C0918C02D0918D02C40FD51FD5
S11303D030938F0220938E0205C0C0E0D0E002C0AB
S11303E0C0E0D0E00E94280CCE01DF91CF910895A7
S11303F00895FC010396928381832FEF3FEF3483AA
S11304002383968385839087878310820895FC01D4
S1130410118610860895CF93DF939C01FB01DC01C4
S11304201196CD91DC911297D383C2838C819D81E7
S1130430958384838C819D81DC0113967C936E93D8
S113044012977D836C8331872087F90180818F5FC8
S11304508083DF91CF910895CF93DF93EB0148819F
S113046059814F3F2FEF520721F4FC01A781B0853A
S11304700DC0DC0113961296ED91FC911397208127
S113048031814217530710F0DF01F5CF1296ED9139
S1130490FC911397FB83EA83D583C483BD83AC8328
S11304A01396DC93CE93129799878887FC01208159
S11304B02F5F2083DF91CF910895CF93DF93FC01C9
S11304C0A085B185C281D381848195819D838C83EC
S11304D0C481D581828193819B838A831196CD9136
S11304E0DC911297CE17DF0731F48C819D8112962F
S11304F09C938E931197118610868C9181508C93C6
S1130500DF91CF910895A19A89E190E0B7D084B3A7
S113051014BA08959AD090E09C01220F331F220F41
S1130520331F820F931F08951F920F920FB60F92DD
S113053011240BB60F922F933F934F935F936F93B6
S11305407F938F939F93AF93BF93EF93FF93809188
S113055079008093D70820E040E050E060E070E04C
S11305608091DA089091DB08A7D5FF91EF91BF91B4
S1130570AF919F918F917F916F915F914F913F9137
S11305802F910F900BBE0F900FBE0F901F901895D8
S11305908FE880937A0010927B0080E680937C0041
S11305A043E060E081E0A3D49093DB088093DA0811
S11305B081E05AD59093D9088093D80820E040E090
S11305C050E060E070E0BDC40895CF93C82F20E0F0
S11305D04FEF5FEF60E070E08091D8089091D90808
S11305E0A5D5ECE7F0E080819C2F9F718076892B64
S11305F08083EBE7F0E02081C0728C2F90E095952A
S1130600879595958795922F9076892B8083EAE735
S1130610F0E0808180648083CF91089520E04FEFE3
S11306205FEF60E070E08091DA089091DB087ED59E
S113063020E040E050E060E070E08091D8089091C4
S1130640D9087FD48091D7080895CF93C82FBDDFF0
S11306508C2FE4DFCF9108959093DF088093DE0818
S1130660FC01808191810E945C0D43E060E081E0A7
S11306703ED49093DD088093DC08089546B54F5F1F
S11306809C01992314F42D5F3F4F3595279535959B
S11306902795240F20930002E091DE08F091DF08F3
S11306A0808191819DD720E042E050E060E070E0DD
S11306B08091DC089091DD0839C5089586B5909144
S11306C00002891790F020E040E050E060E070E024
S11306D08091DC089091DD0834D4E091DE08F0913B
S11306E0DF08808191810C945C0D08951F920F9214
S11306F00FB60F9211240BB60F922F933F934F9383
S11307005F936F937F938F939F93AF93BF93EF9375
S1130710FF936091CE0083E799E0D4D520E040E0D8
S113072050E060E070E08091670990916809C4D45A
S113073083E799E0DDD5FF91EF91BF91AF919F9150
S11307408F917F916F915F914F913F912F910F9076
S11307500BBE0F900FBE0F901F9018951F920F9213
S11307600FB60F9211240BB60F922F933F934F9312
S11307705F936F937F938F939F93AF93BF93EF9305
S1130780FF936091C60080E099E09CD520E040E0B2
S113079050E060E070E080916709909168098CD422
S11307A080E099E0A5D5FF91EF91BF91AF919F9122
S11307B08F917F916F915F914F913F912F910F9006
S11307C00BBE0F900FBE0F901F9018951F920F92A3
S11307D00FB60F9211240BB60F922F933F934F93A2
S11307E05F936F937F938F939F93AF93BF93EF9395
S11307F0FF9389E699E083D5882331F089E699E06F
S11308004FD58093CE0005C0E9ECF0E080818F7D68
S11308108083FF91EF91BF91AF919F918F917F91D1
S11308206F915F914F913F912F910F900BBE0F905D
S11308300FBE0F901F9018951F920F920FB60F9234
S113084011240BB60F922F933F934F935F936F93A3
S11308507F938F939F93AF93BF93EF93FF938EE612
S113086099E04DD5882331F08EE699E019D580932F
S1130870C60005C0E1ECF0E080818F7D8083FF91AC
S1130880EF91BF91AF919F918F917F916F915F9104
S11308904F913F912F910F900BBE0F900FBE0F9071
S11308A01F9018951092C50087E68093C40088EBCA
S11308B08093C10086E08093C20040E265E279E063
S11308C080E099E0E6D440E265E079E08EE699E0E4
S11308D0E0D443E060E081E00AD39093660980931A
S11308E0650908951092CD0087E68093CC0088EBCB
S11308F08093C90086E08093CA0040E260EE78E00D
S113090083E799E0C6D440E265E479E089E699E0BA
S1130910C0D443E060E081E0EAD290936809809318
S113092067090895CF93C82F8EE699E0E1D4811129
S1130930FBCF6C2F8EE699E0C5D4E1ECF0E080812A
S113094080628083E0ECF0E0808180648083CF91DA
S11309500895CF93C82F89E699E0CAD48111FBCFBB
S11309606C2F89E699E0AED4E9ECF0E080818062F6
S11309708083E8ECF0E0808180648083CF910895E7
S1130980CF93DF93EC018881882329F02196CADF75
S113099089918111FCCFDF91CF910895CF9320E00D
S11309A04FEF5FEF60E070E0809165099091660918
S11309B0BDD383E799E074D4C82F83E799E09FD42B
S11309C0882351F020E040E050E060E070E0809146
S11309D0650990916609B5D28C2FCF91089580E076
S11309E0B8DFDCDF853521F48FEFB3DF80E00895D5
S11309F08FEF0895D3DF81110AC085E5AADFCEDF2A
S1130A0091E0811101C090E0892F819508958FEFC5
S1130A10089531E1FC013083319722E2208331973C
S1130A20A3E3A08331976083319770833197108259
S1130A3031971082319760E8608331971082319743
S1130A40108231971082319762E06083319763E0BE
S1130A506083319764E06083319765E06083319708
S1130A6066E06083319767E06083319768E0608374
S1130A70319769E06083319760E160833197308317
S1130A80319732E13083319733E13083319734E168
S1130A903083319735E13083319736E130833197B4
S1130AA037E13083319738E13083319739E130834E
S1130AB0319730E23083319731E2308331972083AC
S1130AC0319723E2208331974083319750833197C4
S1130AD026E22083319727E22083319728E220837E
S1130AE0319729E22083319720E32083319721E352
S1130AF020838997089582E084BD16BC80E387BD76
S1130B00EEE6F0E080818260808383E085BDA09181
S1130B10D508B091D608CD91CDBFDD91DEBFFF9150
S1130B20EF91DF91CF91BF91AF919F918F917F9181
S1130B306F915F914F913F912F911F910F91FF9072
S1130B40EF90DF90CF90BF90AF909F908F907F9069
S1130B506F905F904F903F902F901F900F900CBE1E
S1130B600F900BBE0F900FBE0F90089581E0089573
S1130B700F920FB6F8940F920BB60F920CB60F9219
S1130B801F9211242F923F924F925F926F927F9205
S1130B908F929F92AF92BF92CF92DF92EF92FF9289
S1130BA00F931F932F933F934F935F936F937F9371
S1130BB08F939F93AF93BF93CF93DF93EF93FF9361
S1130BC0A091D508B091D6080DB60D920EB60D922F
S1130BD015D7A091D508B091D608CD91CDBFDD91A0
S1130BE0DEBFFF91EF91DF91CF91BF91AF919F91C4
S1130BF08F917F916F915F914F913F912F911F91B1
S1130C000F91FF90EF90DF90CF90BF90AF909F90A7
S1130C108F907F906F905F904F903F902F901F9098
S1130C200F900CBE0F900BBE0F900FBE0F90089547
S1130C300F920FB6F8940F920BB60F920CB60F9258
S1130C401F9211242F923F924F925F926F927F9244
S1130C508F929F92AF92BF92CF92DF92EF92FF92C8
S1130C600F931F932F933F934F935F936F937F93B0
S1130C708F939F93AF93BF93CF93DF93EF93FF93A0
S1130C80A091D508B091D6080DB60D920EB60D926E
S1130C9021D58111B3D6A091D508B091D608CD91B4
S1130CA0CDBFDD91DEBFFF91EF91DF91CF91BF9179
S1130CB0AF919F918F917F916F915F914F913F91F0
S1130CC02F911F910F91FF90EF90DF90CF90BF90E5
S1130CD0AF909F908F907F906F905F904F903F90D8
S1130CE02F901F900F900CBE0F900BBE0F900FBE55
S1130CF00F9008959DDF18951F93CF93DF93EC0118
S1130D00142F8C8D81110CC088819981892B09F055
S1130D1047C08A819B810E94C00E1B821A8247C0F1
S1130D20411118C0482F50E08C819D810E94380FDA
S1130D302C8D8C819D81820F911D9D838C832A81B2
S1130D403B818217930770F1888199819D838C83FD
S1130D5080E02DC0482F50E08E819F810E94380F83
S1130D602C8D30E03195219531098E819F81820F40
S1130D70931F9F838E83688179818617970730F448
S1130D808A819B81280F391F3F832E83123061F49F
S1130D908A8D882359F08A8D81508A8F80E007C01C
S1130DA080E005C080E003C080E001C080E09A8D4F
S1130DB09F5F9A8FDF91CF911F910895FC01CB0122
S1130DC0448D4423A1F050E026813781240F351F40
S1130DD037832683628173812617370720F02081A9
S1130DE0318137832683668177810C94380F089587
S1130DF00F931F93CF93DF93EC010FB6F8940F92E8
S1130E008E8D1816A4F48989882389F08E010F5ECB
S1130E101F4F03C08989882351F0C801C4D68111AA
S1130E204DD78E8D81508E8F8E8D18169CF38FEF3B
S1130E308E8F0F900FBE0FB6F8940F928D8D1816EB
S1130E40A4F48885882389F08E01085F1F4F03C0AE
S1130E508885882351F0C801A6D681112FD78D8D9E
S1130E6081508D8F8D8D18169CF38FEF8D8F0F9081
S1130E700FBEDF91CF911F910F910895CF93DF9310
S1130E80EC010FB6F8940F92888199812C8D30E093
S1130E907B8D729FA001739F500D1124FC01E40F00
S1130EA0F51FFB83EA831A8E9D838C83421B530BAD
S1130EB0840F951F9F838E838FEF8D8F8E8F61118B
S1130EC00AC08885882369F0CE0108966CD68130E3
S1130ED041F44EDE06C0CE0108968BDACE0141966F
S1130EE088DA0F900FBE81E0DF91CF9108950F93C0
S1130EF01F93CF93DF93182F062F8823D1F08FE110
S1130F0090E041DAEC010097B1F0109FC001112488
S1130F10019639DA99838883892B31F01B8F0C8FE2
S1130F2061E0CE01ABDF07C0CE0162DAC0E0D0E001
S1130F3002C0C0E0D0E0CE01DF91CF911F910F91AC
S1130F4008959F92AF92BF92CF92DF92EF92FF9259
S1130F500F931F93CF93DF9300D01F921F92CDB7AF
S1130F60DEB78C016B015D834C83A22EB12C9924D6
S1130F7093947C0188E0E80EF11C0FB6F8940F926C
S1130F80F801928D838D981718F0F2E0AF1215C016
S1130F904A2DB601C801B0DEF8019189992339F0D0
S1130FA0C801419600D6813021F4E2DD02C08111EE
S1130FB0DFDD0F900FBE81E046C0EC81FD81EF2B99
S1130FC021F40F900FBE80E03EC0B11004C0CE01EA
S1130FD0019631D6B92C0F900FBE76D30FB6F89484
S1130FE00F92F801858D8F3F09F4158EF801868DD7
S1130FF08F3F09F4168E0F900FBEBE016C5F7F4FBA
S1131000CE01019623D681111AC00FB6F8940F921F
S1131010F801928D0F900FBEF801838D98130BC0C9
S11310206C817D81C70194D5C801E2DE11D48111A0
S1131030A4CF9EDDA2CFC801DBDE0AD49ECFC801B7
S1131040D7DE06D480E00F900F900F900F900F9092
S1131050DF91CF911F910F91FF90EF90DF90CF9090
S1131060BF90AF909F900895CF93DF938FE190E06E
S11310708AD9EC010097E1F01B821A821982188246
S11310801D821C821F821E821A8E81E08B8F1C8E11
S11310908FEF8D8F8E8FCE010896ABD9CE014196FE
S11310A0A8D920E040E050E060E070E0CE0149DFE4
S11310B0CE01DF91CF9108950F931F93CF93DF93C8
S11310C0EC018A019A8D8B8D981710F0223011F55E
S11310D0422FCE0111DE882331F00115110519F0DC
S11310E081E0F80180838E8D8F3F79F4898988238C
S11310F099F0CE01419657D5882381F00115110549
S113110079F081E0F80180830CC08E8D8F5F8E8F23
S113111081E007C080E005C081E003C081E001C038
S113112081E0DF91CF911F910F9108959F92AF922B
S1131130BF92CF92DF92EF92FF920F931F93CF93C0
S1131140DF9300D01F921F92CDB7DEB78C016B01E5
S11311505D834C83B22EA12C992493947C0181E16C
S1131160E80EF11C0FB6F8940F92F801828D8823D3
S113117069F1E680F780B601C80120DEB11017C01E
S1131180F801828D8150828F80819181892B21F495
S113119036D6F80193838283F8018085882391F001
S11311A0C801089600D5813069F4E2DC0BC0F8016F
S11311B0F782E6828189882329F0C8014196F3D415
S11311C08111D6DC0F900FBE81E052C04C815D814D
S11311D0452B21F40F900FBE80E04AC0A11004C03B
S11311E0CE01019628D5A92C0F900FBE6DD20FB653
S11311F0F8940F92F801858D8F3F09F4158EF8014C
S1131200868D8F3F09F4168E0F900FBEBE016C5F62
S11312107F4FCE0101961AD5811126C00FB6F894DE
S11312200F92F801828D0F900FBE811119C0F80141
S113123080819181892B49F40FB6F8940F92F801BB
S1131240828193813FD50F900FBE6C817D81C70150
S11312507FD4C801CDDDFCD2811184CF89DC82CF5B
S1131260C801C6DDF5D27ECFC801C2DDF1D280E06F
S11312700F900F900F900F900F90DF91CF911F91CF
S11312800F91FF90EF90DF90CF90BF90AF909F9021
S11312900895FC017183608342831482138208954C
S11312A0FC019481A081B181A90FB11D8C919F5F34
S11312B094832281921710F0921B9483938191500E
S11312C093830895FC01462F83812281821778F449
S11312D0348190E0830F911D622F70E0A2D5A0812C
S11312E0B181A80FB91F4C9383818F5F83830895C5
S11312F0FC0181E022819381291380E0089521E09B
S1131300FC018381811101C020E0822F0895E091C6
S11313109408F09195088081811107C08FEF9FEFA9
S113132090930202809301020895E0919408F09151
S113133095080580F681E02D0680F781E02D8281F5
S1131340938190930202809301020895CF93DF93D7
S1131350EC01E091D508F091D608938382838091C3
S1131360730890917408C817D90760F46091D50880
S11313707091D60880919208909193086E5F7F4F88
S11313806BD816C06091D5087091D60880919408E6
S1131390909195086E5F7F4F5FD880910102909184
S11313A00202C817D90720F4D0930202C0930102A5
S11313B0DF91CF9108954F925F926F927F928F92B7
S11313C09F92AF92BF92CF92DF92EF92FF920F93D0
S11313D01F93CF93DF934C015B012A01390183E210
S11313E090E00E94C301EC01009709F4E7C0C11426
S11313F0D10409F0CCC0C2010E94C301988F8F8B25
S1131400892B09F0C6C0CE010E94F801D7C0CF01D4
S11314103191DA013D93AD01DC018C91882311F007
S11314202150A9F718A2102F053008F014E01E8BE4
S113143019A31AA25E01B2E0AB0EB11CC5010E9451
S11314400702CE010C960E940702D987C88785E05F
S113145090E0811B91099D878C87DB8BCA8BA3014C
S1131460B401C601D6DA99838883E114F10419F032
S1131470F701D183C0830FB6F8940F928091750859
S11314808F5F809375088091D5089091D608892B39
S113149009F03FC0D093D608C093D5088091750851
S11314A0813009F045C00F2EF8EAEF2EF8E0FF2E48
S11314B0F02D0F2EF5EDCF2EF8E0DF2EF02DC70125
S11314C00E94F901F9E0EF0EF11CEC14FD04B9F7E8
S11314D08FE998E00E94F90186E998E00E94F901F9
S11314E089E898E00E94F90180E898E00E94F901F7
S11314F086E798E00E94F9018FE998E090939508B7
S11315008093940886E998E09093930880939208D6
S11315100FC08091710881110BC0E091D508F09142
S1131520D6088689081720F0D093D608C093D5082A
S113153080916D088F5F80936D088E8990917208F9
S1131540981710F48093720890E09C01220F331FC7
S1131550220F331F220F331F820F931FB5018855AB
S1131560974F0E940B020F900FBE80917108882341
S113157051F0E091D508F091D6088689801728F4B7
S1131580F7DA81E01CC081E01AC081E018C0D88E6F
S1131590CF8A81E0481A5108CF88D88CC40CD51C56
S11315A0D5018C91898F8C91882309F43BCFAE01AE
S11315B0465E5F4FF501319627E029CF8FEFDF912B
S11315C0CF911F910F91FF90EF90DF90CF90BF903C
S11315D0AF909F908F907F906F905F904F90089501
S11315E00F931F93CF93DF93EC01009709F43EC050
S11315F08091D5089091D608C817D907B9F10FB6CC
S1131600F8940F928A859B858657984069F58C8952
S11316109D8928E08938920739F1892B29F58E01B3
S11316200E5F1F4FC8010E945D028E89909172085F
S1131630981710F48093720890E09C01220F331FD6
S1131640220F331F220F331F820F931FB8018855B7
S1131650974F0E940B02E091D508F091D6089E891D
S11316608689981708F084DA0F900FBEDF91CF9126
S11316701F910F910895AF92BF92CF92DF92EF9294
S1131680FF920F93A12CB12CC12CD12CE12CF12C65
S113169000E020E030E045E550E066E872E085ECEB
S11316A09CE089DE813041F4F894809371081092B3
S11316B07408109273081FDA0F91FF90EF90DF9077
S11316C0CF90BF90AF90089580916C088F5F809306
S11316D06C080895CF92DF92EF92FF920F931F93BD
S11316E0CF93DF9380916C08811199C08091730826
S11316F09091740801969093740880937308E09015
S11317007308F0907408E114F104B1F48091940822
S11317109091950820919208309193083093950800
S113172020939408909393088093920880916E0874
S11317308F5F80936E08EBDD80910102909102022D
S1131740E816F90608F454C0D12CCC24C39401C083
S1131750DC2CE0919408F09195088081811107C0F8
S11317608FEF9FEF909302028093010242C0E091B9
S11317709408F09195080580F681E02DC681D78103
S11317802A813B81E216F30628F430930202209367
S113179001022FC08E010E5F1F4FC8010E945D021F
S11317A08C899D89892B21F0CE010C960E945D02C3
S11317B02E8980917208821710F42093720830E009
S11317C0C901880F991F880F991F880F991F820FCD
S11317D0931FB8018855974F0E940B02E091D508DA
S11317E0F091D6089E898689981708F0B1CFB1CFB9
S11317F0D12CE091D508F091D608868990E0FC01BF
S1131800EE0FFF1FEE0FFF1FEE0FFF1F8E0F9F1F28
S1131810FC01E855F74F8081823040F409C0809183
S113182070088F5F80937008D12C02C0DD24D3949C
S113183080916F08882311F0DD24D3948D2DDF91DE
S1131840CF911F910F91FF90EF90DF90CF9008956B
S1131850DF92EF92FF920F931F93CF93DF930FB614
S1131860F8940F9280916C08815080936C08809159
S11318706C0881115FC080917508882309F45CC0ED
S11318800F2EF9E8EF2EF8E0FF2EF02DDD24D3948F
S113189030C0E0918E08F0918F08C681D781CE01C7
S11318A00C960E945D028E010E5F1F4FC8010E94BC
S11318B05D028E8990917208981710F480937208D3
S11318C090E09C01220F331F220F331F220F331F7E
S11318D0820F931FB8018855974F0E940B02E09125
S11318E0D508F091D6089E898689981710F0D09271
S11318F06F08F70180818111CCCF80917008882313
S113190091F080917008882371F0C1E0E3DE8111C9
S1131910C0936F0880917008815080937008809103
S113192070088111F3CF80916F08813039F420D988
S113193081E005C080E003C080E001C080E00F903A
S11319400FBEDF91CF911F910F91FF90EF90DF9029
S11319500895CF93DF93EC01009799F0B5DE809161
S1131960730890917408C80FD91F8091D50890917D
S1131970D60802960E945D02CE01E8DC69DF81117F
S113198001C0F6D8DF91CF9108950F2EF8EAEF2E1B
S1131990F8E0FF2EF02DC0E8D8E026C095DE1881CF
S11319A057DF112309F10FB6F8940F92E0918508DF
S11319B0F091860806811781C80102960E945D0293
S11319C08091750881508093750880917F088150BB
S11319D080937F080F900FBEF8018789908D0E9435
S11319E0F801C8010E94F80180917F088111D6CFC7
S11319F0F70180818230C0F3BBD8F6CF80916C08A8
S1131A00882321F081E080936F08089510926F0875
S1131A108091720890E0FC01EE0FFF1FEE0FFF1F94
S1131A20EE0FFF1F8E0F9F1FFC01E855F74F8081BB
S1131A30811117C08091720881508093720880913F
S1131A40720890E0FC01EE0FFF1FEE0FFF1FEE0F78
S1131A50FF1F8E0F9F1FFC01E855F74F80818823DD
S1131A6049F3E0917208F0E0CF01880F991F880FC5
S1131A70991F880F991FE80FF91FE855F74FA181A7
S1131A80B28112960D90BC91A02DB283A183CF0197
S1131A900396A817B90731F412968D919C91139768
S1131AA0928381830180F281E02D868197819093D6
S1131AB0D6088093D50808950F931F93CF93DF938F
S1131AC0EC010FB6F8940F92009721F4C091D50859
S1131AD0D091D6088E010E5F1F4FC8010E945D028F
S1131AE08C899D89892B21F0CE010C960E945D0280
S1131AF0B80186E798E00E940B020F900FBE809118
S1131B00D5089091D608C817D90799F4809171081F
S1131B10882311F02DD817C080917508909176080C
S1131B20981305C01092D6081092D5080CC066DF31
S1131B300AC080917108882331F00FB6F8940F928F
S1131B40E6DB0F900FBEDF91CF911F910F910895A7
S1131B50CF93DF93EB016091D5087091D608645F51
S1131B607F4F0E942C028091D5089091D60802964E
S1131B700E945D02CF3F8FEFD80759F46091D508DA
S1131B807091D6086E5F7F4F86E798E00E940B0243
S1131B9007C080917308909174088C0F9D1FD6DB49
S1131BA0DF91CF9108950F931F93CF93DF93DC01BF
S1131BB01596ED91FC911697C681D7818E01045F2D
S1131BC01F4FC8010E945D0280916C0881111CC0E6
S1131BD00A501109C8010E945D028E899091720811
S1131BE0981710F48093720890E09C01220F331F21
S1131BF0220F331F220F331F820F931FB801885502
S1131C00974F0E940B0205C0B80189E898E00E9432
S1131C100B02E091D508F091D6089E898689891730
S1131C2020F481E080936F0801C080E0DF91CF91C0
S1131C301F910F91089520916E08FC01208320913B
S1131C407308309174083283218308950FB6F89491
S1131C500F924091730850917408DB012D913C91CF
S1131C602F3FBFEF3B0711F1E0916E08DC01FC91BF
S1131C70FE1739F01196ED91FC9112974E175F07FC
S1131C80B8F4DC011196ED91FC911297DA01AE1BC8
S1131C90BF0BA217B30770F4E41BF50B2E0F3F1F05
S1131CA0FB0131832083C7DF80E005C080E003C0EF
S1131CB081E001C081E00F900FBE089581E0809320
S1131CC06F0808950F931F93CF93DF93EC01009750
S1131CD009F451C08E89E091D508F091D60896890F
S1131CE0891708F048C02C853D8533235CF0E091CA
S1131CF0D508F091D608968925E030E0291B3109F2
S1131D003D872C8790E09C01220F331F220F331F45
S1131D10220F331F820F931F8855974F2A853B85C7
S1131D202817390711F58E010E5F1F4FC8010E9455
S1131D305D02E091D508F091D60886898E8B90914A
S1131D407208981710F48093720890E09C01220F97
S1131D50331F220F331F220F331F820F931FB8012B
S1131D608855974F0E940B0206C0E091D508F09168
S1131D70D60886898E8BDF91CF911F910F9108959C
S1131D800F931F93CF93DF93EC01009771F18AA116
S1131D9081508AA32E8999A1291749F1811129C05B
S1131DA08E010E5F1F4FC8010E945D0289A18E8BB8
S1131DB025E030E0281B31093D872C87909172087B
S1131DC0981710F48093720890E09C01220F331F3F
S1131DD0220F331F220F331F820F931FB801885520
S1131DE0974F0E940B0281E005C080E003C080E0B1
S1131DF001C080E0DF91CF911F910F9108958091F0
S1131E00D5089091D608892B39F0E091D508F09146
S1131E10D60882A18F5F82A38091D5089091D608BD
S1131E20089597FB072E16F4009406D077FD08D08A
S1131E300BD007FC05D03EF4909581959F4F0895F3
S1131E40709561957F4F0895AA1BBB1B51E107C094
S1131E50AA1FBB1FA617B70710F0A61BB70B881F36
S1131E60991F5A95A9F780959095BC01CD010895C5
S1131E70FB01DC0102C001900D9241505040D8F7A3
S1131E800895BB274A3031F4992322F4BDE290959A
S1131E9081959F4F01C0BB27FB015527AA27880FB7
S1131EA0991FAA1FA41710F0A41B83955051B9F7CA
S1131EB0A05DAA3308F0A95DA193009779F7B11149
S1131EC0B1931192CB0100C0DC01FC01672F719129
S1131ED07723E1F7329704C07C916D93708362910C
S10F1EE0AE17BF07C8F30895F894FFCFB5
S1131EECFEFFFF0A0A5250492048616E6473686110
S1131EFC6B6520446F6E650A0A000A0A4D79204806
S1131F0C616E647368616B6520446F6E650A0A00C8
S1131F1C46726F6E74203A004C656674203A005217
S1131F2C69676874203A0020636D2C200020636D6F
S1131F3C0A006D7954696D6572006D6178536F6E2A
S1131F4C6172005461736B2031005461736B2032E5
S1131F5C005250495F526563656976650052504979
S10F1F6C5F53656E640049444C4500005E
S9030000FC
